:100000000C9416070C943E070C943E070C943E0784
:100010000C943E070C943E070C943E070C94C619B2
:100020000C943E070C943E070C943E070C943E073C
:100030000C943E070C943E070C943E070C943E072C
:100040000C9438130C943E070C9437120C94111234
:100050000C943E070C943E070C943E070C943E070C
:100060000C9412140C943E0700000000003E5B4FFD
:100070005B3E3E6B4F6B3E1C3E7C3E1C183C7E3C08
:10008000181C577D571C1C5E7F5E1C00183C180016
:10009000FFE7C3E7FF0018241800FFE7DBE7FF30A6
:1000A000483A060E2629792926407F050507407F14
:1000B00005253F5A3CE73C5A7F3E1C1C08081C1C87
:1000C0003E7F14227F22145F5F005F5F06097F017D
:1000D0007F006689956A606060606094A2FFA29468
:1000E00008047E040810207E201008082A1C080836
:1000F0001C2A08081E101010100C1E0C1E0C303884
:100100003E3830060E3E0E06000000000000005F84
:1001100000000007000700147F147F14242A7F2AA0
:100120001223130864623649562050000807030062
:10013000001C2241000041221C002A1C7F1C2A08AE
:10014000083E080800807030000808080808000011
:1001500060600020100804023E5149453E00427F85
:10016000400072494949462141494D331814127FD4
:100170001027454545393C4A494931412111090774
:100180003649494936464949291E000014000000F5
:1001900040340000000814224114141414140041C7
:1001A00022140802015909063E415D594E7C121184
:1001B000127C7F494949363E414141227F414141BC
:1001C0003E7F494949417F090909013E4141517337
:1001D0007F0808087F00417F41002040413F017FA8
:1001E000081422417F404040407F021C027F7F0470
:1001F00008107F3E4141413E7F090909063E4151B9
:10020000215E7F09192946264949493203017F01A8
:10021000033F4040403F1F2040201F3F4038403FA9
:10022000631408146303047804036159494D4300BF
:100230007F4141410204081020004141417F0402F6
:10024000010204404040404000030708002054548D
:1002500078407F284444383844444428384444286B
:100260007F385454541800087E090218A4A49C78BE
:100270007F0804047800447D40002040403D007F1A
:100280001028440000417F40007C047804787C08FA
:100290000404783844444438FC18242418182424CE
:1002A00018FC7C08040408485454542404043F44B3
:1002B000243C4040207C1C2040201C3C4030403CE2
:1002C00044281028444C9090907C4464544C440042
:1002D00008364100000077000000413608000201A6
:1002E0000204023C2623263C1EA1A161123A404092
:1002F000207A38545455592155557941225454780F
:1003000042215554784020545579400C1E527212A7
:100310003955555559395454545939555454580030
:1003200000457C410002457D420001457C407D1234
:1003300011127DF0282528F07C5455450020545496
:100340007C547C0A097F4932494949323A44444441
:100350003A324A4848303A4141217A3A424020787C
:10036000009DA0A07D3D4242423D3D4040403D3C7D
:1003700024FF2424487E4943662B2FFC2F2BFF09A2
:1003800029F620C0887E0903205454794100004496
:100390007D413048484A32384040227A007A0A0A81
:1003A000727D0D19317D2629292F282629292926F4
:1003B00030484D4020380808080808080808382F39
:1003C00010C8ACBA2F102834FA00007B00000814C3
:1003D0002A142222142A14085500550055AA55AA99
:1003E00055AAFF55FF55FF000000FF00101010FF39
:1003F00000141414FF001010FF00FF1010F010F094
:10040000141414FC001414F700FF0000FF00FF1484
:1004100014F404FC141417101F10101F101F1414D0
:10042000141F00101010F0000000001F101010101A
:100430001F10101010F010000000FF10101010100E
:1004400010101010FF10000000FF140000FF00FF4C
:1004500000001F10170000FC04F4141417101714E8
:1004600014F404F40000FF00F7141414141414140A
:10047000F700F7141414171410101F101F1414147D
:10048000F4141010F010F000001F101F0000001FE7
:1004900014000000FC140000F010F01010FF10FF1A
:1004A000141414FF141010101F00000000F010FFAF
:1004B000FFFFFFFFF0F0F0F0F0FFFFFF0000000093
:1004C00000FFFF0F0F0F0F0F3844443844FC4A4A17
:1004D0004A347E02020606027E027E0263554941CC
:1004E000633844443C04407E201E2006027E020203
:1004F00099A5E7A5991C2A492A1C4C7201724C3017
:100500004A4D4D303048784830BC625A463D3E49ED
:100510004949007E0101017E2A2A2A2A2A44445F91
:10052000444440514A444040444A51400000FF0185
:1005300003E080FF000008086B6B08361236243693
:10054000060F090F060000181800000010100030F8
:1005500040FF0101001F01011E00191D1712003C80
:100560003C3C3C000000000000000000230026008E
:100570002900000000080002010000030407000039
:1005800000000000000000000000240027002A00F6
:10059000000000000000000000000000000000005B
:1005A000000000000000000000000000000000004B
:1005B000000000000000000000000000000000003B
:1005C000000000000000000000000000000000002B
:1005D0000E0F87C3E11821F01110482211142208D0
:1005E00010201012111424001020101211122400D7
:1005F0000C2010121112240002201013E111247893
:100600000120101221112408012010121110A40839
:10061000111048221110A2080E0F87C2091061F0B4
:1006200000000000000000000000000000000000CA
:1006300000000000000000000000000000000000BA
:1006400000000000000000000000000000000000AA
:10065000000000000000000000000000000000009A
:100660000000000000000000000000000107800002
:10067000000F000003084000007FE0000508400074
:1006800000FFF0000108400000E670000108400093
:1006900000FFF000010840000039C00001084000E0
:1006A00000666000010840000030C0000108400002
:1006B0000000000007C780000000000000000000EC
:1006C000000000000000000000000000000000002A
:1006D000000000000000000000000000078780000C
:1006E0000010800008484000000900000048400059
:1006F000001FC00000484000003760000088400034
:10070000007FF00000884000005FD000010840003A
:100710000050500002084000000D80000408400016
:10072000000000000FC78000000000000000000073
:1007300000000000000000000000000000000000B9
:1007400000000000000000000000000000000000A9
:1007500000000000078780000000000008484000FB
:1007600000030000004840000007800000484000EF
:10077000000FC00007884000001B600000484000D8
:10078000001FE000004840000004800000484000D6
:10079000000B4000084840000014A00007878000BC
:1007A0000000000000000000000000000000000049
:1007B0000000000000000000000000000000000039
:1007C0000000000000000000000000000000000029
:1007D0000000000000000000000000000187800011
:1007E0000001000001884000000200000288400073
:1007F000000400000288400000020000048840005D
:100800000001000004884000000200000888400049
:10081000000400000FC840000000000000884000F5
:1008200000000000008780000000000000000000C1
:1008300000000000000000000000000000000000B8
:1008400000000000000000000000000000000000A8
:100850000000000000000000000000000000040094
:100860000000000007C784000002000004084400E4
:1008700000070000040844000007000004084400CA
:10088000007FF0000788440000FFF80000484400A3
:1008900000FFF801C048440000FFF8000048400095
:1008A00000FFF800084844000000000007878400AB
:1008B0000000000000000000000000000000000038
:1008C0000000000000000000000000000000000028
:1008D0000000000000000000000000000000000018
:1008E0000000000000000000000000000000000008
:1008F00000000000000000000000000000000000F8
:1009000000000000000000001E0000000620002083
:100910001100000009200020112CC38E087BC5F8AF
:1009200011312410042026201E21E6180221E42083
:100930001021018601222420102100820922242076
:100940001020E71C0619E418000000000000000059
:100950000000000000000000000000000000000097
:100960000000000000000000000000000000000087
:100970000000000000000000000000000000000077
:100980000000000000000000000000000000000067
:100990000000000000000000000000000000000057
:1009A0000000000000000000000000000000000047
:1009B0000000000000000000000000000000000037
:1009C0000000000000000000000000000000000027
:1009D0000000000000000000003E00000000700069
:1009E00000C20000000080000102000200010400BB
:1009F00001000004800109000200DB8F38E3DE0003
:100A00000200644449110800021E444441120800D7
:100A10000204484832121000020488880A2210009A
:100A2000018488888A22100000788707F1C20E00AE
:100A300000000000000400000000000000040000AE
:100A400000000000000000000000000000000000A6
:100A50000000000000000000000000000000000096
:100A60000000000000000000000000000000000086
:100A700066360CE1F0FCFC3C673318E1F8FCFE7EC6
:100A8000673319B18CC0C66067B3B9B18CFCFE7C0A
:100A900066F1B3198CFCFC1E6671B3F98CC0CC06F0
:100AA0006670E3F9F8FCC67E6630E60DF0FCC33CE8
:100AB0000000000000000000000000000000000036
:100AC0000000000000000000000000000000000026
:100AD0000000000000000000000000000000000016
:100AE0000000000000000000000000000000000006
:100AF00000000000000000000000000000000000F6
:100B000000000000000000000000000000000000E5
:100B100000000000000000000003C007800F00007C
:100B2000001FF83FF07FE000003FFC7FF8FFF0007F
:100B300000399C7338E67000003FFC7FF8FFF0003E
:100B4000000E701CE039C000001998333066600058
:100B5000000C30186030C0000000000000000000F1
:100B60000000000000000000000000000000000085
:100B700000018003000600000003C007800F000092
:100B80000007E00FC01F8000000DB01B6036C000E2
:100B9000000FF01FE03FC000000240048009000089
:100BA0000005A00B40168000000A5014A029400048
:100BB0000000000000000000000000000000000035
:100BC0000000000000000000000000000000000025
:100BD0000000000000000000000000000000000015
:100BE00000000000000200000000000000040000FF
:100BF00000000000000800000000000000040000E9
:100C000000000000000200000000000000040000DE
:100C100000000000000800000000000000000000CC
:100C200000000000000000000000010000000000C3
:100C300000000100000000000000010000000000B2
:100C400000000100000000000000000000000000A3
:100C50000000000000000000000000000000000094
:100C60000000000000000000000000000000000084
:100C70000000000000000000000000000000000074
:100C800000000100000000000000038000000000E0
:100C9000000003800000000000003FF8000000009A
:100CA00000007FFC0000000000007FFC000000004E
:100CB00000007FFC0000000000007FFC000000003E
:100CC0000000000000000000000000000000000024
:100CD0000000000000000000000000000000000014
:100CE0000000000000000000000000000000000004
:100CF00000000000000000000000000000000000F4
:100D000000000000000000001E000000062000207F
:100D10001100000009200020112CC38E087BC5F8AB
:100D200011312410042026201E21E6180221E4207F
:100D30001021018601222420102100820922242072
:100D40001020E71C0619E418000000000000000055
:100D50000000000000000000000000000000000093
:100D60000000000000000000000000000000000083
:100D70000000000000000000000000000000000073
:100D80000000000000000000000000000000000063
:100D9000183C7EDBFF5A8142183C7EDBFF245AA5BB
:100DA000211246FEF77FFEFF882202210240FE3715
:100DB0006FFF7F6828D80F07FEFFFE67FFF19836A8
:100DC000CC030F07FEFFFE67FFF39C66630C0882EF
:100DD000288808208C0188209489122A22A788A8B4
:100DE0008F080E070FEFFFFFFF0882288808208C6E
:100DF0000188209489120102040810204080010219
:100E00000408102001020408102000000000250042
:100E100028002B0004040404040404040202020257
:100E2000020203030303030302003D2011241FBE3B
:100E3000CFEFD8E0DEBFCDBF27E0A8E6B5E001C028
:100E40001D92A236B207E1F715E0A0E0B1E0ECE2B6
:100E5000F3E402C005900D92A836B107D9F717E068
:100E6000C6E1D7E004C02197FE010E94CA20C53127
:100E7000D107C9F70E94481A0C9494210C940000E1
:100E8000FC01918D828D981761F0828DDF01A80F92
:100E9000B11D5D968C91928D9F5F9F73928F90E0B4
:100EA00008958FEF9FEF0895FC01918D828D981723
:100EB00031F0828DE80FF11D858D90E008958FEF60
:100EC0009FEF0895FC01918D228D892F90E0805C29
:100ED0009F4F821B91098F739927089585E796E0AC
:100EE0000E94620721E0892B09F420E0822F0895F7
:100EF000FC01848DDF01A80FB11DA35ABF4F2C91B7
:100F0000848D90E001968F739927848FA689B78985
:100F10002C93A089B1898C9180648C93938D848D5E
:100F2000981306C00288F389E02D80818F7D80832D
:100F30000895EF92FF920F931F93CF93DF93EC01ED
:100F400081E0888F9B8D8C8D981305C0E889F98985
:100F5000808185FD24C0F62E0B8D10E00F5F1F4FA2
:100F60000F731127E02E8C8DE8120CC00FB607FC12
:100F7000FACFE889F989808185FFF5CFCE010E94FB
:100F80007807F1CF8B8DFE01E80FF11DE35AFF4F7B
:100F9000F0820B8FEA89FB898081806207C0EE892D
:100FA000FF896083E889F98980818064808381E09A
:100FB00090E0DF91CF911F910F91FF90EF900895F6
:100FC000CF93DF93EC01888D8823C9F0EA89FB89F0
:100FD000808185FD05C0A889B9898C9186FD0FC0E7
:100FE0000FB607FCF5CF808185FFF2CFA889B989BC
:100FF0008C9185FFEDCFCE010E947807E7CFDF917E
:10100000CF91089580E090E0892B29F00E946E072F
:1010100081110C9400000895833081F028F4813010
:1010200099F08230A1F008958730A9F08830B9F0A6
:101030008430D1F4809180008F7D03C08091800046
:101040008F7780938000089584B58F7702C084B530
:101050008F7D84BD08958091B0008F7703C080910B
:10106000B0008F7D8093B00008953FB7F8948091D1
:10107000B4059091B505A091B605B091B70526B518
:10108000A89B05C02F3F19F00196A11DB11D3FBFC0
:10109000BA2FA92F982F8827820F911DA11DB11D4E
:1010A000BC01CD0142E0660F771F881F991F4A954A
:1010B000D1F708950F931F93CF93DF93DC015596DB
:1010C0008C915597823071F0833009F1813009F0AD
:1010D0008CC01496ED91FC911597E41BF50BE21B67
:1010E000F30B20C01496ED91FC911597CF01861B50
:1010F000970BBC01615071091696ED91FC91179701
:10110000CF01841B950BAC01421B530B6EC016968E
:10111000ED91FC911797CF01861B970BBC01615095
:101120007109FA0177FD1BC116968D919C91179755
:10113000681779070CF013C1F7FF04C02E0F3F1F8B
:10114000E0E0F0E014968D919C911597AF01420F6D
:10115000531F841795071CF49C012E1B3F0B12167E
:1011600013060CF0FCC0CB0177FD079643E0959584
:1011700087954A95E1F79695982F882797958795B3
:10118000E80FF91FEC5FFE4F6770772781E090E072
:1011900001C0880F6A95EAF7482F0130110541F028
:1011A00088F00230110509F0DAC02E0F3F1F15C07C
:1011B0002E0F3F1FE217F30709F4D1C08081842B63
:1011C0008193F8CF80952E0F3F1FE217F30709F4A4
:1011D000C6C0908198239193F8CFE217F30709F4E2
:1011E000BEC0808184278193F8CF77FDB8C0149664
:1011F0008D919C911597681779070CF0B0C057FF37
:1012000004C0240F351F40E050E016968D919C914C
:101210001797FA01E20FF31F8E179F071CF49C012A
:10122000241B350B121613060CF099C0A22F842F25
:1012300086958695869590E8899F600D711D11248D
:10124000FB01EC5FFE4F4770A9F198E0941B492F1A
:1012500050E0EA01CF5EDA4F8881291790F4421BF3
:1012600051092FEF30E002C0359527954A95E2F7F6
:1012700082230130110541F068F00230110589F038
:101280006EC00130110519F42081822B0CC0013091
:10129000110520F480952081822305C002301105BC
:1012A00031F4208182278083A91708F458C0A91B34
:1012B000E058FF4FA83048F10230110559F4EF0112
:1012C0008A2F988190959883C058DF4F8850883036
:1012D000C0F730C081E00130110509F080E0819550
:1012E000EF019A2F8883C058DF4F98509830D0F77D
:1012F00088EF8A0F86958695869590E8899FE00D00
:10130000F11D1124E058FF4FA770AA2341F1B0E06E
:10131000A75FBA4F8C910130110529F038F00230E7
:101320001105D1F01CC09081892B18C08095908147
:10133000892314C088EF8A0F86958695869590E854
:10134000899FE00DF11D1124E058FF4FA77039F07F
:10135000B0E0A75FBA4F8C91908189278083DF919D
:10136000CF911F910F9108950F931F93CF93DF9308
:10137000DC01FB0155968C915597823081F08330CA
:1013800019F1813051F514968D919C911597BC01FE
:10139000641B750BAB0141505109BF0181C014960C
:1013A0006D917C911597CB018E1B9F0BFC011696BE
:1013B0008D919C911797BC01641B750BAB0141503B
:1013C0005109E21BF30B09C016966D917C9117979A
:1013D0006E1B7F0B621B730B63C057FD1CC11696FF
:1013E0008D919C911797481759070CF014C1F7FF7E
:1013F00004C02E0F3F1FE0E0F0E014968D919C9109
:101400001597BF01620F731F861797071CF49C0185
:101410002E1B3F0B121613060CF0FDC0CA0157FD20
:10142000079663E0959587956A95E1F79695982FCD
:10143000882797958795E80FF91FEC5FFE4F477057
:10144000552781E090E001C0880F4A95EAF7482FC0
:101450000130110541F088F00230110509F0DBC0C0
:101460002E0F3F1F15C02E0F3F1FE217F30709F481
:10147000D2C08081842B8193F8CF80952E0F3F1F9F
:10148000E217F30709F4C7C0908198239193F8CF2E
:10149000E217F30709F4BFC0808184278193F8CF56
:1014A00057FDB9C014968D919C911597481759070F
:1014B0000CF0B1C077FF04C0260F371F60E070E06A
:1014C00016968D919C911797FB01E20FF31F8E17D3
:1014D0009F071CF49C01261B370B121613060CF0F9
:1014E0009AC0A22F862F86958695869590E8899F2B
:1014F000400D511D1124FA01EC5FFE4F6770A9F1F8
:1015000098E0961B492F50E0EA01CF5EDA4F8881C0
:10151000291790F4421B51092FEF30E002C0359596
:1015200027954A95E2F782230130110541F068F0D2
:101530000230110589F06FC00130110519F42081C6
:10154000822B0CC00130110520F48095208182236C
:1015500005C00230110531F4208182278083A9174C
:1015600008F459C0A91BE058FF4FA83048F10230D9
:10157000110559F4EF018A2F988190959883C058EE
:10158000DF4F88508830C0F731C081E0013011054D
:1015900009F080E08195EF019A2F8883C058DF4FD2
:1015A00098509830D0F788EF8A0F86958695869563
:1015B00060E8869FE00DF11D1124E058FF4FA770F1
:1015C000AA2349F1B0E0A75FBA4F8C910130110511
:1015D00029F038F002301105D9F01DC09081892B17
:1015E00003C0809590818923808315C088EF8A0F7E
:1015F00086958695869570E8879FE00DF11D1124EC
:10160000E058FF4FA77039F0B0E0A75FBA4F8C9158
:1016100090818927E9CFDF91CF911F910F91089594
:10162000FC0177FD9AC080859185681779070CF0D9
:1016300094C057FD92C082859385481759070CF0D6
:101640008CC08589823009F07CC084819581DC0161
:10165000A61BB70BBD016150710986819781FC0102
:10166000E41BF50BAF01415051090AC0813041F430
:1016700084819581841B950BAB01BC01615071097C
:101680002130310529F008F122303105E1F10895CA
:10169000FA0157FD3796A3E0F595E795AA95E1F78E
:1016A000F695FE2FEE27F795E7956E0F7F1FFB014E
:1016B000EC5FFE4F4770552781E090E001C0880F36
:1016C0004A95EAF79081892B3AC0FA0157FD37967F
:1016D00023E0F595E7952A95E1F7F695FE2FEE279D
:1016E000F795E7956E0F7F1FFB01EC5FFE4F47708C
:1016F000552781E090E001C0880F4A95EAF7809570
:10170000908189231CC0FA0157FD379683E0F59537
:10171000E7958A95E1F7F695FE2FEE27F795E79581
:101720006E0F7F1FFB01EC5FFE4F4770552781E076
:1017300090E001C0880F4A95EAF79081892780835D
:101740000895833009F092CF86819781861B970B8D
:10175000BA01AC014150510993CF08950895FC019D
:101760006370658B8481958126813781613039F082
:10177000633029F0918780873387228708953187E6
:1017800020879387828708952F923F924F925F928E
:101790006F927F928F929F92AF92BF92CF92DF9281
:1017A000EF92FF920F931F93CF93DF93CDB7DEB7E6
:1017B0006C970FB6F894DEBF0FBECDBF9C8F8B8F9A
:1017C0005B011A011F830E833701C982DC01589621
:1017D0004D915C9159974115510509F0E5C0189656
:1017E0008D919C911997681779070CF0CAC11A96C8
:1017F0008D919C911B97281639060CF0C2C18C2C38
:10180000912CFB0136E0C39EE00DF11D1124FB87F6
:10181000EA871E161F060CF0B4C1C40133E0880F1E
:10182000991F3A95E1F79D878C87820D931D1816B5
:1018300019060CF0A6C157968C91811103C0203B6C
:1018400008F02F5FAB8DBC8DED91FC911197068058
:10185000F781E02DCD012A8F09952A8DB5E02B9FC8
:1018600090011124F5013596FF87EE87BB82AA828D
:101870002501A9014A195B09598B488BC1010896BA
:101880009B8B8A8BE889F989E40DF51DE859FF4F98
:101890009491988761013D822C82A885A0FF13C096
:1018A000AB8DBC8DED91FC91B981B13031F40084E8
:1018B000F185E02D2E813F8116C00284F385E02D55
:1018C000EE80FF801AC0EE81FF816E167F06F1F078
:1018D000AB8DBC8DED91FC91B981B13051F4008498
:1018E000F185E02D9301A601B2018B8D9C8D0995A8
:1018F0000DC00284F385E02D7301840194014C81B5
:101900005D816A817B818B8D9C8D0995E885E6954B
:10191000E887FFEFCF1ADF0A2C813D81280D391DA2
:101920003D832C834A895B89C416D50609F0B5CF5F
:101930005FEF451A550A8A819B81880D991D9B830B
:101940008A83AE85BF854A165B0609F09BCFEE8180
:10195000FF816E167F0609F4F2C0EB8DFC8DA0812D
:10196000B181F981F13079F4B5016B5F7F4F1C963D
:10197000ED91FC911D97830128E030E0A1018B8D52
:101980009C8D0995DCC06A857B85681979091A9652
:10199000ED91FC911B9773010C851D859401A101AC
:1019A0008B8D9C8D0995CBC0FA013496949132971A
:1019B00065917491291BCB01B7E02B9F800D911D80
:1019C0001124FA01259134913B8B2A8BFC0145911E
:1019D00054915B834A83FC013296C49031965491B2
:1019E0005E87329614913196D4908981823058F076
:1019F000612E012E000C7708AD2D0D2C000CBB0BB9
:101A0000B987A88704C019861886612C712CAB8D04
:101A1000BC8DED91FC9111970680F781E02DCD01F1
:101A20000995B9818B2E912C689CC001699C900D01
:101A3000789C900D1124FC01EA0DFB1DFD87EC87BD
:101A40001C82712C612CE12F110FFF0B95012E0FC1
:101A50003F1F3B872A87AC0CB11CA5014E0F5F1FAF
:101A60005F8B4E8BC1018D0D911DD7FC9A95998F7F
:101A7000888F4E85641608F062C0862D90E04885F8
:101A80005985480F591F489D9001499D300D589D1B
:101A9000300D1124D901A20DB31DB98BA88BAA84D6
:101AA000BB844C845D84DC80BA85DB1AE88DF98DBB
:101AB000E80FF91FFD8BEC8B8D2D8A0D2E893F8948
:101AC000A216B306B9F1877061F48A819B810196F1
:101AD000EA89FB89AA81BB81EA0FFB1F74909B8373
:101AE0008A8377FE20C0AB8DBC8DED91FC91B981CE
:101AF000B13061F40084F185E02D2E813F814C8965
:101B00005D89B5018B8D9C8D09950DC00284F3858F
:101B1000E02DEE80FF808401940148895989B2014B
:101B20008B8D9C8D0995770CEFEFAE1ABE0A480C91
:101B3000591CC2CF3C813C0D3C8363949ACFAB8D42
:101B4000BC8DED91FC9111970288F389E02DCD01B8
:101B50006C960FB6F894DEBF0FBECDBFDF91CF916C
:101B60001F910F91FF90EF90DF90CF90BF90AF90BB
:101B70009F908F907F906F905F904F903F902F90AD
:101B800009946C960FB6F894DEBF0FBECDBFDF91FF
:101B9000CF911F910F91FF90EF90DF90CF90BF906A
:101BA000AF909F908F907F906F905F904F903F90FD
:101BB0002F900895AF92BF92CF92EF92FF920F9322
:101BC0001F93CF93DF93EC01262F888D998D00977B
:101BD00009F040C06A3059F41D861C862C898E8518
:101BE0009F8538E0239F800D911D112441C06D30E9
:101BF00009F4AAC08E898823C1F03C898C859D8513
:101C000046E0349F800D911D112448855985481761
:101C100059075CF41D861C868E859F8548E0349F9D
:101C2000800D911D11249F878E87EA88FB88088983
:101C300019894E855F856C857D85CC88CE010E9493
:101C4000C40B2C898C859D8536E0239F800D911DCA
:101C5000112442C06A3079F41D861C862C89FC014F
:101C60003696E4918E859F852E9F800D911D1124BF
:101C70009F878E8769C06D3009F466C0FC01349679
:101C80003491631708F460C03196E491E61708F4C4
:101C90005BC0FC013296A590B490462F50E0431BE8
:101CA000510937E0349FB001359F700D1124A60E05
:101CB000B71EF501329634913196E491332311F039
:101CC000E1110DC0F5013496E4912C898C859D8538
:101CD000E29F800D911D11249D878C8735C0F501F1
:101CE000359644915E89552311F16C89E32FF0E01C
:101CF000E40FF11D47FDFA956E9FD0016F9FB00D67
:101D000011244C855D854A0F5B1FE885F985E41732
:101D1000F5076CF41D861C86FC013696E4918E85D1
:101D20009F856E9F800D911D11249F878E87EA8865
:101D3000FB88088919894E855F856C857D85CC88EF
:101D4000CE010E94C40BBECF81E090E0DF91CF9125
:101D50001F910F91FF90EF90CF90BF90AF9008959B
:101D60006F927F928F929F92AF92BF92CF92DF92AB
:101D7000EF92FF920F931F93CF93DF93EC014B01F0
:101D80005A0169013801E881F9810680F781E02D67
:101D90000995E881F9810684F785E02D8701960190
:101DA000A501B401CE010995E881F981A501460D8F
:101DB000571D415051090684F785E02D9601B40165
:101DC000CE010995E881F9810484F585E02D930120
:101DD000A501B401CE010995E881F981C80CD91C8F
:101DE000B601615071090484F585E02D9301A501C8
:101DF000CE010995E881F9810288F389E02DCE01B1
:101E0000DF91CF911F910F91FF90EF90DF90CF90D6
:101E1000BF90AF909F908F907F906F900994CF92DA
:101E2000DF92EF92FF920F931F93CF93DF9300D037
:101E300000D000D0CDB7DEB76C01DC01ED91FC9194
:101E40006217730789F4041715072CF4942F852F54
:101E5000A801092F182F041B150B98012F5F3F4F66
:101E6000008CF18DE02D12C04017510709F526179F
:101E700037072CF4962F872FB901292F382F261BCF
:101E8000370B2F5F3F4F028CF38DE02D8701C6018A
:101E9000099526960FB6F894DEBF0FBECDBFDF9131
:101EA000CF911F910F91FF90EF90DF90CF90089509
:101EB0000680F781E02D2D833E834B835C8369830D
:101EC0007A830995D601ED91FC910088F189E02D86
:101ED0002D813E814B815C8169817A81C6010995A2
:101EE000D601ED91FC910288F389E02DC60126967A
:101EF0000FB6F894DEBF0FBECDBFDF91CF911F911B
:101F00000F91FF90EF90DF90CF900994EF92FF92A6
:101F10000F931F93DC01ED91FC9111971A960D918F
:101F20001C911B9718962D913C911997048CF58D57
:101F3000E02D7B0140E050E060E070E009951F91EA
:101F40000F91FF90EF9008954F925F926F927F9262
:101F50008F929F92AF92BF92CF92DF92EF92FF92B9
:101F60000F931F93CF93DF9300D0CDB7DEB76C01F3
:101F70005A0139014801DC01ED91FC910680F7819D
:101F8000E02D69837A8309956981462E7A81572EDF
:101F9000640C751CD601ED91FC91461457046CF449
:101FA0000484F585E02D87019401A501B201C601E5
:101FB0000995BFEF4B1A5B0AEDCF0288F389E02D3C
:101FC000C6010F900F90DF91CF911F910F91FF905D
:101FD000EF90DF90CF90BF90AF909F908F907F90C9
:101FE0006F905F904F900994AF92BF92CF92DF9223
:101FF000EF92FF920F931F93CF93DF9300D000D007
:10200000CDB7DEB75C016901DC01ED91FC91068082
:10201000F781E02D4B835C8369837A830995D50131
:10202000ED91FC9169817A819B012C0D3D1D215020
:1020300031090088F189E02D78014B815C818A01AA
:10204000C5010995D501ED91FC910288F389E02D38
:10205000C5010F900F900F900F90DF91CF911F91BE
:102060000F91FF90EF90DF90CF90BF90AF900994C9
:10207000AF92BF92CF92DF92EF92FF920F931F9396
:10208000CF93DF9300D000D0CDB7DEB75C016901FC
:10209000DC01ED91FC910680F781E02D4B835C83A0
:1020A00069837A830995D501ED91FC914B815C811F
:1020B000C40ED51EB1E0CB1AD1080088F189E02DFD
:1020C0007801860169817A819B01C5010995D50155
:1020D000ED91FC910288F389E02DC5010F900F90DE
:1020E0000F900F90DF91CF911F910F91FF90EF9084
:1020F000DF90CF90BF90AF9009940895EF92FF9238
:102100000F931F93DC01ED91FC91048CF58DE02D74
:1021100009951F910F91FF90EF9008950F931F93D2
:10212000DC01ED91FC91028CF38DE02D09951F915E
:102130000F9108950F931F93DC01ED91FC91008C9A
:10214000F18DE02D09951F910F910895DC01ED911E
:10215000FC910480F581E02D099408952F923F921F
:102160004F925F926F927F928F929F92AF92BF92A7
:10217000CF92DF92EF92FF920F931F93CF93DF9353
:1021800000D01F92CDB7DEB74C017B836A836A0112
:10219000590117019801241B350B37FF03C03195F6
:1021A00021953109C5014A815B81841B950B97FFFD
:1021B00003C091958195910951E059838217930746
:1021C00014F019820BC09A2D8B2D5801092F182F4E
:1021D0009A818B81DB82CA82C92ED82E8A819B810B
:1021E000A816B9065CF49C2D8D2D6801092F182FB7
:1021F0009A818B81BB82AA82A92EB82E2501AA8141
:10220000BB814A1A5B0A38016C187D0877FE03C04F
:10221000719461947108720157FE03C0BFEFEB1A0D
:10222000FB0AF594E794C016D1061CF00FEF1FEFE0
:102230001FC001E010E01CC0D401ED91FC91B981F8
:102240000084F185E02D9101BB23C1F04A815B81BF
:10225000B601C4010995E618F708F7FE04C0C00EE0
:10226000D11EE40CF51CEA81FB813196FB83EA83E5
:102270004A815B81A416B506FCF604C0A6016A81FA
:102280007B81E7CF0F900F900F90DF91CF911F913F
:102290000F91FF90EF90DF90CF90BF90AF909F9005
:1022A0008F907F906F905F904F903F902F90089508
:1022B00085ED8093BC008091BC0084FDFCCF109222
:1022C0005106089540918A05262F30E0240F311DD4
:1022D00021323105DCF4209151062430C9F4FC018F
:1022E00080E090E0861758F430918A052191DC0156
:1022F000A859BA4FA30FB11D2C930196F3CF80912B
:102300008A05680F60938A0580E0089581E008954A
:1023100082E00895089581E090E03091B905209120
:10232000B805321710F480E090E0919581959109FD
:1023300008958091B9059091B805891730F48F5FA1
:102340008093B90580E090E008958FEF9FEF0895A6
:102350008091B80590E02091B905821B91090895FC
:10236000CF92DF92EF92FF920F931F93CF93DF9361
:102370007C01262F972F8A0180915206882391F0A5
:10238000C62FD72F6E01C40ED51ECC15DD0571F0FA
:102390006991D701ED91FC910190F081E02DC70189
:1023A0000995F3CF642F822F0E946211C801DF913B
:1023B000CF911F910F91FF90EF90DF90CF900895F4
:1023C000CF93DF931F92CDB7DEB76983209152067A
:1023D0002223D1F020917406203240F021E030E039
:1023E000FC013383228380E090E015C08091530686
:1023F000E82FF0E0EC5AF94F998190838F5F80933A
:1024000053068093740605C061E0CE0101960E94D8
:10241000621181E090E00F90DF91CF9108950E94CA
:10242000D0201F920F920FB60F9211242F933F933B
:102430004F935F936F937F938F939F93AF93BF93CC
:10244000EF93FF9385E796E00E947807FF91EF9165
:10245000BF91AF919F918F917F916F915F914F91BC
:102460003F912F910F900FBE0F901F9018951F92C4
:102470000F920FB60F9211242F938F939F93EF9388
:10248000FF93E0918506F09186068081E0918B06AE
:10249000F0918C0682FD12C0908180918E068F5F34
:1024A0008F7320918F06821751F0E0918E06F0E035
:1024B000EB58F94F958F80938E0601C08081FF9174
:1024C000EF919F918F912F910F900FBE0F901F90C2
:1024D0001895CF93DF93282F30E0F901EE58FA4F8B
:1024E0008491F901EA50F24FD491F901EC5EF14F79
:1024F000C491CC2391F081110E940C08EC2FF0E0E4
:10250000EE0FFF1FE859FA4FA591B491EC91ED231E
:1025100081E090E021F480E002C080E090E0DF9173
:10252000CF9108951F93CF93DF93282F30E0F901C7
:10253000EE58FA4F8491F901EA50F24FD491F90123
:10254000EC5EF14FC491CC23C9F0162F81110E948B
:102550000C08EC2FF0E0EE0FFF1FE65FF14FA591A6
:10256000B4918FB7F894111105C09C91ED2FE095AF
:10257000E92302C0EC91ED2BEC938FBFDF91CF915B
:102580001F910895CF93DF9390E0FC01EA50F24F42
:102590002491FC01EC5EF14F8491882361F190E07D
:1025A000880F991FFC01EA57FA4FC591D491FC019D
:1025B000E65FF14FA591B491611109C09FB7F894FE
:1025C0008881209582238883EC912E230BC0623072
:1025D00061F49FB7F8943881822F80958323888394
:1025E000EC912E2B2C939FBF06C08FB7F894E881F7
:1025F0002E2B28838FBFDF91CF9108958F929F92CA
:10260000AF92BF92CF92DF92EF92FF926B017C016B
:102610000E9435084B015C01C114D104E104F104AE
:10262000F1F00E943508DC01CB0188199909AA094B
:10263000BB09883E9340A105B10570F321E0C21AA1
:10264000D108E108F10888EE880E83E0981EA11CED
:10265000B11CC114D104E104F10419F7DDCFFF90DE
:10266000EF90DF90CF90BF90AF909F908F900895A4
:102670001F920F920FB60F9211242F933F938F93B7
:102680009F93AF93BF938091B0059091B105A091B6
:10269000B205B091B3053091AF0523E0230F2D377C
:1026A00020F40196A11DB11D05C026E8230F029656
:1026B000A11DB11D2093AF058093B0059093B10586
:1026C000A093B205B093B3058091B4059091B50580
:1026D000A091B605B091B7050196A11DB11D8093DB
:1026E000B4059093B505A093B605B093B705BF9117
:1026F000AF919F918F913F912F910F900FBE0F90AF
:102700001F9018952F923F924F925F926F927F92F7
:102710008F929F92AF92BF92CF92DF92EF92FF92F1
:102720000F931F93CF93DF93CDB7DEB728970FB6E4
:10273000F894DEBF0FBECDBF2C015B013A01209F94
:102740006001219FD00C309FD00C1124C601079648
:1027500097FD0796AC0183E0559547958A95E1F77B
:102760005A83498300E010E018861F82212CC9019A
:1027700001979E838D83E981FA810E171F07CCF59F
:10278000F301E00FF11F3490EF81F8853896FC8358
:10279000EB83822C912C37FE09C09701A501B20171
:1027A000680D791D82E197E00E94A610330C2D81FF
:1027B0003E818216930614F4239404C03FEFA31ABB
:1027C000B30A212C4F8158854F5F5F4F58874F8345
:1027D0009C2D8D2D4C155D0539F08B819C81481702
:1027E0005907B9F69F8188850F5F1F4F9F838887A0
:1027F000C2CF28960FB6F894DEBF0FBECDBFDF91D3
:10280000CF911F910F91FF90EF90DF90CF90BF90ED
:10281000AF909F908F907F906F905F904F903F9080
:102820002F9008951F920F920FB60F9211242F939D
:102830003F934F935F936F937F938F939F93AF9348
:10284000BF93EF93FF938091B900887F803609F49E
:102850009CC068F5883209F45BC090F4803109F4BB
:1028600054C038F4882309F4F6C0883009F44DC008
:10287000F6C0883109F44CC0803209F45DC0EFC065
:10288000803409F468C048F4803309F455C08833B3
:1028900009F0E5C080934F06D8C0803509F44FC0D9
:1028A000883509F45DC0883409F0D9C0D6C08839AC
:1028B00009F4C7C0A8F4883709F467C038F488362B
:1028C00009F463C0803709F460C0C9C0883809F4CE
:1028D000B8C0803909F45FC0803809F0C0C05BC05F
:1028E000803B09F486C038F4803A09F466C0883A1F
:1028F00009F47FC0B4C0803C09F4A7C0883C09F447
:10290000A4C0883B09F48AC0AAC080912C0610C0DC
:1029100090914E0680914D06981770F5E0914E0605
:1029200081E08E0F80934E06F0E0E35DF94F8081E9
:102930008093BB0085EC86C080934F068EC0E091EB
:102940004E0681E08E0F80934E068091BB00F0E032
:10295000E35DF94F808390914E0680914D066EC0E5
:10296000E0914E0681E08E0F80934E068091BB0071
:10297000F0E0E35DF94F80838091500681116DC0D6
:1029800081E080932B0684EA61C083E08093510646
:102990001092AE05CFCF8091AE05803208F051C0C5
:1029A000E091AE0581E08E0F8093AE058091BB0073
:1029B000F0E0E257FA4F8083BDCF85EC8093BC00F6
:1029C000109251068091AE05803230F4E091AE0550
:1029D000F0E0E257FA4F10826091AE0570E0E091AE
:1029E0008C05F0918D058EE895E009951092AE0565
:1029F00036C084E08093510610928B0510928A05B0
:102A0000E0918805F0918905099580918A058111E9
:102A100005C081E080938A0510926805E0918B05DE
:102A200081E08E0F80938B05F0E0E859FA4F8081AA
:102A30008093BB0090918B0580918A05981708F4CC
:102A400079CF85E88093BC000AC085EC8093BC00F8
:102A50001092510604C010924F060E945811FF9127
:102A6000EF91BF91AF919F918F917F916F915F9106
:102A70004F913F912F910F900FBE0F901F9018957F
:102A80002091740690914C07213208F04AC0809141
:102A900051068111FCCF32E03093510631E0309382
:102AA00050063FEF30934F0610924E0620934D068E
:102AB000A4E5B6E04DE256E0FA013E2F341B321792
:102AC00018F43D913193F9CF10922C0620912C06E9
:102AD000990F922B90932C0690912B06913061F4D4
:102AE00010922B0690912C069093BB009091BC0005
:102AF00093FDF8CF95EC01C095EE9093BC009091BA
:102B000051069230E1F390914F069F3F79F080910A
:102B10004F06803241F080914F06803331F084E0DF
:102B200005C081E003C082E001C083E0109253063B
:102B300010927406109252060895909133079923CB
:102B400039F08EBD00000DB407FEFDCF8EB508959F
:102B500028E030E040E8E0913607F09137075081F7
:102B600090913D07909595239083E0913407F091E3
:102B7000350790913C07542F582319F05081952B1D
:102B800003C05081909595239083E0913607F09192
:102B90003707508190913D07952B908346952150A2
:102BA0003109C9F60895CF92DF92EF92FF920F9309
:102BB0001F93CF93DF936C017A018B01C0E0D0E0CB
:102BC000CE15DF0589F0D8016D918D01D601ED910B
:102BD000FC910190F081E02DC6010995892B11F43B
:102BE0007E0102C02196ECCFC701DF91CF911F91EA
:102BF0000F91FF90EF90DF90CF9008953F924F920A
:102C00005F926F927F928F929F92AF92BF92CF927C
:102C1000DF92EF92FF920F931F93CF93DF9300D039
:102C200000D0CDB7DEB720910405253021F02F3F2D
:102C300009F02CC204C0E8E2FEE0349076C025E042
:102C400020930405E8E2FEE0E491EF3F09F41EC2A0
:102C5000E13011F1E23009F443C0E11165C014BC68
:102C600015BC24B5226024BD25B5216025BDE9E150
:102C7000FEE0E491F0E0EE0FFF1FE65FF14F2591DB
:102C800034913093550720935407EBEFFDE0E49126
:102C9000E0935307312C4BC01092800010928100BA
:102CA0002091810028602093810020918100216083
:102CB00020938100E9E1FEE0E491F0E0EE0FFF1FD8
:102CC000E65FF14F259134913093520720935107DD
:102CD000EBEFFDE0E491E09350073324339427C0F9
:102CE0001092B0001092B1002091B00022602093A9
:102CF000B0002091B10021602093B100E9E1FEE035
:102D0000E491F0E0EE0FFF1FE65FF14F2591349163
:102D100030934F0720934E07EBEFFDE0E491E093F3
:102D20004D07B2E03B2E03C03E2E37FCAFC12A0157
:102D30003B018C0161E085E00E94C2124801A12C98
:102D4000B12C832D8D7F09F0BBC060E072E18AE772
:102D500090E0A50194010E94312129833A834B839D
:102D60005C8369017A0121E0C21AD108E108F10807
:102D70008FEFC816D104E104F10409F008F44CC047
:102D800060E472E48FE090E0A50194010E9431219B
:102D900069017A01E1E0CE1AD108E108F108F2E018
:102DA0003F1220C02FEFC216D104E104F10409F054
:102DB00008F46AC160E970ED83E090E0A501940138
:102DC0000E94312169017A0181E0C81AD108E10825
:102DD000F108EFEFCE16D104E104F10409F0D0F5CB
:102DE00083E067C0FFEFCF16D104E104F104B1F036
:102DF000A8F068E478EE81E090E0A50194010E94DB
:102E0000312169017A0181E0C81AD108E108F1088D
:102E1000332009F4DFC02FC181E001C082E03320FC
:102E2000A1F047C089819A81AB81BC812AE0B59528
:102E3000A795979587952A95D1F76C017D0121E09B
:102E4000C21AD108E108F10885E095B5987F892B71
:102E500085BD6FC068E478EE81E090E0A501940143
:102E60000E94312169017A01F1E0CF1AD108E1080D
:102E7000F1082FEFC216D104E104F10409F008F4BF
:102E8000A7C064E274EF80E090E0A50194010E9485
:102E9000312169017A01E1E0CE1AD108E108F10897
:102EA000FFEFCF16D104E104F10411F008F0B4C033
:102EB00085E09091B100987F892B8093B10039C053
:102EC00060E072E18AE790E0A50194010E9431215F
:102ED00069017A0181E0C81AD108E108F108C1143A
:102EE000D104E1E0EE06F10488F068E478EE81E0D8
:102EF00090E0A50194010E94312169017A01F1E07D
:102F0000CF1AD108E108F10893E001C091E021E077
:102F100032120FC080918100887F892B80938100BD
:102F2000411451046104710449F42FEF3FEFA901EA
:102F30002DC0411451046104710471F0D801AA0F2D
:102F4000BB1FA30192010E94502128EE33E040E014
:102F500050E00E94632103C02FEF3FEFA90181E001
:102F60003816A1F0E2E03E1619F131108FC0C7BC4F
:102F700020935E0730935F0740936007509361078B
:102F800080916E00826080936E0080C0D092890034
:102F9000C092880020935A0730935B0740935C07E8
:102FA00050935D0780916F00826080936F006EC0C8
:102FB000C092B300209356073093570740935807A9
:102FC00050935907809170008260809370005EC0BA
:102FD00084E06FCFFFEFCF16D104E104F104D1F00C
:102FE000C8F062E17AE780E090E0A50194010E94D8
:102FF000312169017A0181E0C81AD108E108F1089C
:10300000EFEFCE16D104E104F10411F008F00ACF7D
:1030100084E01BCF83E019CF62E17AE780E090E0A3
:10302000A50194010E94312169017A0181E0C81A49
:10303000D108E108F108EFEFCE16D104E104F10464
:10304000C1F0B8F089819A81AB81BC814AE0B59525
:10305000A795979587954A95D1F76C017D0121E059
:10306000C21AD108E108F108332009F4EDCE87E057
:1030700020CF86E0D4CEFFEFCF16D104E104F104D7
:1030800009F050F684E0CBCE82E013CF0F900F9082
:103090000F900F90DF91CF911F910F91FF90EF90C4
:1030A000DF90CF90BF90AF909F908F907F906F9068
:1030B0005F904F903F90089580E094E0E4E0F1E06D
:1030C000DF019C011D9221503040E1F70895CF931C
:1030D000C82F80912E078F3F59F1E0913807F0916A
:1030E0003907808190913E07982B9083E0913A07B1
:1030F000F0913B07208190913F0790959223908318
:10310000E0913807F0913907208190913E07909522
:10311000922390838C2F0E949D15E0913807F091A7
:103120003907908180913E07892B8083CF91089544
:1031300080912C0791E09093520680934C07109257
:1031400053061092740660E080E497E00E94E0115C
:103150006C2F80E497E00E94E011CF910C94401511
:10316000EF92FF920F931F93CF93DF9381E20E9420
:10317000671880E00E9467188FE70E94671882E254
:103180000E94671880E00E94671887E00E94671815
:1031900080912E078F3F79F1E0913807F091390740
:1031A000908180913E07892B8083E0913A07F091CE
:1031B0003B07908180913F07892B8083E0913807FE
:1031C000F0913907908180913E0780958923808313
:1031D000C4E0D1E089910E949D1585E0C430D807F4
:1031E000C9F7E0913807F0913907908180913E0747
:1031F000892B808330C0F090B8008CE08093B800B9
:10320000C4E0D1E0EE24E39480912C07E0925206D2
:1032100080934C07109253061092740660E480E489
:1032200097E00E94E01100E010E0FE01E00FF11FC6
:10323000608180E497E00E94E0110F5F1F4F003132
:10324000110599F70E944015609685E0C430D807B3
:10325000D9F6F092B800DF91CF911F910F91FF90B6
:10326000EF900895BF92CF92DF92EF92FF920F936B
:103270001F93CF93DF936C01E12CF12CB12C00E074
:1032800010E0C0E0D0E0CE0187709927892B11F0C3
:10329000BB0C0BC0FE0183E0F595E7958A95E1F73D
:1032A000EE0DFF1DEC0DFD1DB490B7FE08C021E032
:1032B00030E0A801BE0182E197E00E94A6102196AD
:1032C000C034D10501F70F5F1F4F88E0E80EF11CF5
:1032D00000381105B1F6DF91CF911F910F91FF904A
:1032E000EF90DF90CF90BF9008958F929F92AF9212
:1032F000BF920F931F93CF93DF93CDB7DEB7A19704
:103300000FB6F894DEBF0FBECDBF19A2423008F44D
:103310004AE08E010F5D1F4F842E912CA12CB12C01
:10332000A50194010E946321E62FB901CA01015051
:103330001109EA3014F4E05D01C0E95CD801EC93B6
:10334000232B242B252B61F70115110571F0F801B2
:1033500001900020E9F73197AF01401B510BB801F4
:1033600082E197E00E94D31502C080E090E0A19630
:103370000FB6F894DEBF0FBECDBFDF91CF911F9186
:103380000F91BF90AF909F908F9008951F920F92D2
:103390000FB60F9211242F933F934F935F936F9328
:1033A0007F938F939F93AF93BF93EF93FF938091FE
:1033B000560790915707A0915807B0915907892B4C
:1033C0008A2B8B2B59F180914D07E0914E07F0919C
:1033D0004F079081892780838091560790915707E6
:1033E000A0915807B0915907181619061A061B061E
:1033F0000CF03DC08091560790915707A091580757
:10340000B09159070197A109B1098093560790938C
:103410005707A0935807B093590729C08091040516
:10342000E8E2FEE0E4919FEF90930405E130B9F00B
:1034300098F0E230C9F4909170009D7F90937000F5
:1034400091E09093B0009091B100987F9460909338
:10345000B1001092B30008C010926E0005C09091A8
:103460006F009D7F90936F0060E00E949212FF9129
:10347000EF91BF91AF919F918F917F916F915F91EC
:103480004F913F912F910F900FBE0F901F90189565
:10349000789484B5826084BD84B5816084BD85B52F
:1034A000826085BD85B5816085BD80916E0081603B
:1034B00080936E00109281008091810082608093E1
:1034C00081008091810081608093810080918000E3
:1034D0008160809380008091B10084608093B1000E
:1034E0008091B00081608093B00080917A00846008
:1034F00080937A0080917A00826080937A00809134
:103500007A00816080937A0080917A00806880934D
:103510007A001092C100E0918506F091860682E063
:103520008083E0918106F09182061082E09183060B
:10353000F091840680E1808310928D06E0918906E7
:10354000F0918A0686E08083E0918706F0918806F4
:10355000808180618083E0918706F0918806808178
:1035600088608083E0918706F0918806808180687A
:103570008083E0918706F091880680818F7D80832B
:1035800080E480937C0080917A00806480937A004C
:1035900080917A0086FDFCCF60917800809179005F
:1035A00070E0782B072E000C880B990B61157105C4
:1035B0008105910511F00E94282182E080932D075A
:1035C0008CE380932C0780912E078F3F09F4BDC0B8
:1035D00061E0809130070E94C21261E08091320761
:1035E0000E94C21280913207082E000C990BFC0138
:1035F000EC5EF14FE491F0E0EE0FFF1FE65FF14F5C
:10360000259134913093390720933807FC01EA5013
:10361000F24FE491E0933E0780913007082E000CB2
:10362000990BFC01EC5EF14FE491F0E0EE0FFF1F0F
:10363000E65FF14F2591349130933B0720933A0791
:10364000FC01EA50F24FE491E0933F078091330789
:1036500081113EC061E080912E070E94C21261E09C
:1036600080912F070E94C21280912F07082E000C14
:10367000990BFC01EC5EF14FE491F0E0EE0FFF1FBF
:10368000E65FF14F25913491309337072093360749
:10369000FC01EA50F24FE491E0933D0780912E0740
:1036A000082E000C990BFC01EC5EF14FE491F0E068
:1036B000EE0FFF1FE65FF14F2591349130933507F0
:1036C00020933407FC01EA50F24FE491E0933C0769
:1036D00080913307882309F45FC0CFB7F8948091B5
:1036E000BA05811127C0EEE1FEE08491E0E0FEE042
:1036F0009491E82FF0E0EE0FFF1FEA57FA4FA591E3
:10370000B491EC91E92321F461E08AE00E949212E5
:1037100061E08AE00E94C2128CB580618CBD8CB5DC
:1037200080648CBD61E08DE00E94C21261E08BE09C
:103730000E94C2128091BA058F5F8093BA05CFBFF5
:1037400080E58CBD81E08DBD27C01092B905109237
:10375000B80510925306109274061092510681E03B
:103760008093500610922B0661E082E10E94921233
:1037700061E083E10E9492128091B9008E7F809374
:10378000B9008091B9008D7F8093B90088E480935F
:10379000B80085E48093BC008091310787FD1EC08E
:1037A00061E00E94C21261E0809131070E94921292
:1037B00061E070E080E090E00E94FE1260E08091A5
:1037C00031070E9492126AE070E080E090E00E946F
:1037D000FE1261E0809131070E9492128EEA0E94EF
:1037E000671885ED0E94671880E80E94671888EACC
:1037F0000E9467188FE30E94671883ED0E94671884
:1038000080E00E94671880E40E9467188DE80E949B
:10381000671884E10E94671880E20E94671880E0C0
:103820000E94671881EA0E94671888EC0E94671856
:103830008AED0E94671882E10E94671881E80E9461
:1038400067188FEC0E94671889ED0E94671881EF56
:103850000E9467188BED0E94671880E40E94671829
:1038600084EA0E94671886EA0E9467188EE20E9426
:1038700067188FEA0E94671863E082E197E00E9470
:10388000AF0B62E082E00E94C21262E083E00E941D
:10389000C21262E084E00E94C2120E945C1880E9B9
:1038A00099E00E9432190E94B0181092260610E08A
:1038B000C0E0D0E001E082E00E9469126C01CC59C6
:1038C000DF4FC03A2FE0D20781F410270E945C1826
:1038D000112319F080E995E002C080E999E00E9487
:1038E00032190E94B018C0E0D0E064E670E080E0D9
:1038F00090E00E94FE12CD28F1F61092250610925B
:10390000240689E18093C4051092C7051092CC0566
:103910001092D1051092D6051092DB050E945C181A
:1039200040E156E080E06AE091E074E1CEE1D3E06E
:10393000FA0120E030E0811109C0D901AC51BA4F41
:103940001496CC9314979C96DC9308C0DF0198974B
:10395000833010F47C9301C06C939083DF01549703
:103960009C932F5F3F4F31962430310521F78F5FB5
:103970004C5F5F4F8530E1F61092E5051092E4054B
:103980008AE090E09093E7058093E6050E94B018E6
:1039900081E080932A0680912A06811101C0FFCF21
:1039A00083E00E9469128093290684E00E946912D4
:1039B0008093280682E00E946912809327068091F6
:1039C0002906811104C08091030181114EC38091A9
:1039D0002806811105C080910301873308F449C38B
:1039E0008091270681111DC08091C705811119C0E2
:1039F00081E08093C7058091030190E00496909345
:103A0000C9058093C80585E790E09093CB05809326
:103A1000CA0540E550E060E070E080ED97E00E946C
:103A2000FE1580912606882311F140E550E060E004
:103A300070E084E690E00E94FE15109226068091C8
:103A4000240690912506823391052CF0C29790931D
:103A500025068093240680910301EE24E394F12C43
:103A600008E010E02DE030E049EE5DE00BC0809111
:103A70000301EE24E394F12C07E010E029E030E0AC
:103A800041EE5DE069E770E090E00E94821325E07E
:103A900034E090E0E4EEF5E080E040E060E070E0EB
:103AA00050E0DF01A60FB71F5896AC91A13061F42A
:103AB000521708F4252F851708F4852F431708F4AB
:103AC000342F941708F4942F5F5F6C5F7F4F64313D
:103AD000710539F74F5F3196443001F72093C205E5
:103AE0009093C1058093C3053093C5059F5F931BD9
:103AF0009093C0054EE0949F902D11249093BF05A4
:103B0000349F302D11243093E305390F3093E205B3
:103B10008F5F821B8093BE059BE0899F802D1124BF
:103B20008093BD05299F202D11242093BC05280FCB
:103B30002093BB0540E1842E46E0942EA12CB12CAD
:103B40006401C0E0D0E08091E4059091E505F601C4
:103B500031916F016091E6057091E7053F01F5E154
:103B60006F1A7108F3012081222309F453C0830FD7
:103B7000911D8C0F9D1F6A0D7B1D223071F4EE2468
:103B8000E394F12C08E010E02DE030E04EEC5DE035
:103B90000E948213F30110823DC0F601B997208183
:103BA0002A3089F420910101211103C046EB5DE028
:103BB00002C042EC5DE0EE24E394F12C08E010E05A
:103BC0002CE030E025C0243189F42091010121113D
:103BD00003C040EA5DE002C04BEA5DE0EE24E394FE
:103BE000F12C08E010E02BE030E012C02E3191F40F
:103BF00020910101211103C040E95DE002C048E9C4
:103C00005DE0EE24E394F12C08E010E028E030E0E1
:103C10000E9482132E96C833D10509F094CFF4E0A8
:103C20008F0E911C2BE0A20EB11C47E3A416B10429
:103C300009F086CF8091C705882309F10091CA0554
:103C40001091CB05A801415051095093CB054093E9
:103C5000CA056091C8057091C90505501109EE2487
:103C6000E394F12C9B0182E197E00E940F0F809179
:103C7000CB058095881F8827881F8093C705809172
:103C8000C6058F5F8093C605823040F09091000199
:103C900081E08927809300011092C605C091C50577
:103CA000D5E011E00BE08091C1058C1708F46AC0E3
:103CB0008090C405912CA12CB12C52E08516910462
:103CC000A104B10464F00E942321A50194012150B4
:103CD0003109410951090E943121611151C0ECECB7
:103CE000F5E080E090E02081211144C0D89FF001F0
:103CF000D99FF00D1124E453FA4F10834C2F50E05C
:103D00002091E4053091E5056EE0C69F200D311D40
:103D10001124295F3F4F328321832091C3053091C5
:103D2000C205231768F1622F70E0FB01EE0FFF1F41
:103D3000EE0FFF1FEC51FA4FE40FF51FE08DE1305D
:103D4000B9F4D89FF001D99FF00D1124E453FA4F34
:103D50006F5F7F4F069FC001079F900D1124209138
:103D6000E6053091E705820F931F9483838308C093
:103D70002150D7CF019635968430910509F0B3CF05
:103D8000CF5F91CFCCECD5E06E01F6018081882326
:103D9000E1F0638174816F5F7F4F7483638320914F
:103DA000000181819281EE24E394F12C07E010E080
:103DB000222329F023E030E04EED5DE004C023E053
:103DC00030E04BED5DE00E948213F5E0CF0ED11C98
:103DD00020EEC21625E0D206C1F681E090E0909375
:103DE00025078093240790932307809322078093CD
:103DF000260710921F0710921E071092210710929B
:103E0000200746E050E061E675E082E197E00E941D
:103E1000D3158090240690902506092C000CAA0842
:103E2000BB08B7FE14C0E0911207F0911307019090
:103E3000F081E02D6DE282E197E009956627772712
:103E4000CB01681979098A099B094AE003C04AE055
:103E5000C501B4010E9475190E94B0180E945C1837
:103E60008091C705882309F447C02091C805309187
:103E7000C9050091E4051091E5058091CA0590916E
:103E8000CB0504974091E6055091E705841B950BFF
:103E90006BE070E00E94A220FB016530710560F5C7
:103EA000C901801B910B6EE070E00E94A22064307B
:103EB000710510F5EE0FFF1FEE0FFF1FEC51FA4FCB
:103EC000E60FF71F808D8130B9F482E0808F109269
:103ED000C70524818091240690912506820F911DAB
:103EE000909325068093240640E550E060E070E062
:103EF00084EF91E00E94FE1500E010E0DD24D394F1
:103F00008881882309F452C04091C8055091C905A1
:103F100029813A818B819C814217530754F1B90161
:103F20006D5F7F4F6417750724F14091CA0550916A
:103F3000CB05BC016F5F7F4F64177507D4F46D5FCD
:103F40007F4F64177507ACF01092C70518828091F7
:103F50002406909125068896909325068093240642
:103F600040E550E060E070E080EA9FE00E94FE15CE
:103F70001DC08138910554F085E0809FF001819F3C
:103F8000F00D1124E453FA4F108217C083379105C6
:103F90006CF08091030190E0821793073CF408963F
:103FA000821793071CF01882D09226060F5F1F4FCE
:103FB00025960430110509F0A3CF209102018091CC
:103FC000E4059091E505222359F02091E305AC0129
:103FD000420F511D14161506A4F01092020107C0DD
:103FE0002091E205FC01E20FF11DFF9714F4019608
:103FF00009C02091E1052F5F2093E10521E0209386
:10400000020101979093E5058093E4058091E00516
:104010008F5F982F977019F08093E00510C0109271
:10402000E0059091010181E089278093010144E638
:1040300050E060E070E088EC90E00E94FE15809116
:10404000E105823059F41092E1058091E6059091E6
:10405000E70501969093E7058093E6056AE070E036
:1040600080E090E00E94FE1296CC81508093030184
:10407000AECC8F5F80930301B3CCE5E7F6E013820B
:10408000128248EE53E060E070E04483558366831B
:1040900077838DE195E09183808385EC90E095872F
:1040A000848784EC90E09787868780EC90E0918B02
:1040B000808B81EC90E0938B828B82EC90E0958BEF
:1040C000848B86EC90E0978B868B118E128E138EEC
:1040D000148EE2E1F7E01382128220E830E03583AB
:1040E000248380E490E097838683318720879387B9
:1040F0008287158A158614861786168681E0848B3A
:104100002FEF3FEF338B228B318B208B868B178ADF
:10411000118E108E8DE295E0918380838FEF848FD6
:1041200080A3868F858F84E0878FE0E4F7E0138299
:104130001282448355836683778385E595E0918376
:104140008083089597FB072E16F4009407D077FD1F
:1041500009D00E94B62007FC05D03EF490958195C9
:104160009F4F0895709561957F4F0895AA1BBB1BC3
:1041700051E107C0AA1FBB1FA617B70710F0A61B67
:10418000B70B881F991F5A95A9F780959095BC0188
:10419000CD010895EE0FFF1F0590F491E02D0994D5
:1041A00081E090E0F8940C9494218F929F92AF92CA
:1041B000BF92CF92DF92EF92FF92CF93DF93EC0109
:1041C000688179818A819B816115710581059105DD
:1041D00021F464E279ED8BE597E02DE133EF41E0E6
:1041E00050E00E94312149015A019B01AC01A7EA2C
:1041F000B1E40E9450216B017C01ACEEB4EFA5014B
:1042000094010E945E21DC01CB018C0D9D1DAE1D31
:10421000BF1DB7FF03C00197A109B04888839983E8
:10422000AA83BB83BC01CD019F77DF91CF91FF9023
:10423000EF90DF90CF90BF90AF909F908F900895B8
:104240000E94D520089585E095E00E94D52008952C
:104250006093050570930605809307059093080504
:104260000895052E97FB1EF400940E94482157FDE7
:1042700007D00E94632107FC03D04EF40C94482120
:1042800050954095309521953F4F4F4F5F4F089582
:1042900090958095709561957F4F8F4F9F4F0895B2
:1042A0000E948521A59F900DB49F900DA49F800D25
:1042B000911D11240895B7FF0C9450210E945021A4
:1042C000821B930B0895A1E21A2EAA1BBB1BFD01B2
:1042D0000DC0AA1FBB1FEE1FFF1FA217B307E407E5
:1042E000F50720F0A21BB30BE40BF50B661F771F3D
:1042F000881F991F1A9469F760957095809590951D
:104300009B01AC01BD01CF010895A29FB001B39FF5
:10431000C001A39F700D811D1124911DB29F700DCE
:0C432000811D1124911D0895F894FFCF19
:10432C000101011C00000000000000000000000062
:10433C000000000000000000000000000000000071
:10434C000000000000000000000000000000000061
:10435C000000000000000000000000000000000051
:10436C0000000080808000000000000000000000C1
:10437C0000000000008080C0C000000000000000B1
:10438C000000000000000000000000000000000021
:10439C000000000000000000000000000000000011
:1043AC000000000000000000000000000000000001
:1043BC00000000000000000080C0E0F0F8FCF8E015
:1043CC0000000000000000000000000000000000E1
:1043DC0000808080808000808000000000808080D1
:1043EC00808000FFFFFF00000000808080800000C4
:1043FC008080000080FFFF808000808000808080B3
:10440C00800080800000000000808000008C8E8482
:10441C00000080F8F8F880000000000000000000A8
:10442C0000000000F0F0F0F0F0F0F0F0F0F0F0F040
:10443C00E0E0C08000E0FCFEFFFFFF7FFFFFFFFF1E
:10444C00FF0000000000000000000000000000FE63
:10445C00FFC70101010183FFFF00007CFEC70101C2
:10446C00010183FFFFFF0038FEC78301010183C7F1
:10447C00FFFF000001FFFF010100FFFF0701010129
:10448C0000007FFF80000000FFFF7F0000FFFFFFA8
:10449C00000001FFFFFF0100000000000000000011
:1044AC0000000000030F3F7F7FFFFFFFFFFFFFFFB8
:1044BC00E7C7C78F8F9FBFFFFFC3C0F0FFFFFFFF92
:1044CC00FFFCFCFCFCFCFCFCFCF8F8F0F0E0C00091
:1044DC0001030303030301030300000000010303B2
:1044EC0003030101030100000001030303030101A5
:1044FC00030300000003030000000303000000009E
:10450C000000000103030303030100000001030189
:10451C000000000303010000000000000000000088
:10452C000000000000000080C0E0F0F9FFFFFFFF7A
:10453C00FF3F1F0F87C7F7FFFF1F1F3DFCF8F8F861
:10454C00F87C7DFFFFFFFFFFFFFFFF7F3F0F0700A2
:10455C0030300000000000000000000000000000EF
:10456C000000000000000000FEFEFC000000000047
:10457C00000000000000000000000000000000002F
:10458C0000E0C0000000000000000000000030301F
:10459C00000000000000000000000000000000000F
:1045AC000000000000C0FEFFFFFFFFFFFFFFFFFF4A
:1045BC007F7F3F1F0F071F7FFFFFF8F8FFFFFFFFF5
:1045CC00FFFEF8E000000001000000000000000009
:1045DC00FEFE000000FCFEFC0C06060EFCF80000C3
:1045EC00F0F81C0E0606060CFFFFFF0000FEFE0096
:1045FC00000000FCFEFC00183C7E66E6CE84000049
:10460C0006FFFF0606FCFEFC0C0606060000FEFE7E
:10461C000000C0F8FC4E4646464E7C7840183C766E
:10462C00E6CECC800000000000000000000000007E
:10463C00000000000000000001070F1F1F3F3F3F5C
:10464C003F1F0F03000000000000000000000000EE
:10465C000F0F0000000F0F0F000000000F0F0000E5
:10466C0003070E0C18180C060F0F0F0000010F0E8D
:10467C000C180C0F070100040E0C180C0F0700008F
:10468C00000F0F00000F0F0F0000000000000F0FB5
:10469C0000000007070C0C181C0C060600040E0C7E
:1046AC00180C0F07000000000000000000000000C4
:1046BC0000000000000000000000000000000000EE
:1046CC0000000000000000000000000000000000DE
:1046DC0000000000000000000000000000000000CE
:1046EC0000000000000000000000000000000000BE
:1046FC0000000000000000000000000000000000AE
:10470C00000000000000000000000000000000009D
:10471C00000000000000000000000000000000008D
:10472C0000000000FF01000000000103070F1F3F05
:10473C007F0080C0E0F0F8FCFE000000009907D379
:10474C0015620740075407E00700000000DA0DD39C
:10475C0015100BAD10A6107E109A108E10AE107D99
:10476C0010AF0BAE0B5A08B409A40F860F0F0FB085
:10477C000E00000000E011B011A81199118B118AE4
:08478C001153434F5245200078
:107800000C94343C0C94513C0C94513C0C94513CE1
:107810000C94513C0C94513C0C94513C0C94513CB4
:107820000C94513C0C94513C0C94513C0C94513CA4
:107830000C94513C0C94513C0C94513C0C94513C94
:107840000C94513C0C94513C0C94513C0C94513C84
:107850000C94513C0C94513C0C94513C0C94513C74
:107860000C94513C0C94513C11241FBECFEFD8E036
:10787000DEBFCDBF11E0A0E0B1E0ECE9FFE702C060
:1078800005900D92A230B107D9F712E0A2E0B1E065
:1078900001C01D92AD30B107E1F70E942D3D0C945F
:1078A000CC3F0C94003C982F959595959595959582
:1078B000905D8F708A307CF0282F295A8091C0000B
:1078C00085FFFCCF9093C6008091C00085FFFCCF60
:1078D0002093C6000895282F205DF0CF982F809127
:1078E000C00085FFFCCF9093C6000895EF92FF92F1
:1078F0000F931F93EE24FF2487018091C00087FD22
:1079000017C00894E11CF11C011D111D81E4E8164B
:1079100082E4F8068FE0080780E0180770F3E09132
:107920000401F091050109958091C00087FFE9CF1E
:107930008091C6001F910F91FF90EF9008950E94D3
:10794000763C982F8091C00085FFFCCF9093C600B5
:1079500091362CF490330CF09053892F089597555D
:10796000892F08951F930E949F3C182F0E949F3CCF
:107970001295107F810F1F9108951F93182F882350
:1079800021F00E94763C1150E1F71F9108951F935A
:10799000182F0E94763C803249F0809103018F5F5E
:1079A000809303018530C1F01F9108958091C0003C
:1079B00085FFFCCF84E18093C6008091C00085FFE5
:1079C000FCCF1093C6008091C00085FFFCCF80E102
:1079D0008093C6001F910895E0910401F091050184
:1079E00009951F9108950E94763C803241F0809164
:1079F00003018F5F80930301853081F008958091AA
:107A0000C00085FFFCCF84E18093C6008091C00058
:107A100085FFFCCF80E18093C6000895E0910401CA
:107A2000F09105010995089540E951E08823A1F0FE
:107A30002D9A28EE33E0FA013197F1F721503040CA
:107A4000D1F72D9828EE33E0FA013197F1F7215064
:107A50003040D1F7815061F708953F924F925F9285
:107A60006F927F928F929F92AF92BF92CF92DF924E
:107A7000EF92FF920F931F93CF93DF93000080E16B
:107A80008093C4001092C50088E18093C10086E015
:107A90008093C2005098589A259A81E00E94143D24
:107AA00024E1F22E9EE1E92E85E9D82E0FE0C02ECA
:107AB00010E1B12EAA24A394B1E49B2EA6E58A2E50
:107AC000F2E57F2EE0E26E2E79E4572E63E5462E36
:107AD00050E5352E0E94763C8033B1F18133B9F107
:107AE000803409F46FC0813409F476C0823409F41B
:107AF00085C0853409F488C0803531F1823521F1A3
:107B0000813511F1853509F485C0863509F48DC0BC
:107B1000843609F496C0843709F403C1853709F423
:107B200072C1863709F466C0809103018F5F80932C
:107B30000301853079F6E0910401F0910501099582
:107B40000E94763C803351F60E94F33CC3CF0E94E2
:107B5000763C803249F78091C00085FFFCCFF092DF
:107B6000C6008091C00085FFFCCF9092C600809136
:107B7000C00085FFFCCF8092C6008091C00085FFC9
:107B8000FCCF7092C6008091C00085FFFCCF609250
:107B9000C6008091C00085FFFCCF5092C600809146
:107BA000C00085FFFCCF4092C6008091C00085FFD9
:107BB000FCCF3092C6008091C00085FFFCCFB09210
:107BC000C60088CF0E94763C863808F4BDCF0E945C
:107BD000763C0E94F33C7ECF0E94763C803809F4CC
:107BE0009CC0813809F40BC1823809F43CC1883942
:107BF00009F48FC080E00E94C73C6CCF84E10E94F2
:107C0000BD3C0E94F33C66CF85E00E94BD3C0E94D3
:107C1000F33C60CF0E94763C809306010E94763C44
:107C2000809307010E94F33C55CF0E94763C80333D
:107C300009F41DC183E00E94BD3C80E00E94C73C66
:107C400049CF0E94763C809309020E94763C809343
:107C5000080280910C028E7F80930C020E94763C79
:107C6000853409F415C18091080290910902892B8D
:107C700089F000E010E00E94763CF801E85FFE4FDA
:107C800080830F5F1F4F80910802909109020817AF
:107C9000190788F30E94763C803209F045CF809125
:107CA0000C0280FF01C16091060170910701660F0F
:107CB000771F7093070160930601A0910802B091AD
:107CC00009021097C9F0E8E0F1E09B01AD014E0F09
:107CD0005F1FF999FECF32BD21BD819180BDFA9A17
:107CE000F99A2F5F3F4FE417F50799F76A0F7B1F4B
:107CF00070930701609306018091C00085FFFCCF5F
:107D0000F092C6008091C00085FFFCCFB092C60003
:107D1000E1CE83E00E94C73CDDCE82E00E94C73CFA
:107D2000D9CE0E94763C809309020E94763C8093D3
:107D300008028091060190910701880F991F909386
:107D40000701809306010E94763C853409F4A6C0A1
:107D500080910C028E7F80930C020E94763C8032D0
:107D600009F0B8CE8091C00085FFFCCFF092C6002C
:107D7000609108027091090261157105B9F140E046
:107D800050E080910C02A82FA170B82FB27011C0E2
:107D9000BB2309F45CC0E0910601F0910701319624
:107DA000F0930701E09306014F5F5F4F46175707B7
:107DB000E8F4AA2369F3F999FECF209106013091E6
:107DC000070132BD21BDF89A90B58091C00085FFB2
:107DD000FCCF9093C6002F5F3F4F30930701209355
:107DE00006014F5F5F4F4617570718F38091C00099
:107DF00085FDE5CE8091C00085FFF8CFE0CE81E023
:107E00000E94C73C67CE0E94763C803209F08CCE3F
:107E10008091C00085FFFCCFF092C6008091C00029
:107E200085FFFCCFE092C6008091C00085FFFCCFAB
:107E3000D092C6008091C00085FFFCCFC092C600E2
:107E40008091C00085FFFCCFB092C60043CEE09188
:107E50000601F091070194918091C00085FFFCCF4D
:107E60009093C6009CCF80E10E94C73C33CE0E9415
:107E7000763C0E94763C182F0E94763C112309F430
:107E800083C0113009F484C08FE00E94C73C22CE29
:107E900080910C02816080930C02E5CE80910C02EF
:107EA000816080930C0259CF809107018823880F4D
:107EB000880B8A2180930B02809106019091070123
:107EC000880F991F90930701809306018091080203
:107ED00080FF09C080910802909109020196909359
:107EE000090280930802F894F999FECF1127E091D6
:107EF0000601F0910701C8E0D1E08091080290915D
:107F00000902103091F40091570001700130D9F34B
:107F100003E000935700E89500915700017001308D
:107F2000D9F301E100935700E89509901990009169
:107F3000570001700130D9F301E000935700E89534
:107F40001395103498F011270091570001700130FB
:107F5000D9F305E000935700E895009157000170B0
:107F60000130D9F301E100935700E895329602976A
:107F700009F0C7CF103011F00296E5CF112480919F
:107F8000C00085FFB9CEBCCE8EE10E94C73CA2CD19
:0C7F900085E90E94C73C9ECDF894FFCF0D
:027F9C00800063
:040000030000780081
:00000001FF