:100000000C9417070C943F070C943F070C948A2616
:100010000C948A260C948A260C943F070C94AE1CF0
:100020000C943F070C943F070C943F070C943F0738
:100030000C943F070C943F070C943F070C943F0728
:100040000C94B41D0C943F070C94231C0C94FD1BC2
:100050000C943F070C943F070C943F070C943F0708
:100060000C9479270C943F0700000000000000006A
:100070000000000000000000000000000000000080
:100080000000000000000000000000000000000070
:100090000000000000000000000000000000000060
:1000A00000000000000000000E0F87C3E11821F0DF
:1000B00011104822111422081020101211142400CB
:1000C00010201012111224000C2010121112240002
:1000D00002201013E11124780120101221112408AC
:1000E000012010121110A408111048221110A208AA
:1000F0000E0F87C2091061F0000000000000000030
:1001000000000000000000000000000000000000EF
:1001100000000000000000000000000000000000DF
:1001200000000000000000000000000000000000CF
:1001300000000000000000000000000000000000BF
:100140000000000001078000000F000003084000CD
:10015000007FE0000508400000FFF00001084000BB
:1001600000E670000108400000FFF00001084000B8
:100170000039C0000108400000666000010840002E
:100180000030C000010840000000000007C78000E8
:10019000000000000000000000000000000000005F
:1001A000000000000000000000000000000000004F
:1001B0000000000007878000001080000848400011
:1001C0000009000000484000001FC0000048400037
:1001D0000037600000884000007FF0000088400089
:1001E000005FD000010840000050500002084000AD
:1001F000000D800004084000000000000FC78000D0
:1002000000000000000000000000000000000000EE
:1002100000000000000000000000000000000000DE
:1002200000000000000000000000000007878000C0
:1002300000000000084840000003000000484000A3
:100240000007800000484000000FC0000788400001
:10025000001B600000484000001FE0000048400014
:100260000004800000484000000B400008484000A7
:100270000014A000078780000000000000000000BC
:10028000000000000000000000000000000000006E
:10029000000000000000000000000000000000005E
:1002A000000000000000000000000000000000004E
:1002B000000000000187800000010000018840006C
:1002C0000002000002884000000400000288400094
:1002D0000002000004884000000100000488400083
:1002E0000002000008884000000400000FC8400021
:1002F000000000000088400000000000008780002F
:1003000000000000000000000000000000000000ED
:1003100000000000000000000000000000000000DD
:1003200000000000000000000000000000000000CD
:1003300000000000000004000000000007C7840067
:100340000002000004084400000700000408440004
:100350000007000004084400007FF0000788440004
:1003600000FFF8000048440000FFF801C0484400C6
:1003700000FFF8000048400000FFF8000848440073
:10038000000000000787840000000000000000005B
:10039000000000000000000000000000000000005D
:1003A000000000000000000000000000000000004D
:1003B000000000000000000000000000000000003D
:1003C000000000000000000000000000000000002D
:1003D000000000000000000000000000000000001D
:1003E0001E0000000620002011000000092000204F
:1003F000112CC38E087BC5F811312410042026204F
:100400001E21E6180221E420102101860122242069
:1004100010210082092224201020E71C0619E4186C
:1004200000000000000000000000000000000000CC
:1004300000000000000000000000000000000000BC
:1004400000000000000000000000000000000000AC
:10045000000000000000000000000000000000009C
:10046000000000000000000000000000000000008C
:10047000000000000000000000000000000000007C
:10048000000000000000000000000000000000006C
:10049000000000000000000000000000000000005C
:1004A000000000000000000000000000000000004C
:1004B000003E00000000700000C20000000080004C
:1004C0000102000200010400010000048001090093
:1004D0000200DB8F38E3DE000200644449110800AB
:1004E000021E44444112080002044848321210001F
:1004F000020488880A221000018488888A22100059
:1005000000788707F1C20E00000000000004000020
:1005100000000000000400000000000000000000D7
:1005200000000000000000000000000000000000CB
:1005300000000000000000000000000000000000BB
:10054000000000000000000066360CE1F0FCFC3CFE
:10055000673318E1F8FCFE7E673319B18CC0C660C2
:1005600067B3B9B18CFCFE7C66F1B3198CFCFC1E40
:100570006671B3F98CC0CC066670E3F9F8FCC67EF0
:100580006630E60DF0FCC33C0000000000000000F7
:10059000000000000000000000000000000000005B
:1005A000000000000000000000000000000000004B
:1005B000000000000000000000000000000000003B
:1005C000000000000000000000000000000000002B
:1005D000000000000000000000000000000000001B
:1005E000000000000000000000000000000000000B
:1005F0000003C007800F0000001FF83FF07FE000FD
:10060000003FFC7FF8FFF00000399C7338E6700073
:10061000003FFC7FF8FFF000000E701CE039C000C6
:100620000019983330666000000C30186030C0004C
:1006300000000000000000000000000000000000BA
:100640000000000000000000000180030006000020
:100650000003C007800F00000007E00FC01F8000EC
:10066000000DB01B6036C000000FF01FE03FC0005F
:1006700000024004800900000005A00B4016800025
:10068000000A5014A02940000000000000000000F3
:10069000000000000000000000000000000000005A
:1006A000000000000000000000000000000000004A
:1006B0000000000000000000000000000002000038
:1006C000000000000004000000000000000800001E
:1006D0000000000000040000000000000002000014
:1006E00000000000000400000000000000080000FE
:1006F00000000000000000000000000000000000FA
:1007000000000100000000000000010000000000E7
:1007100000000100000000000000010000000000D7
:1007200000000000000000000000000000000000C9
:1007300000000000000000000000000000000000B9
:1007400000000000000000000000000000000000A9
:100750000000000000000000000001000000000098
:100760000000038000000000000003800000000083
:1007700000003FF80000000000007FFC00000000C7
:1007800000007FFC0000000000007FFC0000000073
:1007900000007FFC000000000000000000000000DE
:1007A0000000000000000000000000000000000049
:1007B0000000000000000000000000000000000039
:1007C0000000000000000000000000000000000029
:1007D0000000000000000000000000000000000019
:1007E0001E0000000620002011000000092000204B
:1007F000112CC38E087BC5F811312410042026204B
:100800001E21E6180221E420102101860122242065
:1008100010210082092224201020E71C0619E41868
:1008200000000000000000000000000000000000C8
:1008300000000000000000000000000000000000B8
:1008400000000000000000000000000000000000A8
:100850000000000000000000000000000000000098
:100860000000000000000000183C7EDBFF5A8142BF
:10087000183C7EDBFF245AA5211246FEF77FFEFFBF
:10088000882202210240FE376FFF7F6828D80F07B9
:10089000FEFFFE67FFF19836CC030F07FEFFFE67F1
:1008A000FFF39C66630C0882288808208C0188204E
:1008B0009489122A22A788A88F080E070FEFFFFF3E
:1008C000FF0882288808208C018820948912000063
:1008D0000000003E5B4F5B3E3E6B4F6B3E1C3E7C20
:1008E0003E1C183C7E3C181C577D571C1C5E7F5ECE
:1008F0001C00183C1800FFE7C3E7FF00182418008D
:10090000FFE7DBE7FF30483A060E26297929264023
:100910007F050507407F05253F5A3CE73C5A7F3E4F
:100920001C1C08081C1C3E7F14227F22145F5F00E1
:100930005F5F06097F017F006689956A606060607D
:100940006094A2FFA29408047E040810207E201068
:1009500008082A1C08081C2A08081E101010100C71
:100960001E0C1E0C30383E3830060E3E0E060000BF
:1009700000000000005F00000007000700147F1463
:100980007F14242A7F2A12231308646236495620D2
:10099000500008070300001C2241000041221C00F7
:1009A0002A1C7F1C2A08083E0808008070300008B6
:1009B00008080808000060600020100804023E518A
:1009C00049453E00427F400072494949462141491C
:1009D0004D331814127F1027454545393C4A494983
:1009E0003141211109073649494936464949291EED
:1009F00000001400000040340000000814224114DC
:100A000014141414004122140802015909063E412D
:100A10005D594E7C1211127C7F494949363E414155
:100A200041227F4141413E7F494949417F090909AE
:100A3000013E414151737F0808087F00417F41001A
:100A40002040413F017F081422417F404040407FC9
:100A5000021C027F7F0408107F3E4141413E7F0916
:100A60000909063E4151215E7F0919294626494957
:100A7000493203017F01033F4040403F1F20402097
:100A80001F3F4038403F6314081463030478040395
:100A90006159494D43007F41414102040810200043
:100AA0004141417F040201020440404040400003B4
:100AB00007080020545478407F2844443838444480
:100AC0004428384444287F385454541800087E0978
:100AD0000218A4A49C787F0804047800447D400098
:100AE0002040403D007F1028440000417F40007CB2
:100AF000047804787C080404783844444438FC18AA
:100B000024241818242418FC7C080404084854548D
:100B1000542404043F44243C4040207C1C204020BA
:100B20001C3C4030403C44281028444C9090907C21
:100B30004464544C44000836410000007700000033
:100B40004136080002010204023C2623263C1EA175
:100B5000A161123A4040207A3854545559215555D4
:100B60007941225454784221555478402054557983
:100B7000400C1E5272123955555559395454545916
:100B800039555454580000457C410002457D4200CF
:100B900001457C407D1211127DF0282528F07C54FF
:100BA0005545002054547C547C0A097F49324949F8
:100BB00049323A4444443A324A4848303A41412161
:100BC0007A3A42402078009DA0A07D3D4242423DBD
:100BD0003D4040403D3C24FF2424487E4943662B51
:100BE0002FFC2F2BFF0929F620C0887E09032054F3
:100BF0005479410000447D413048484A32384040F1
:100C0000227A007A0A0A727D0D19317D2629292F50
:100C100028262929292630484D4020380808080868
:100C200008080808382F10C8ACBA2F102834FA006A
:100C3000007B000008142A142222142A14085500EC
:100C4000550055AA55AA55AAFF55FF55FF000000AB
:100C5000FF00101010FF00141414FF001010FF000C
:100C6000FF1010F010F0141414FC001414F700FF1F
:100C70000000FF00FF1414F404FC141417101F10DC
:100C8000101F101F1414141F00101010F00000008B
:100C9000001F101010101F10101010F01000000096
:100CA000FF101010101010101010FF10000000FFA7
:100CB000140000FF00FF00001F10170000FC04F4E8
:100CC00014141710171414F404F40000FF00F714A0
:100CD000141414141414F700F71414141714101027
:100CE0001F101F141414F4141010F010F000001F43
:100CF000101F0000001F14000000FC140000F01082
:100D0000F01010FF10FF141414FF141010101F0027
:100D1000000000F010FFFFFFFFFFF0F0F0F0F0FF29
:100D2000FFFF0000000000FFFF0F0F0F0F0F384400
:100D3000443844FC4A4A4A347E02020606027E02D5
:100D40007E0263554941633844443C04407E201E82
:100D50002006027E020299A5E7A5991C2A492A1CB1
:100D60004C7201724C304A4D4D303048784830BC9E
:100D7000625A463D3E494949007E0101017E2A2AC8
:100D80002A2A2A44445F444440514A444040444A49
:100D900051400000FF0103E080FF000008086B6B7A
:100DA000083612362436060F090F06000018180000
:100DB00000001010003040FF0101001F01011E0063
:100DC000191D1712003C3C3C3C00000000000000D4
:100DD0000000240027002A00000000080002010093
:100DE00000030407000000000000000002000000F3
:100DF00000250028002B0000000000230026002909
:100E000000040404040404040402020202020203B3
:100E100003030303030102040810204080010204BD
:100E2000081020010204081020003529ED281124A3
:100E30001FBECFEFD8E0DEBFCDBF15E0A0E0B1E030
:100E4000E0E4F6E502C005900D92AE3CB107D9F79B
:100E500028E0AEECB5E001C01D92AC37B207E1F777
:100E600017E0C6E1D7E004C02197FE010E94082BDD
:100E7000C531D107C9F70E94F7280C94132B0C94A5
:100E800000000F931F93DC0155968C91559782308B
:100E900009F4E2C0833009F4D3C0813009F47FC083
:100EA00077FD7AC014968D919C91159768177907F4
:100EB0000CF072C057FDE7C016968D919C91179764
:100EC000FA01E20FF31F8E179F071CF49C01241BED
:100ED000350B121613060CF05FC0922F842F8695E7
:100EE00086958695F0E88F9F600D711D1124DB01BA
:100EF000AC5FBE4F4770E1F088E0841B682F70E064
:100F0000FB01E75CFA4F4081281708F4C6C00130A6
:100F1000110509F4F0C008F4F1C00230110529F4FC
:100F20002C9142274C939817B8F1981BA058BF4FAB
:100F30009830F8F00230110509F4E8C021E00130E2
:100F4000110509F020E02195FD01892F2083E0584B
:100F5000FF4F88508830D0F788EF890F86958695A7
:100F6000869520E8829FA00DB11D1124A058BF4F87
:100F70009770992389F0E92FF0E0EF5CFA4F8081B8
:100F80000130110509F4BEC008F49AC00230110501
:100F900019F49C9189278C931F910F9108951496B1
:100FA000ED91FC911597E41BF50BE21BF30B77FD1C
:100FB000F3CF16968D919C9117976817790764F770
:100FC000F7FD66C014968D919C911597AF01420F65
:100FD000531F841795071CF49C012E1B3F0B121600
:100FE0001306D4F6CB0177FD84C09595879595952A
:100FF0008795959587959695982F882797958795A6
:10100000E80FF91FEC5FFE4F6770772781E090E0F3
:1010100001C0880F6A95EAF7482F0130110509F4DD
:101020005FC008F452C00230110509F0B5CF2E0F91
:101030003F1F808184278193E217F307D1F7ACCF5C
:1010400016968D919C911797FC01E61BF70BBF013B
:1010500061507109FA01ABCF14968D919C9115974F
:10106000FC01E61BF70BBF01615071091696ED916B
:10107000FC911797CF01841B950BAC01421B530BBE
:1010800077FF10CF89CF240F351F40E050E014CFF9
:101090002E0F3F1FE0E0F0E095CF621B71092FEFAC
:1010A00030E002C0359527956A95E2F7422301307A
:1010B000110509F118F10230110509F431CF6CCF97
:1010C00080959C9189238C9367CF982F90952E0FB4
:1010D0003F1F808189238193E217F307D1F75CCF0B
:1010E0002E0F3F1F8081842B8193E217F307D1F7E6
:1010F00053CF07967ACF2C91422B14CF40952C9149
:10110000422310CF9C91892B8C9346CFFD01292F30
:10111000808180958083E058FF4F28502830C0F7A9
:1011200088EF890F869586958695E0E88E9FA00DBD
:10113000B11D1124A058BF4F977009F42DCFE92F8E
:10114000F0E0EF5CFA4F808124CF0F931F93DC0116
:1011500055968C915597823009F4E4C0833009F498
:10116000D8C0813009F44CC057FD47C016968D9108
:101170009C911797481759070CF03FC077FDE8C0BE
:1011800014968D919C911597FB01E20FF31F8E171A
:101190009F071CF49C01261B370B121613066CF5D7
:1011A000CA0157FD0BC1959587959595879595959E
:1011B00087959695982F882797958795FB01E80F37
:1011C000F91FEC5FFE4F4770552781E090E001C0AA
:1011D000880F4A95EAF7482F0130110509F4E5C058
:1011E00008F4D8C00230110541F42E0F3F1F808152
:1011F00084278193E217F307D1F71F910F91089588
:1012000014968D919C911597FC01E41BF50BAF0191
:1012100041505109FB0157FDF0CF14968D919C91DF
:101220001597481759074CF7F7FD97C016968D91FB
:101230009C911797BF01620F731F861797071CF4C5
:101240009C012E1B3F0B12161306BCF6922F8E2FFD
:1012500086958695869570E8879F400D511D1124CF
:10126000DA01AC5FBE4FE770E9F088E08E1B682FB3
:1012700070E0FB01E75CFA4F4081281708F472C068
:101280000130110509F4A0C008F49AC0023011051C
:1012900031F42C9142274C93981708F4AECF981B49
:1012A000A058BF4F9830F8F00230110509F493C0F0
:1012B00021E00130110509F020E02195FD01892F81
:1012C0002083E058FF4F88508830D0F788EF890F8F
:1012D000869586958695E0E88E9FA00DB11D112418
:1012E000A058BF4F9770992309F487CFE92FF0E0FA
:1012F000EF5CFA4F80810130110509F468C008F4F1
:1013000044C00230110509F078CF9C9189278C9355
:1013100074CF1696ED91FC911797E61BF70BE21B25
:10132000F30B79CF1496ED91FC911597E61BF70B13
:1013300016968D919C911797BC01641B750BAB01A0
:1013400041505109BF01621B730B57FF0FCF55CF9F
:10135000260F371F60E070E013CF2E0F3F1FE0E035
:10136000F0E064CF621B71092FEF30E002C03595C9
:1013700027956A95E2F742230130110529F100F122
:101380000230110509F485CF38CF80959C918923CF
:101390008C9333CF982F90952E0F3F1F80818923F8
:1013A0008193E217F307D1F728CF2E0F3F1F8081DB
:1013B000842B8193E217F307D1F71FCF0796F3CE63
:1013C00040952C91422367CF2C91422B64CF9C9166
:1013D000892B8C9312CFFD01292F808180958083EA
:1013E000E058FF4F28502830C0F788EF890F8695C6
:1013F00086958695F0E88F9FA00DB11D1124A05809
:10140000BF4F977009F4F9CEE92FF0E0EF5CFA4F87
:1014100080817BCF8CBD9DBD08952F923F924F92CE
:101420005F926F927F928F929F92AF92BF92CF9274
:10143000DF92EF92FF920F931F93CF93DF9300D031
:1014400000D0CDB7DEB79A8389836B011701209F47
:101450007001219FF00C309FF00C1124270187E0D0
:10146000480E511C57FC45C15594479455944794D8
:1014700055944794141415040CF0BEC08901015012
:1014800011095A01440E551E1C821B82712C99C0F1
:10149000FFEFCF1ADF0A712C8B819C8101968E158C
:1014A0009F0509F4A1C0872C912C67FCD5C0660C60
:1014B000801691060CF4B7C08FEFC81AD80A712CA9
:1014C0008B819C8102968E159F0509F48DC0872C17
:1014D000912C67FCCCC0660C801691060CF4A5C05C
:1014E0009FEFC91AD90A712C8B819C8103968E15A6
:1014F0009F0509F479C0872C912C67FCC3C0660C4A
:10150000801691060CF493C0EFEFCE1ADE0A712C10
:101510008B819C8104968E159F0509F465C0872CEC
:10152000912C67FCBAC0660C801691060CF481C041
:10153000FFEFCF1ADF0A712C8B819C8105968E15E7
:101540009F0509F451C0872C912C67FCB1C0660C33
:10155000801691060CF46FC08FEFC81AD80A712C50
:101560008B819C8106968E159F0509F43DC0872CC2
:10157000912C67FCA8C0660C801691060CF45DC027
:101580009FEFC91AD90A712C8B819C810796E816A6
:10159000F90651F1872C912C67FCA0C080169106AA
:1015A0000CF44DC0EFEFCE1ADE0A712C8B819C81BA
:1015B00008969C838B839FEFA91AB90AA414B504DB
:1015C000D9F0F5016490872C912C67FC3AC0660C29
:1015D000801691060CF05CCF73948B819C810196F0
:1015E0008E159F0509F05FCFFC82EB829FEFA91A51
:1015F000B90AA414B50429F70F900F900F900F901B
:10160000DF91CF911F910F91FF90EF90DF90CF90DE
:10161000BF90AF909F908F907F906F905F904F9012
:101620003F902F90089573944BCF73945DCF739434
:101630006FCF739481CF739493CF7394A5CF73942A
:10164000B5CF69817A81680D791D9101A60180E984
:1016500097E00E94E124BBCF69817A81680D791DF2
:101660009101A60180E997E00E94E12420CF6981E1
:101670007A81680D791D9101A60180E997E00E94A9
:10168000E12429CF69817A81680D791D9101A60134
:1016900080E997E00E94E12432CF69817A81680D68
:1016A000791D9101A60180E997E00E94E1243BCFDA
:1016B00069817A81680D791D9101A60180E997E021
:1016C0000E94E12444CF69817A81680D791D9101DE
:1016D000A60180E997E00E94E1244DCF69817A81DB
:1016E000680D791D9101A60180E997E00E94E1242F
:1016F00055CF27019EE0490E511CB6CECF92DF9206
:10170000EF92FF920F931F93CF93DF937C01262FCD
:10171000972F8A0180914D06882391F0C62FD72FED
:101720006E01C40ED51ECC15DD0571F06991D7018F
:10173000ED91FC910190F081E02DC7010995F3CF67
:10174000642F822F0E94A728C801DF91CF911F919B
:101750000F91FF90EF90DF90CF900895CF93DF939C
:101760001F92CDB7DEB7698320914D062223D1F0B9
:1017700020916F06203240F021E030E0FC013383FD
:10178000228380E090E015C080914E06E82FF0E0C3
:10179000E15BF94F998190838F5F80934E06809330
:1017A0006F0605C061E0CE0101960E94A72881E086
:1017B00090E00F90DF91CF910895CF92DF92EF925A
:1017C000FF920F931F93CF93DF9377FD09C07901A9
:1017D0006A018B01EC010E94021E081719074CF0E8
:1017E000DF91CF911F910F91FF90EF90DF90CF90FD
:1017F0000895D7FCF5CFCE010E94FE1DC816D9066C
:101800007CF7CE010E94061E823009F47BC0833033
:1018100031F0813009F482C0C601980106C08E8182
:101820009F81801B910B0197960141E0E416F10422
:1018300009F448C030F142E0E416F10489F6FC01F5
:1018400097FD78C0F595E795F595E795F595E795BA
:10185000F695FE2FEE27F795E7952E0F3F1FF9011E
:10186000EC5FFE4F8770992721E030E0A90102C0AC
:10187000440F551F8A95E2F7CA019081892780831A
:10188000AFCFFC0197FD54C0F595E795F595E79529
:10189000F595E795F695FE2FEE27F795E7952E0F30
:1018A0003F1FF901EC5FFE4F9C012770332781E059
:1018B00090E001C0880F2A95EAF7809590818923EE
:1018C00080838ECFFC0197FD31C0F595E795F595A6
:1018D000E795F595E795F695FE2FEE27F795E795B1
:1018E0002E0F3F1FF901EC5FFE4F9C01277033273D
:1018F00081E090E001C0880F2A95EAF79081892B5A
:1019000080836ECF2C813D81201B310B215031090A
:101910008E819F818C199D09019787CF2C813D81F4
:101920002C193D0921503109C8017FCF3796CDCF01
:101930003796AACF379686CF0F93FC0130E080E030
:1019400092E1AAE7B0E0481759076A077B0740F41D
:10195000B695A795979587953F5F3630A1F737E005
:1019600091E09327222311F020E501C020E7892F81
:1019700086950C70082B022B0083917091830F9138
:1019800008951F93CF93DF93EC01162F40E450E0AE
:1019900060E870E00E9469268DE095E09983888375
:1019A0008FEF8C8F88A38E8F8D8F1F8FDF91CF91BC
:1019B0001F9108958EBD00000DB407FEFDCF8EB5BA
:1019C00008950E94A61D00913E0610913F062091A9
:1019D000400630914106DC01CB01801B910BA20B2C
:1019E000B30B86399105A105B10508F04CC585E713
:1019F000482E512C80913D06811101C0FFCF83E01C
:101A00000E94551C80933C0684E00E94551C8093E4
:101A10003B0682E00E94551C80933A0680913C066A
:101A2000811137C380910301882309F4D1C4815007
:101A30008093030190913B06911105C0873318F400
:101A40008F5F8093030190913A06911105C09091A8
:101A50003506992309F4DBC4C82FD0E08091340601
:101A6000882309F419C340E550E060E070E084E6A3
:101A700090E00E94D41E109234068091320690911C
:101A80003306823391052CF0C297909333068093EE
:101A90003206EE24E394F12C08E010E02DE030E073
:101AA00041EC58E069E770E0CE010E940D0A24E0A5
:101AB00090E055E080910A06813009F476C3809168
:101AC0000E06813009F478C380E03091120631307F
:101AD00009F47AC330911606313009F470C430919C
:101AE0001A06313009F47FC330910B06313009F406
:101AF00084C330910F06313009F488C33091130646
:101B0000313009F492C330911706313009F49DC386
:101B100030911B06313009F4A8C330910C063130E6
:101B200009F4B1C330911006313009F4B8C33091D3
:101B30001406313009F4C4C330911806313009F469
:101B4000D1C330911C06313009F4DEC330910D064B
:101B5000313009F4E8C330911106313009F4EFC394
:101B600030911506313009F4FBC33091190631303C
:101B700009F408C430911D06313009F415C490935E
:101B8000D4058093D6055093D5052093D8059F5F43
:101B9000921B9093D305990F492F440F440F440F84
:101BA000491B4093D205220F322F330F330F330FCF
:101BB000321B232F3093F105240F2093F0058F5F04
:101BC000851B8093D105982F990F292F220F220F63
:101BD000920F890F8093D005952F990F292F220FEF
:101BE000220F290F922F950F9093CF05980F909366
:101BF000CE05CEE18C2EC6E09C2E612C712C6401AA
:101C0000C0E0D0E02091F2053091F305F60181911A
:101C10006F016091F4057091F5055F01F5E1AF1A70
:101C2000B108F50190819923B1F0280F311DF90118
:101C3000EC0FFD1F660D771D923009F4E4C1D6014B
:101C400099978C918A3009F4BFC1843109F4CDC1D0
:101C50008E3109F4E7C12E96C833D10599F6F4E028
:101C60008F0E911C2BE0620E711C37E3631671041A
:101C700031F680913506811176C28091D9058F5F4A
:101C80008093D905823040F09091000181E089274E
:101C9000809300011092D905C091D8058091D40598
:101CA0008C1708F470C0D1E01BE006C0CF5F8091B4
:101CB000D4058C1708F467C06091D70570E080E008
:101CC00090E00E943E24613089F78091DA058823F4
:101CD00009F4BBC38091DF05882309F4B9C380915F
:101CE000E405882309F4B7C38091E9058111DECFAB
:101CF00043E050E0BA01660F771F660F771FFB01C4
:101D0000E40FF51FE652FA4FD0832C2F30E080917C
:101D1000F2059091F305AEE0CA9F800D911D11244C
:101D2000079692838183A091D605B091D50501C015
:101D3000A150AB1708F4BACF8A2F90E0FC01EE0F48
:101D4000FF1FEE0FFF1FEE50FA4FE20FF31FE08D63
:101D5000E13071F7460F571FFA01E652FA4F01962C
:101D6000189F9001199F300D11248091F4059091D6
:101D7000F505820F931F94838383CF5F8091D405F1
:101D80008C1708F099CF8091DA058823E9F06091EB
:101D9000DD057091DE056F5F7F4F7093DE05609308
:101DA000DD0580910001EE24E394F12C07E010E0C2
:101DB00023E030E0811109C343EB58E08091DB055B
:101DC0009091DC050E940D0A8091DF058823E9F0DF
:101DD0006091E2057091E3056F5F7F4F7093E305BB
:101DE0006093E20580910001EE24E394F12C07E07A
:101DF00010E023E030E0811101C343EB58E0809113
:101E0000E0059091E1050E940D0A8091E405882388
:101E1000E9F06091E7057091E8056F5F7F4F70937F
:101E2000E8056093E70580910001EE24E394F12C2E
:101E300007E010E023E030E08111E3C243EB58E01B
:101E40008091E5059091E6050E940D0A8091E905D3
:101E50008823E9F06091EC057091ED056F5F7F4F8D
:101E60007093ED056093EC0580910001EE24E394FE
:101E7000F12C07E010E023E030E08111C5C243EB14
:101E800058E08091EA059091EB050E940D0A0E94AE
:101E900084220E9480220E94792263EB75E080E90F
:101EA00097E00E94FB1B609132067091330680E937
:101EB00097E00E946F220E94AA210E945A218091DD
:101EC0003506811104C1A090F205B090F305CAED6A
:101ED000D5E0C12CD12C11E088818823B9F1809103
:101EE00036069091370629813A81821793070CF4C0
:101EF000AAC0A9014D5F5F4F481759070CF4A3C052
:101F00008B819C814091380650913906BC016F5FEE
:101F10007F4F6417750734F46D5F7F4F6417750743
:101F20000CF09CC2813891050CF093C08337910569
:101F30006CF08091030190E0821793073CF40896BF
:101F4000821793071CF0188210933406EFEFCE1A15
:101F5000DE0A2596F4E0CF16D10409F0BDCF8091BA
:101F60000201882309F483C08091F1059501280FAF
:101F7000311DC901181619060CF061C231E0A31A0F
:101F8000B108B092F305A092F205C091EF058091DF
:101F9000EE058F5F982F977009F488C08093EE0547
:101FA000C23059F41092EF058091F4059091F50537
:101FB00001969093F5058093F4056AE070E080E067
:101FC00090E00E946C1D16CD80910101811138C0F6
:101FD0004EE858E0EE24E394F12C08E010E02CE009
:101FE00030E0CF010E940D0A36CE809101018111AF
:101FF0004AC048E758E0EE24E394F12C08E010E0F2
:102000002BE030E0EECFEE24E394F12C08E010E07A
:102010002DE030E046EA58E0CF010E940D0AF501BC
:10202000108219CE80910101811130C048E658E03C
:10203000EE24E394F12C08E010E028E030E0D1CF6A
:102040004AE958E0C7CF8B819C81813891050CF417
:102050006DCFF601EE0FFF1FEE0FFF1FEC0DFD1D04
:10206000E652FA4F10828091020181117DCF80915A
:10207000F005F501E80FF11DFF970CF0AFC1FFEF80
:10208000AF1ABF0A7ECF43E858E0B5CF40E758E02B
:10209000CFCF80910301CECCEE24E394F12C07E066
:1020A00010E029E030E049EB58E0FCCC1092EE055E
:1020B0009091010181E089278093010144E650E07D
:1020C00060E070E088EC90E00E94D41E69CFE0915F
:1020D0003606F0913706A090F205B090F305809196
:1020E00038069091390604972091F4053091F50552
:1020F000821B930B6BE070E00E94E02A9B0165302D
:10210000710508F0E4CECF018A199B096EE070E0FA
:102110000E94E02A6430710508F0D9CE220F331FE7
:10212000220F331F2E503A4FF901E60FF71F808D13
:10213000813009F0CCCE82E0808F10923506248168
:102140008091320690913306820F911D9093330651
:102150008093320640E550E060E070E084EF91E06B
:102160000E94D41EB4CE0091380610913906A80101
:102170004150510950933906409338066091360614
:102180007091370605501109EE24E394F12C9B0160
:1021900080E997E00E94FC19809139068095881F9C
:1021A0008827881F8093350668CD20E050E0809115
:1021B0000E06813009F088CC511151E020E03091B9
:1021C0001206313009F086CC533008F052E080918D
:1021D0001606813009F4F3C020E082E030911A063F
:1021E000313009F081CC553008F054E020E084E033
:1021F00030910B06313009F07CCC211121E091E0C7
:1022000050E030910F06313009F078CC511151E097
:10221000811101C081E0211121E091116FCC91E089
:1022200030911306313009F06ECC533008F052E093
:10223000823008F482E0211121E0911164CC91E018
:1022400030911706313009F063CC543008F053E078
:10225000833008F483E0211121E0911159CC91E001
:1022600030911B06313009F058CC553008F054E05D
:10227000211121E0911101C091E084E030910C0620
:10228000313009F04FCC233008F022E0923008F4CE
:1022900092E050E030911006313009F048CC5111F5
:1022A00051E0811101C081E0233008F022E092303A
:1022B00008F03DCC92E030911406313009F03CCC6E
:1022C000533008F052E0823008F482E0233008F006
:1022D00022E0923008F030CC92E030911806313094
:1022E00009F02FCC543008F053E0833008F483E039
:1022F000233008F022E0923008F023CC92E03091B5
:102300001C06313009F022CC553008F054E023305F
:1023100008F022E0923008F492E084E030910D065B
:10232000313009F018CC243008F023E0933008F461
:1023300093E050E030911106313009F011CC511189
:1023400051E0811101C081E0243008F023E0933096
:1023500008F006CC93E030911506313009F005CC39
:10236000533008F052E0823008F482E0243008F064
:1023700023E0933008F0F9CB93E030911906313027
:1023800009F0F8CB543008F053E0833008F483E0D0
:10239000243008F023E0933008F0ECCB93E0309148
:1023A0001D06313009F0EBCB553008F054E02430F5
:1023B00008F023E0933008F493E084E0E0CB54305D
:1023C00008F053E020E083E08ACB46EB58E0F6CCFF
:1023D00090913B06992309F433CB35CBC091EF059F
:1023E000CF5FC093EF0581E08093020121E0A21A44
:1023F000B108B092F305A092F205C9CD46EB58E0C2
:10240000FECC46EB58E01CCD46EB58E03ACD91E0CF
:1024100090933506C82FD0E0CE01049690933706EE
:1024200080933606509239064092380640E550E0D7
:1024300060E070E080ED97E00E94D41E0FCB109218
:1024400002018FEFA81AB80A9CCD40E050E052CCB0
:1024500041E050E04FCC42E050E04CCC10923506C9
:1024600018828091320690913306889690933306B5
:102470008093320640E550E060E070E080EA9FE043
:102480000E94D41E63CD0E94B21D60933E067093DD
:102490003F06809340069093410661E070E080E043
:1024A00090E00E94AA2281E00E943423882309F44C
:1024B00042C061EA75E080918207909183070E9493
:1024C000FB1B0E94EF2261E070E080E090E00E9440
:1024D000AA2268EA75E080918207909183070E94A2
:1024E000FB1B0E94612461E070E080E090E00E94AC
:1024F000AA2268EA75E080918207909183070E9482
:10250000FB1B68EA75E080918207909183070E9427
:10251000FB1B0E94AD2268EA75E0809182079091D2
:1025200083070E94FB1B6AEA75E080918207909105
:1025300083070E94FB1B61E070E080E090E00E9456
:10254000AA2255CA2F923F924F925F926F927F922A
:102550008F929F92AF92BF92CF92DF92EF92FF92B3
:102560000F931F93CF93DF9300D01F92CDB7DEB7A9
:102570000E9428240E94AA2381E00E943423811112
:102580003DC20E94A6230E949C230E9469238823A7
:10259000D1F161EA75E080918207909183070E94F2
:1025A000FB1B0E94EF2268EA75E080918207909100
:1025B00083070E94FB1B68EA75E080918207909177
:1025C00083070E94FB1B68EA75E080918207909167
:1025D00083070E94FB1B0E94AD2268EA75E0809190
:1025E0008207909183070E94FB1B6AEA75E0809145
:1025F0008207909183070E94FB1B6AE070E080E0F5
:1026000090E00E94AA220E9432210E949722BC01DF
:10261000990F880B990B0E94811B82E08093AB0776
:102620008CE38093AA078091AC078F3F09F4F5C132
:1026300061E08091AE070E94301D61E08091B0079B
:102640000E94301D2091B007022E000C330BF901BF
:10265000EF5FF14F8491E82FF0E0EE0FFF1FE351A1
:10266000F24F859194919093B7078093B607F90143
:10267000EB5EF14F24912093BC072091AE07022E10
:10268000000C330BF901EF5FF14F8491E82FF0E07C
:10269000EE0FFF1FE351F24F859194919093B9078C
:1026A0008093B807F901EB5EF14F24912093BD07A9
:1026B0008091B107882309F4B3C10E94432700E049
:1026C00021E040E052E16AE770E0CE0101960E940D
:1026D0009C0C89819A810E940A0A8091AF0787FD2C
:1026E0001EC061E00E94301D61E08091AF070E9432
:1026F0007E1C61E070E080E090E00E946C1D60E074
:102700008091AF070E947E1C6AE070E080E090E05C
:102710000E946C1D61E08091AF070E947E1C8EEAD2
:102720000E94652185ED0E94652180E80E94652157
:1027300088EA0E9465218FE30E94652183ED0E9453
:10274000652180E00E94652180E40E9465218DE87A
:102750000E94652184E10E94652180E20E9465213A
:1027600080E00E94652181EA0E94652188EC0E9438
:1027700065218AED0E94652182E10E94652181E840
:102780000E9465218FEC0E94652189ED0E946521E0
:1027900081EF0E9465218BED0E94652180E40E94FB
:1027A000652184EA0E94652186EA0E9465218EE205
:1027B0000E9465218FEA0E94652163E080E997E02D
:1027C0000E949C1662E082E00E94301D62E083E07D
:1027D0000E94301D62E084E00E94301D0E945A2158
:1027E00088E694E00E942C220E94AA2110923406CE
:1027F00082E00E94551CFF24F394892B09F0F12CF0
:10280000E12C04E610E0DD24D39464E670E080E07F
:1028100090E00E946C1DF11024C082E00E94551CC3
:10282000FF24F394892B09F0F12C0C591F4F003A27
:102830008FE0180751F7ED240E945A21EE2009F489
:10284000DAC088E690E00E942C220E94AA2100E0D3
:1028500010E064E670E080E090E00E946C1DFF20D4
:10286000E1F2109233061092320689E18093D70587
:10287000109235061092DA051092DF051092E405E9
:102880001092E9050E945A21F6EF8F2EF5E09F2E57
:102890006EE176E0AAE02A2EA6E03A2EB7EFEB2E04
:1028A000B5E0FB2E4FE156E01BE0C12E16E0D12E25
:1028B00008EF15E080E2482E86E0582EACE0B6E046
:1028C00029EF35E091E2A92E96E0B92EE1E0EB8305
:1028D00080E090E077247394009709F448C0833037
:1028E00008F061C0F4E16F2EF4016082FB01708298
:1028F000F1017082F7016082FA017082F601708244
:10290000F8016082F20170827C92F9016082F50127
:102910007082FC01EE0FFF1FEE0FFF1FEE50FA4F0B
:10292000738EEB81E53009F441C00196FB81FF5FB6
:10293000FB83E4E08E0E911C6C5F7F4FF4E02F0E62
:10294000311CE4E0EE0EF11C4C5F5F4FF4E0CF0E63
:10295000D11C0C5F1F4FE4E04E0E511C14962C5FEF
:102960003F4FF4E0AF0EB11C009709F0B8CFFEE185
:10297000F093F605E3E06E2E60921E0670920A0652
:10298000F093F70560921F0670920B06F093F8051E
:102990006092200670920C06F093F9056092210671
:1029A00070920D06C2CFEAE06E2E9ECF1092F30514
:1029B0001092F2058AE090E09093F5058093F4057B
:1029C0000E94AA2181E080933D060F900F900F9006
:1029D000DF91CF911F910F91FF90EF90DF90CF90FB
:1029E000BF90AF909F908F907F906F905F904F902F
:1029F0003F902F90089588E694E025CF6AEB75E02C
:102A000080918207909183070E94FB1B6AE070E02F
:102A100080E090E00E94AA22B4CD0E948D225DCE7B
:102A200061E08091AC070E94301D61E08091AD07AC
:102A30000E94301D2091AD07022E000C330BF901CE
:102A4000EF5FF14F8491E82FF0E0EE0FFF1FE351AD
:102A5000F24F859194919093B5078093B407F90153
:102A6000EB5EF14F24912093BB072091AC07022E1F
:102A7000000C330BF901EF5FF14F8491E82FF0E088
:102A8000EE0FFF1FE351F24F859194919093B3079E
:102A90008093B207F901EB5EF14F24912093BA07BE
:102AA0008091B107882309F418CE07CECF92DF9228
:102AB000EF92FF920F931F93CF93DF936C017A01F4
:102AC0008B01C0E0D0E0CE15DF0589F0D8016D9113
:102AD0008D01D601ED91FC910190F081E02DC601B0
:102AE0000995892B11F47E0102C02196ECCFC70114
:102AF000DF91CF911F910F91FF90EF90DF90CF90DA
:102B00000895FC01918D828D981761F0828DDF010F
:102B1000A80FB11D5D968C91928D9F5F9F73928FD0
:102B200090E008958FEF9FEF0895FC01918D828DC5
:102B3000981731F0828DE80FF11D858D90E0089592
:102B40008FEF9FEF0895FC01918D228D892F90E0EA
:102B5000805C9F4F821B91098F73992708958EE99E
:102B600096E00E94A31521E0892B09F420E0822F32
:102B70000895FC01848DDF01A80FB11DA35ABF4F3A
:102B80002C91848D90E001968F739927848FA6896C
:102B9000B7892C93A089B1898C9180648C93938D93
:102BA000848D981306C00288F389E02D80818F7D83
:102BB00080830895EF92FF920F931F93CF93DF933B
:102BC000EC0181E0888F9B8D8C8D981305C0E8897E
:102BD000F989808185FD24C0F62E0B8D10E00F5FF2
:102BE0001F4F0F731127E02E8C8DE8120CC00FB60B
:102BF00007FCFACFE889F989808185FFF5CFCE01FE
:102C00000E94B915F1CF8B8DFE01E80FF11DE35A3B
:102C1000FF4FF0820B8FEA89FB898081806207C0B9
:102C2000EE89FF896083E889F989808180648083E7
:102C300081E090E0DF91CF911F910F91FF90EF9095
:102C40000895CF93DF93EC01888D8823C9F0EA893A
:102C5000FB89808185FD05C0A889B9898C9186FD95
:102C60000FC00FB607FCF5CF808185FFF2CFA88992
:102C7000B9898C9185FFEDCFCE010E94B915E7CFC0
:102C8000DF91CF91089580E090E0892B29F00E9498
:102C9000AF1581110C9400000895833081F028F461
:102CA000813099F08230A1F008958730A9F0883002
:102CB000B9F08430D1F4809180008F7D03C0809181
:102CC00080008F7780938000089584B58F7702C04D
:102CD00084B58F7D84BD08958091B0008F7703C047
:102CE0008091B0008F7D8093B00008953FB7F89435
:102CF0008091470690914806A0914906B0914A06F6
:102D000026B5A89B05C02F3F19F00196A11DB11D46
:102D10003FBFBA2FA92F982F8827820F911DA11D81
:102D2000B11DBC01CD0142E0660F771F881F991FBE
:102D30004A95D1F708950895FC016370658B8481ED
:102D4000958126813781613039F0633029F0918790
:102D500080873387228708953187208793878287EA
:102D600008952F923F924F925F926F927F928F922F
:102D70009F92AF92BF92CF92DF92EF92FF920F930A
:102D80001F93CF93DF93CDB7DEB76C970FB6F89450
:102D9000DEBF0FBECDBF9C8F8B8F5B011A011F83DF
:102DA0000E833701C982DC0158964D915C91599789
:102DB0004115510509F0E5C018968D919C91199720
:102DC000681779070CF0CAC11A968D919C911B97D0
:102DD000281639060CF0C2C18C2C912CFB0136E070
:102DE000C39EE00DF11D1124FB87EA871E161F0606
:102DF0000CF0B4C1C40133E0880F991F3A95E1F794
:102E00009D878C87820D931D181619060CF0A6C19C
:102E100057968C91811103C0203B08F02F5FAB8D3A
:102E2000BC8DED91FC9111970680F781E02DCD01CD
:102E30002A8F09952A8DB5E02B9F90011124F50169
:102E40003596FF87EE87BB82AA822501A9014A1920
:102E50005B09598B488BC10108969B8B8A8BE8894B
:102E6000F989E40DF51DE253F74F949198876101BC
:102E70003D822C82A885A0FF13C0AB8DBC8DED9147
:102E8000FC91B981B13031F40084F185E02D2E81BF
:102E90003F8116C00284F385E02DEE80FF801AC0CA
:102EA000EE81FF816E167F06F1F0AB8DBC8DED914A
:102EB000FC91B981B13051F40084F185E02D93018A
:102EC000A601B2018B8D9C8D09950DC00284F385FE
:102ED000E02D7301840194014C815D816A817B81C5
:102EE0008B8D9C8D0995E885E695E887FFEFCF1AD5
:102EF000DF0A2C813D81280D391D3D832C834A89B1
:102F00005B89C416D50609F0B5CF5FEF451A550A9F
:102F10008A819B81880D991D9B838A83AE85BF859D
:102F20004A165B0609F09BCFEE81FF816E167F0685
:102F300009F4F2C0EB8DFC8DA081B181F981F130F3
:102F400079F4B5016B5F7F4F1C96ED91FC911D9755
:102F5000830128E030E0A1018B8D9C8D0995DCC0B8
:102F60006A857B85681979091A96ED91FC911B9702
:102F700073010C851D859401A1018B8D9C8D099594
:102F8000CBC0FA0134969491329765917491291BC4
:102F9000CB01B7E02B9F800D911D1124FA012591E3
:102FA00034913B8B2A8BFC01459154915B834A837E
:102FB000FC013296C490319654915E8732961491FA
:102FC0003196D4908981823058F0612E012E000C08
:102FD0007708AD2D0D2C000CBB0BB987A88704C05A
:102FE00019861886612C712CAB8DBC8DED91FC91EE
:102FF00011970680F781E02DCD010995B9818B2EBF
:10300000912C689CC001699C900D789C900D1124B6
:10301000FC01EA0DFB1DFD87EC871C82712C612CE5
:10302000E12F110FFF0B95012E0F3F1F3B872A87C2
:10303000AC0CB11CA5014E0F5F1F5F8B4E8BC10105
:103040008D0D911DD7FC9A95998F888F4E856416AA
:1030500008F062C0862D90E048855985480F591FB9
:10306000489D9001499D300D589D300D1124D90186
:10307000A20DB31DB98BA88BAA84BB844C845D843C
:10308000DC80BA85DB1AE88DF98DE80FF91FFD8B1E
:10309000EC8B8D2D8A0D2E893F89A216B306B9F1CE
:1030A000877061F48A819B810196EA89FB89AA81F4
:1030B000BB81EA0FFB1F74909B838A8377FE20C03D
:1030C000AB8DBC8DED91FC91B981B13061F4008480
:1030D000F185E02D2E813F814C895D89B5018B8D75
:1030E0009C8D09950DC00284F385E02DEE80FF8054
:1030F0008401940148895989B2018B8D9C8D099571
:10310000770CEFEFAE1ABE0A480C591CC2CF3C81B7
:103110003C0D3C8363949ACFAB8DBC8DED91FC91BB
:1031200011970288F389E02DCD016C960FB6F894C3
:10313000DEBF0FBECDBFDF91CF911F910F91FF90EA
:10314000EF90DF90CF90BF90AF909F908F907F9047
:103150006F905F904F903F902F9009946C960FB6B0
:10316000F894DEBF0FBECDBFDF91CF911F910F91BD
:10317000FF90EF90DF90CF90BF90AF909F908F9097
:103180007F906F905F904F903F902F900895AF92F7
:10319000BF92CF92EF92FF920F931F93CF93DF9343
:1031A000EC01262F888D998D009709F040C06A3078
:1031B00059F41D861C862C898E859F8538E0239FB7
:1031C000800D911D112441C06D3009F4AAC08E8973
:1031D0008823C1F03C898C859D8546E0349F800D15
:1031E000911D112448855985481759075CF41D869F
:1031F0001C868E859F8548E0349F800D911D11248B
:103200009F878E87EA88FB88088919894E855F85A4
:103210006C857D85CC88CE010E94B1162C898C8569
:103220009D8536E0239F800D911D112442C06A3098
:1032300079F41D861C862C89FC013696E4918E85D6
:103240009F852E9F800D911D11249F878E8769C0B9
:103250006D3009F466C0FC0134963491631708F4AC
:1032600060C03196E491E61708F45BC0FC01329629
:10327000A590B490462F50E0431B510937E0349F8E
:10328000B001359F700D1124A60EB71EF5013296C0
:1032900034913196E491332311F0E1110DC0F50121
:1032A0003496E4912C898C859D85E29F800D911D3B
:1032B00011249D878C8735C0F501359644915E8930
:1032C000552311F16C89E32FF0E0E40FF11D47FD68
:1032D000FA956E9FD0016F9FB00D11244C855D85CE
:1032E0004A0F5B1FE885F985E417F5076CF41D8626
:1032F0001C86FC013696E4918E859F856E9F800D1D
:10330000911D11249F878E87EA88FB880889198977
:103310004E855F856C857D85CC88CE010E94B11677
:10332000BECF81E090E0DF91CF911F910F91FF9090
:10333000EF90CF90BF90AF9008956F927F928F9251
:103340009F92AF92BF92CF92DF92EF92FF920F9334
:103350001F93CF93DF93EC014B015A0169013801B0
:10336000E881F9810680F781E02D0995E881F981EE
:103370000684F785E02D87019601A501B401CE01F1
:103380000995E881F981A501460D571D4150510964
:103390000684F785E02D9601B401CE010995E881F8
:1033A000F9810484F585E02D9301A501B401CE01D6
:1033B0000995E881F981C80CD91CB60161507109E1
:1033C0000484F585E02D9301A501CE010995E881DE
:1033D000F9810288F389E02DCE01DF91CF911F9111
:1033E0000F91FF90EF90DF90CF90BF90AF909F90A4
:1033F0008F907F906F900994CF92DF92EF92FF921F
:103400000F931F93CF93DF9300D000D000D0CDB7A0
:10341000DEB76C01DC01ED91FC916217730789F452
:10342000041715072CF4942F852FA801092F182FA6
:10343000041B150B98012F5F3F4F008CF18DE02D81
:1034400012C04017510709F5261737072CF4962F9D
:10345000872FB901292F382F261B370B2F5F3F4F9E
:10346000028CF38DE02D8701C601099526960FB6D3
:10347000F894DEBF0FBECDBFDF91CF911F910F91AA
:10348000FF90EF90DF90CF9008950680F781E02DB8
:103490002D833E834B835C8369837A830995D601B0
:1034A000ED91FC910088F189E02D2D813E814B81C9
:1034B0005C8169817A81C6010995D601ED91FC9103
:1034C0000288F389E02DC60126960FB6F894DEBF78
:1034D0000FBECDBFDF91CF911F910F91FF90EF9065
:1034E000DF90CF900994EF92FF920F931F93DC012E
:1034F000ED91FC9111971A960D911C911B971896BE
:103500002D913C911997048CF58DE02D7B0140E0C5
:1035100050E060E070E009951F910F91FF90EF90EF
:1035200008954F925F926F927F928F929F92AF9287
:10353000BF92CF92DF92EF92FF920F931F93CF93A0
:10354000DF9300D0CDB7DEB76C015A0139014801D5
:10355000DC01ED91FC910680F781E02D69837A838F
:1035600009956981462E7A81572E640C751CD60107
:10357000ED91FC91461457046CF40484F585E02D1C
:1035800087019401A501B201C6010995BFEF4B1A4D
:103590005B0AEDCF0288F389E02DC6010F900F90F2
:1035A000DF91CF911F910F91FF90EF90DF90CF901F
:1035B000BF90AF909F908F907F906F905F904F9053
:1035C0000994AF92BF92CF92DF92EF92FF920F9346
:1035D0001F93CF93DF9300D000D0CDB7DEB75C014F
:1035E0006901DC01ED91FC910680F781E02D4B83B0
:1035F0005C8369837A830995D501ED91FC9169819A
:103600007A819B012C0D3D1D215031090088F189E3
:10361000E02D78014B815C818A01C5010995D501B6
:10362000ED91FC910288F389E02DC5010F900F9078
:103630000F900F90DF91CF911F910F91FF90EF901E
:10364000DF90CF90BF90AF900994AF92BF92CF928E
:10365000DF92EF92FF920F931F93CF93DF9300D0EF
:1036600000D0CDB7DEB75C016901DC01ED91FC91C2
:103670000680F781E02D4B835C8369837A8309950B
:10368000D501ED91FC914B815C81C40ED51EB1E05A
:10369000CB1AD1080088F189E02D78018601698173
:1036A0007A819B01C5010995D501ED91FC910288B4
:1036B000F389E02DC5010F900F900F900F90DF91CF
:1036C000CF911F910F91FF90EF90DF90CF90BF901F
:1036D000AF9009946115710579F0FB01019000200C
:1036E000E9F73197AF01461B570BDC01ED91FC91D7
:1036F0000280F381E02D099480E090E008950E941B
:103700000E2B611571058105910511F00C94742A39
:1037100008954F925F926F927F92EF92FF920F9374
:103720001F93CF93DF93CDB7DEB7A1970FB6F89471
:10373000DEBF0FBECDBF7C01FA01CB0119A2223042
:1037400008F42AE08E010F5D1F4F422E512C612C90
:10375000712CBF01A30192010E947D2AF901CA01C7
:10376000015011096A3014F4605D01C0695CD80130
:103770006C93232B242B252B61F7B801C7010E94E2
:103780006A1BA1960FB6F894DEBF0FBECDBFDF91C6
:10379000CF911F910F91FF90EF907F906F905F906E
:1037A0004F900895CF92DF92EF92FF920F931F9365
:1037B000CF93DF93EC016A017B01E881F9810190ED
:1037C000F081E02D6DE209958C0144275527BA015F
:1037D0004C195D096E097F092AE0CE010E94891B00
:1037E000800F911FDF91CF911F910F91FF90EF906C
:1037F000DF90CF9008950C946A1B1F920F920FB622
:103800000F9211242F933F934F935F936F937F9366
:103810008F939F93AF93BF93EF93FF938EE996E0BF
:103820000E94B915FF91EF91BF91AF919F918F9138
:103830007F916F915F914F913F912F910F900FBEAC
:103840000F901F9018951F920F920FB60F92112490
:103850002F938F939F93EF93FF93E091AE06F09198
:10386000AF068081E091B406F091B50682FD12C0EA
:1038700090818091B7068F5F8F732091B806821771
:1038800051F0E091B706F0E0E256F94F958F809342
:10389000B70601C08081FF91EF919F918F912F9189
:1038A0000F900FBE0F901F901895CF93DF93282F86
:1038B00030E0F901E852F24F8491F901EB5EF14FEB
:1038C000D491F901EF5FF14FC491CC2391F08111B4
:1038D0000E944D16EC2FF0E0EE0FFF1FE950F24F63
:1038E000A591B491EC91ED2381E090E021F480E08A
:1038F00002C080E090E0DF91CF9108951F93CF93B5
:10390000DF93282F30E0F901E852F24F8491F9015A
:10391000EB5EF14FD491F901EF5FF14FC491CC23ED
:10392000C9F0162F81110E944D16EC2FF0E0EE0F1A
:10393000FF1FE351F24FA591B4918FB7F894111185
:1039400005C09C91ED2FE095E92302C0EC91ED2B91
:10395000EC938FBFDF91CF911F9108951F920F922B
:103960000FB60F9211242F933F934F935F936F9352
:103970007F938F939F93AF93BF93EF93FF93809128
:103980009A0690919B06A0919C06B0919D06892B6A
:103990008A2B8B2B59F180919706E0919806F09134
:1039A000990690818927808380919A0690919B0641
:1039B000A0919C06B0919D06181619061A061B06C2
:1039C0000CF03DC080919A0690919B06A0919C06B8
:1039D000B0919D060197A109B10980939A06909331
:1039E0009B06A0939C06B0939D0629C08091040578
:1039F000ECEEFDE0E4919FEF90930405E130B9F027
:103A000098F0E230C9F4909170009D7F909370001F
:103A100091E09093B0009091B100987F9460909362
:103A2000B1001092B30008C010926E0005C09091D2
:103A30006F009D7F90936F0060E00E947E1CFF915D
:103A4000EF91BF91AF919F918F917F916F915F9116
:103A50004F913F912F910F900FBE0F901F9018958F
:103A6000CF93DF9390E0FC01EB5EF14F2491FC01DA
:103A7000EF5FF14F8491882361F190E0880F991FE7
:103A8000FC01E253F24FC591D491FC01E351F24F96
:103A9000A591B491611109C09FB7F89488812095D0
:103AA00082238883EC912E230BC0623061F49FB790
:103AB000F8943881822F809583238883EC912E2B74
:103AC0002C939FBF06C08FB7F894E8812E2B2883D4
:103AD0008FBFDF91CF9108958F929F92AF92BF9247
:103AE000CF92DF92EF92FF926B017C010E947616DB
:103AF0004B015C01C114D104E104F104F1F00E9416
:103B00007616DC01CB0188199909AA09BB09883E00
:103B10009340A105B10570F321E0C21AD108E10874
:103B2000F10888EE880E83E0981EA11CB11CC11418
:103B3000D104E104F10419F7DDCFFF90EF90DF909D
:103B4000CF90BF90AF909F908F9008952FB7F8942B
:103B50006091430670914406809145069091460617
:103B60002FBF08950C94A61D1F920F920FB60F92AF
:103B700011242F933F938F939F93AF93BF93809183
:103B8000430690914406A0914506B09146063091B7
:103B9000420623E0230F2D3720F40196A11DB11D0D
:103BA00005C026E8230F0296A11DB11D20934206F1
:103BB0008093430690934406A0934506B09346062F
:103BC0008091470690914806A0914906B0914A0617
:103BD0000196A11DB11D8093470690934806A093BE
:103BE0004906B0934A06BF91AF919F918F913F9143
:103BF0002F910F900FBE0F901F901895FC0182859A
:103C000093850895FC01808591850895FC0185893F
:103C10000895909196069111FCCF22E0209396068C
:103C200021E0209395062FEF20939406109293069F
:103C300040939206FB0162E776E0DB012A2F261B08
:103C4000241718F421912D93F9CF10927106209129
:103C50007106880F822B80937106809170068130E7
:103C600061F410927006809171068093BB00809180
:103C7000BC0083FDF8CF85EC01C085EE8093BC00CD
:103C8000809196068230E1F3809194068F3F69F02F
:103C900080919406803231F080919406803321F037
:103CA00094E003C092E001C093E0892F0895409111
:103CB0006F068091DD07413228F46FE476E00E94C0
:103CC000091E01C081E010924E0610926F061092FC
:103CD0004D06089591E090934D068093DD07109274
:103CE0004E0610926F06089560E484E897E00C9405
:103CF000AE0B9091B10791112EC048E050E030E832
:103D000011C09091BA07922B9083E091B407F09183
:103D1000B50720819091BB07922B90833695415037
:103D20005109C1F0E091B407F091B507208190915D
:103D3000BB07909592239083932F9823E091B2072D
:103D4000F091B30720819111DCCF9091BA07909543
:103D50009223DACF08950C94DA0C8F929F92AF924F
:103D6000BF92CF92DF92EF92FF926B017C010E9493
:103D7000A61D4B015C01C60ED71EE81EF91E0E944F
:103D8000A61D681579058A059B0528F0C616D70675
:103D9000E806F906A0F7FF90EF90DF90CF90BF9074
:103DA000AF909F908F9008953F924F925F926F9245
:103DB0007F928F929F92AF92BF92CF92DF92EF92BB
:103DC000FF920F931F93CF93DF9300D000D0CDB716
:103DD000DEB720910405253021F02F3F09F02CC2D9
:103DE00004C0ECEEFDE0349076C025E0209304059D
:103DF000ECEEFDE0E491EF3F09F41EC2E13011F179
:103E0000E23009F443C0E11165C014BC15BC24B50F
:103E1000226024BD25B5216025BDE6E0FEE0E491E9
:103E2000F0E0EE0FFF1FE351F24F259134913093F4
:103E3000E3072093E207EAE1FEE0E491E093E10783
:103E4000312C4BC010928000109281002091810093
:103E500028602093810020918100216020938100BF
:103E6000E6E0FEE0E491F0E0EE0FFF1FE351F24FD9
:103E7000259134913093E0072093DF07EAE1FEE0DB
:103E8000E491E093DE073324339427C01092B0000E
:103E90001092B1002091B00022602093B0002091D8
:103EA000B10021602093B100E6E0FEE0E491F0E093
:103EB000EE0FFF1FE351F24F259134913093990695
:103EC00020939806EAE1FEE0E491E0939706B2E0E1
:103ED0003B2E03C03E2E37FCAFC12A013B018C01B3
:103EE00061E085E00E94301D4801A12CB12C832D9A
:103EF0008D7F09F0BBC060E072E18AE790E0A50128
:103F000094010E949F2A29833A834B835C83690131
:103F10007A0121E0C21AD108E108F1088FEFC81632
:103F2000D104E104F10409F008F44CC060E472E447
:103F30008FE090E0A50194010E949F2A69017A0117
:103F4000E1E0CE1AD108E108F108F2E03F1220C00A
:103F50002FEFC216D104E104F10409F008F46AC19C
:103F600060E970ED83E090E0A50194010E949F2A32
:103F700069017A0181E0C81AD108E108F108EFEF80
:103F8000CE16D104E104F10409F0D0F583E067C056
:103F9000FFEFCF16D104E104F104B1F0A8F068E41A
:103FA00078EE81E090E0A50194010E949F2A6901CA
:103FB0007A0181E0C81AD108E108F108332009F438
:103FC000DFC02FC181E001C082E03320A1F047C0F3
:103FD00089819A81AB81BC812AE0B595A795979597
:103FE00087952A95D1F76C017D0121E0C21AD1088D
:103FF000E108F10885E095B5987F892B85BD6FC0F4
:1040000068E478EE81E090E0A50194010E949F2A87
:1040100069017A01F1E0CF1AD108E108F1082FEF28
:10402000C216D104E104F10409F008F4A7C064E267
:1040300074EF80E090E0A50194010E949F2A69013D
:104040007A01E1E0CE1AD108E108F108FFEFCF16BE
:10405000D104E104F10411F008F0B4C085E09091BE
:10406000B100987F892B8093B10039C060E072E184
:104070008AE790E0A50194010E949F2A69017A01D4
:1040800081E0C81AD108E108F108C114D104E1E0C7
:10409000EE06F10488F068E478EE81E090E0A50196
:1040A00094010E949F2A69017A01F1E0CF1AD10898
:1040B000E108F10893E001C091E021E032120FC065
:1040C00080918100887F892B809381004114510465
:1040D0006104710449F42FEF3FEFA9012DC0411491
:1040E00051046104710471F0D801AA0FBB1FA30130
:1040F00092010E94BE2A28EE33E040E050E00E9488
:104100007D2A03C02FEF3FEFA90181E03816A1F00F
:10411000E2E03E1619F131108FC0C7BC2093E807CA
:104120003093E9074093EA075093EB0780916E00C4
:10413000826080936E0080C0D0928900C092880017
:104140002093E4073093E5074093E6075093E70791
:1041500080916F00826080936F006EC0C092B30048
:1041600020939A0630939B0640939C0650939D069D
:10417000809170008260809370005EC084E06FCF99
:10418000FFEFCF16D104E104F104D1F0C8F062E1F1
:104190007AE780E090E0A50194010E949F2A6901DE
:1041A0007A0181E0C81AD108E108F108EFEFCE16D4
:1041B000D104E104F10411F008F00ACF84E01BCF30
:1041C00083E019CF62E17AE780E090E0A5019401F5
:1041D0000E949F2A69017A0181E0C81AD108E1088A
:1041E000F108EFEFCE16D104E104F104C1F0B8F00C
:1041F00089819A81AB81BC814AE0B595A795979555
:1042000087954A95D1F76C017D0121E0C21AD1084A
:10421000E108F108332009F4EDCE87E020CF86E0F5
:10422000D4CEFFEFCF16D104E104F10409F050F62B
:1042300084E0CBCE82E013CF0F900F900F900F90C1
:10424000DF91CF911F910F91FF90EF90DF90CF9072
:10425000BF90AF909F908F907F906F905F904F90A6
:104260003F900895EEE9F6E0A089B18982E08C9351
:10427000A485B5851C92A685B78580E18C93108EA8
:10428000A489B58986E08C93A289B3898C918061D9
:104290008C93A289B3898C9188608C93A289B3890D
:1042A0008C9180688C930288F389E02D80818F7DCA
:1042B0008083089580E094E0E4E0F1E0DF019C0178
:1042C0001D9221503040E1F70895CF93C82F90916F
:1042D000AC079F3F59F1E091B607F091B707808195
:1042E0009091BC07982B9083E091B807F091B907A3
:1042F00020819091BD07909592239083E091B6071D
:10430000F091B70720819091BC07909592239083FC
:104310008C2F0E94791EE091B607F091B70790812B
:104320008091BC07892B8083CF9108958091AA0743
:10433000082E000C990B0E946A1E60E084E897E04A
:104340000E94AE0B6C2F84E897E00E94AE0BCF91D9
:104350000C94571EDF92EF92FF920F931F93CF930F
:10436000DF9381E20E94652180E00E9465218FE752
:104370000E94652182E20E94652180E00E94652101
:1043800087E00E9465218091AC078F3FB1F1E091F9
:10439000B607F091B70790818091BC07892B808385
:1043A000E091B807F091B90790818091BD07892B02
:1043B0008083E091B607F091B70790818091BC07A8
:1043C000809589238083C4E0D1E089910E94791E81
:1043D00085E0C430D807C9F7E091B607F091B70778
:1043E00090818091BC07892B8083DF91CF911F91B1
:1043F0000F91FF90EF90DF900895D090B8008CE07F
:104400008093B800C4E0D1E084E0E82E85E0F82E87
:104410008091AA07082E000C990B0E946A1E0E9428
:10442000741E8E01005F1F4F699184E897E00E941F
:10443000AE0B0C171D07C1F70E94571EE801E016CE
:10444000F10631F7D092B800DF91CF911F910F9113
:10445000FF90EF90DF900895BF92CF92DF92EF929E
:10446000FF920F931F93CF93DF936C01E12CF12CFC
:10447000B12C00E010E0C0E0D0E0CE0187709927B9
:10448000892B11F0BB0C0BC0FE0183E0F595E7957D
:104490008A95E1F7EE0DFF1DEC0DFD1DB490B7FE02
:1044A00008C021E030E0A801BE0180E997E00E9449
:1044B000E1242196C034D10501F70F5F1F4F88E03A
:1044C000E80EF11C00381105B1F6DF91CF911F9174
:1044D0000F91FF90EF90DF90CF90BF900895AB01C8
:1044E000770F660B770B77FD0C94D21B2AE00C94A8
:1044F000891BE0E9F7E0158614861786168608956D
:1045000081E08093A4070895E0E9F7E081E090E07E
:10451000938B828B918B808B089510924C06109216
:104520004B0610924E0610926F060C94CF2880E432
:1045300080937C0080917A00806480937A008091DF
:104540007A0086FDFCCF809178002091790090E080
:10455000922B08950C94AD1E0895CF93DF9300D055
:10456000CDB7DEB72091780830917908CE01019659
:104570002115310519F48C57984018C0AC01421B25
:10458000530BE0917A08F0917B0880E090E030973F
:1045900059F09C012E5F3F4F80819181820F931FC4
:1045A0000280F381E02DF3CF840F951F9A838983D6
:1045B00049815A818091820790918307052E000CD2
:1045C000660B770B77FF03C00E94D21B03C02AE063
:1045D0000E94891B0F900F90DF91CF910895CF9289
:1045E000DF92EF92FF921F93CF93DF931F92CDB78D
:1045F000DEB78091410781112EC0198288E0C82E54
:10460000D12CE12CF12C11E040E0BE016F5F7F4F17
:104610008C2D0E94091E811113C02AE0B701A6014A
:1046200080918207909183070E94891B6CEC75E052
:1046300080918207909183070E94FB1B1093410792
:104640008FEFC81AD80AE80AF80A87E7C816D10413
:10465000E104F104C9F60F90DF91CF911F91FF9013
:10466000EF90DF90CF9008950F931F93811123C097
:104670000E94A61D00913D0710913E0720913F0723
:1046800030914007DC01CB01801B910BA20BB30BD7
:1046900082339105A105B10570F442E350E060E07A
:1046A00070E08A019B01081B190B2A0B3B0BC90107
:1046B000B8010E94AD1E0E94A61D60933D07709335
:1046C0003E0780933F079093400781E01F910F9131
:1046D00008950F931F930E94A61D00913D0710910E
:1046E0003E0720913F0730914007DC01CB01801B42
:1046F000910BA20BB30B82339105A105B10570F4A8
:1047000042E350E060E070E08A019B01081B190B56
:104710002A0B3B0BC901B8010E94AD1E0E94A61DC9
:1047200060933D0770933E0780933F079093400747
:1047300081E01F910F91089510924C0610924B0644
:1047400010924E0610926F060C94CF2881E0809351
:10475000520708958EEB97E090938307809382072A
:104760001092D9071092D8071092D7071092D60747
:104770001092D5071092D4078FE190E09093DB0759
:104780008093DA079091CA07963108F057C021E06C
:1047900030E03093D5072093D4072DE130E03093FB
:1047A000D7072093D6072DE030E03093D907209328
:1047B000D80720916800983050F031E09E3008F41E
:1047C00030E081E001C0880F3A95EAF701C084E04B
:1047D000822B80936800983038F09E3040F09631FC
:1047E00048F020E030E008C02DE630E005C02BE6C0
:1047F00030E002C02CE630E03093D2072093D1079E
:10480000983030F481E001C0880F9A95EAF70EC025
:10481000292F30E09E3018F42850310902C02E5064
:10482000310981E001C0880F2A95EAF78093D30708
:104830008091DA079091DB070197F1F78EEB97E013
:104840000E941A2780918207909183070C941A275F
:1048500010927E0710927F071092800710928107B6
:1048600010923D0710923E0710923F0710924007AA
:1048700068EB7BE080E090E00C94AA22CF92DF927C
:10488000EF92FF9262307105810591058CF06B010A
:104890007C010E946F2AA70196012150310941092C
:1048A00051090E949F2A6F5F7F4F8F4F9F4F04C017
:1048B00061E070E080E090E0FF90EF90DF90CF90BB
:1048C0000895CF92DF92EF92FF92CF93DF93C0E0F3
:1048D000D0E0C12CD12C760120E0822F0D2E01C01A
:1048E000880F0A94EAF7C82BDF5FD83031F08DE0EB
:1048F000C816D104E104F104A9F44C2F50E060E0A3
:1049000070E02AE080918207909183070E94891BC2
:104910006CEC75E080918207909183070E94FB1BED
:10492000D0E0C0E061E070E080E090E00E94AA2268
:104930008FEFC81AD80AE80AF80A8EE0C816D10420
:10494000E104F10471F081E0C816D104E104F1043E
:1049500019F28C2D0E94551C21E0892B09F0BDCF46
:10496000BBCFDF91CF91FF90EF90DF90CF90089574
:104970000895EF92FF920F931F93DC01ED91FC914C
:10498000048CF58DE02D09951F910F91FF90EF900C
:1049900008950F931F93DC01ED91FC91028CF38D30
:1049A000E02D09951F910F9108950F931F93DC013E
:1049B000ED91FC91008CF18DE02D09951F910F91E7
:1049C0000895DC01ED91FC910480F581E02D0994BE
:1049D00008952F923F924F925F926F927F928F92A3
:1049E0009F92AF92BF92CF92DF92EF92FF920F937E
:1049F0001F93CF93DF9300D01F92CDB7DEB74C014A
:104A00007B836A836A01590117019801241B350BC6
:104A100037FF03C0319521953109C5014A815B817A
:104A2000841B950B97FF03C091958195910951E0E7
:104A300059838217930714F019820BC09A2D8B2D7E
:104A40005801092F182F9A818B81DB82CA82C92EC7
:104A5000D82E8A819B81A816B9065CF49C2D8D2DD9
:104A60006801092F182F9A818B81BB82AA82A92EF7
:104A7000B82E2501AA81BB814A1A5B0A38016C183D
:104A80007D0877FE03C0719461947108720157FE2E
:104A900003C0BFEFEB1AFB0AF594E794C016D106EA
:104AA0001CF00FEF1FEF1FC001E010E01CC0D4018D
:104AB000ED91FC91B9810084F185E02D9101BB233A
:104AC000C1F04A815B81B601C4010995E618F70877
:104AD000F7FE04C0C00ED11EE40CF51CEA81FB8178
:104AE0003196FB83EA834A815B81A416B506FCF606
:104AF00004C0A6016A817B81E7CF0F900F900F90D1
:104B0000DF91CF911F910F91FF90EF90DF90CF90A9
:104B1000BF90AF909F908F907F906F905F904F90DD
:104B20003F902F90089520917608309177082817AC
:104B3000390771F49091750880917408981741F0C5
:104B4000E0917508F0E0EC5CF74F808190E008950B
:104B50008FEF9FEF089508951F93CF93DF93DC01AC
:104B60005C962D913C915D972115310539F481E0DA
:104B700090E013969C938E9312973DC05196ED91C1
:104B8000FC91529750969C915097892F80951FB712
:104B90005E964C915E9741FB772770F941FD6095D9
:104BA000F8944081772311F0492B01C048234083BA
:104BB000E9012197F1F748E0508160FF02C0592BCD
:104BC00001C058235083E9012197F1F766954150C0
:104BD00099F7772321F090818923808303C0808116
:104BE000982B90831FBF5C968D919C915D97019748
:104BF000F1F721E030E0C901DF91CF911F910895D5
:104C000020917608309177082817390771F4809140
:104C100074082091750890E0805C9F4F821B910979
:104C200060E470E00E94E02A089580E090E008953A
:104C3000209176083091770828173907B9F49091B8
:104C4000750880917408981789F0E0917508F0E074
:104C5000EC5CF74F80812091750830E02F5F3F4F6B
:104C60002F7333272093750890E008958FEF9FEFFF
:104C7000089585ED8093BC008091BC0084FDFCCF3D
:104C8000109296060895089581E090E030914C06C8
:104C900020914B06321710F480E090E091958195B9
:104CA0009109089580914C0690914B06891730F434
:104CB0008F5F80934C0680E090E008958FEF9FEF28
:104CC000089580914B0690E020914C06821B91093B
:104CD0000895FC01138212828DE795E09183808311
:104CE00075836483578346837187608753874287C0
:104CF000158A158614861786168681E0848B2FEF19
:104D00003FEF338B228B318B208B868B178A118E52
:104D1000108E08951F920F920FB60F9211242F93A9
:104D20003F934F935F936F937F938F939F93AF9333
:104D3000BF93EF93FF93E0917608F0917708309757
:104D400009F451C0968DA685B785858591FF04C06D
:104D50009C91892329F447C09C91892309F043C081
:104D6000A389B4899C918589809589238C938689B0
:104D700097890197F1F7608D718DA685B785558567
:104D800038E020E0CB010197F1F7822F90E0959574
:104D90008795282F4C91452309F02068315091F7D1
:104DA000868D81FD20958091740890E001968F7327
:104DB000992730917508381749F0A0917408B0E030
:104DC000AC5CB74F2C938093740803C0868D8160D0
:104DD000868F828D938D0197F1F7A389B4899C9179
:104DE0008589892B8C93FF91EF91BF91AF919F9112
:104DF0008F917F916F915F914F913F912F910F9084
:104E00000FBE0F901F901895E0917608F0917708EB
:104E1000E817F90769F4A389B4899C91858980957D
:104E200089238C93109277081092760881E0089578
:104E300080E00895CF93DF93EC018A8D9B8D892BC1
:104E4000F1F080917608909177088C179D07B9F062
:104E5000009711F00E9404278E8D8E7F8E8F109206
:104E6000740810927508D0937708C0937608EB8980
:104E7000FC8990818D89892B808381E001C080E04D
:104E8000DF91CF910895CF93CFB7F89480913308F5
:104E9000811127C0EBE0FEE08491EFE1FEE0949108
:104EA000E82FF0E0EE0FFF1FE253F24FA591B4910F
:104EB000EC91E92321F461E08AE00E947E1C61E02C
:104EC0008AE00E94301D8CB580618CBD8CB58064F9
:104ED0008CBD61E08DE00E94301D61E08BE00E949E
:104EE000301D809133088F5F80933308CFBFCF91FF
:104EF00008951F920F920FB60F9211242F933F9394
:104F00004F935F936F937F938F939F93AF93BF93D1
:104F1000EF93FF938091B900887F803609F49CC09D
:104F200068F5883209F45BC090F4803109F454C00C
:104F300038F4882309F4F6C0883009F44DC0F6C06F
:104F4000883109F44CC0803209F45DC0EFC0803470
:104F500009F468C048F4803309F455C0883309F077
:104F6000E5C080939406D8C0803509F44FC08835D9
:104F700009F45DC0883409F0D9C0D6C0883909F475
:104F8000C7C0A8F4883709F467C038F4883609F434
:104F900063C0803709F460C0C9C0883809F4B8C05C
:104FA000803909F45FC0803809F0C0C05BC0803B25
:104FB00009F486C038F4803A09F466C0883A09F4E6
:104FC0007FC0B4C0803C09F4A7C0883C09F4A4C0E9
:104FD000883B09F48AC0AAC08091710610C09091E4
:104FE000930680919206981770F5E091930681E000
:104FF0008E0F80939306F0E0EE58F94F80818093F6
:10500000BB0085EC86C0809394068EC0E091930629
:1050100081E08E0F809393068091BB00F0E0EE5804
:10502000F94F808390919306809192066EC0E09133
:10503000930681E08E0F809393068091BB00F0E091
:10504000EE58F94F80838091950681116DC081E003
:105050008093700684EA61C083E080939606109284
:105060003208CFCF80913208803208F051C0E091F1
:10507000320881E08E0F809332088091BB00F0E00F
:10508000EE5EF74F8083BDCF85EC8093BC0010921D
:10509000960680913208803230F4E0913208F0E0D8
:1050A000EE5EF74F10826091320870E0E0911008D8
:1050B000F091110882E198E009951092320836C00B
:1050C00084E08093960610920F0810920E08E091EB
:1050D0000C08F0910D08099580910E08811105C00A
:1050E00081E080930E081092EC07E0910F0881E0B8
:1050F0008E0F80930F08F0E0E451F84F8081809389
:10510000BB0090910F0880910E08981708F479CF92
:1051100085E88093BC000AC085EC8093BC001092A7
:10512000960604C0109294060E943926FF91EF91D2
:10513000BF91AF919F918F917F916F915F914F91AF
:105140003F912F910F900FBE0F901F901895409197
:105150000E08262F30E0240F311D21323105DCF4FA
:10516000209196062430C9F4FC0180E090E0861777
:1051700058F430910E082191DC01A451B84FA30FCF
:10518000B11D2C930196F3CF80910E08680F6093A8
:105190000E0880E0089581E0089582E0089510925D
:1051A000960681E0809395061092700661E082E198
:1051B0000E947E1C61E083E10E947E1CE9EBF0E02E
:1051C00080818E7F808380818D7F808388E480933F
:1051D000B80085E48093BC00089585E695E090933F
:1051E000BF078093BE078EEB97E00C94042778945A
:1051F00084B5826084BD84B5816084BD85B58260DC
:1052000085BD85B5816085BDEEE6F0E08081816079
:105210008083E1E8F0E01082808182608083808179
:1052200081608083E0E8F0E0808181608083E1EB51
:10523000F0E0808184608083E0EBF0E08081816039
:105240008083EAE7F0E080818460808380818260EF
:1052500080838081816080838081806880831092D8
:10526000C1000E94A2120E94E10CCF92DF92EF9245
:10527000FF921092A1061092A00698EEC92E93E01C
:10528000D92EE12CF12CC092A206D092A306E09276
:10529000A406F092A50685E495E090939F0680937E
:1052A0009E0685EC90E09093AB068093AA0684EC72
:1052B00090E09093AD068093AC0680EC90E09093E4
:1052C000AF068093AE0681EC90E09093B106809398
:1052D000B00682EC90E09093B3068093B20686EC21
:1052E00090E09093B5068093B4061092B7061092A2
:1052F000B8061092B9061092BA06109242071092A0
:1053000043071092440710924507109246071092E7
:105310004707109248071092490710924A071092C7
:105320004B0710924C0710924D0710924E071092A7
:105330004F07109250071092510710928707109252
:105340008607C0928807D0928907E0928A07F09278
:105350008B0785E595E0909385078093840764E04B
:1053600080E997E00E94C10C1092C1071092C0071B
:10537000C092C207D092C307E092C407F092C5075B
:1053800085E695E09093BF078093BE071092D507FE
:105390001092D4071092D7071092D6071092D9070F
:1053A0001092D8071092DB071092DA076091DC07A1
:1053B0006E7F6D7F6093DC076695617081E0682782
:1053C00087E00E947E1C61E087E00E94301DECE1D6
:1053D000FEE0E491E093CE07E8E0FEE0E491F0E047
:1053E000EE0FFF1FE351F24F859194919093D007F8
:1053F0008093CF0760E088E00E94301D8091DC0739
:1054000081FD04C061E088E00E947E1C88E08093FA
:10541000CA07EDE1FEE0E491E093CB07E9E0FEE0AE
:10542000E491F0E0EE0FFF1FE950F24F8591949167
:105430009093CD078093CC07FF90EF90DF90CF90B3
:1054400008958F929F92AF92BF92CF92DF92EF9288
:10545000FF92CF93DF93EC01688179818A819B81F0
:10546000611571058105910521F464E279ED8BE503
:1054700097E02DE133EF41E050E00E949F2A49017F
:105480005A019B01AC01A7EAB1E40E94BE2A6B015C
:105490007C01ACEEB4EFA50194010E94CC2ADC01A2
:1054A000CB018C0D9D1DAE1DBF1DB7FF03C0019725
:1054B000A109B04888839983AA83BB83BC01CD012D
:1054C0009F77DF91CF91FF90EF90DF90CF90BF90CB
:1054D000AF909F908F9008950E94212A089585E0B3
:1054E00095E00E94212A08956093050570930605B2
:1054F00080930705909308050895A1E21A2EAA1B30
:10550000BB1BFD010DC0AA1FBB1FEE1FFF1FA21773
:10551000B307E407F50720F0A21BB30BE40BF50B70
:10552000661F771F881F991F1A9469F760957095F9
:10553000809590959B01AC01BD01CF010895052E8A
:1055400097FB1EF400940E94B62A57FD07D00E94D4
:105550007D2A07FC03D04EF40C94B62A5095409552
:10556000309521953F4F4F4F5F4F0895909580950F
:10557000709561957F4F8F4F9F4F08950E94D12A5C
:10558000A59F900DB49F900DA49F800D911D112497
:105590000895B7FF0C94BE2A0E94BE2A821B930B6B
:1055A0000895A29FB001B39FC001A39F700D811DFC
:1055B0001124911DB29F700D811D1124911D08951C
:1055C00097FB072E16F4009407D077FD09D00E94B0
:1055D000F42A07FC05D03EF4909581959F4F0895DD
:1055E000709561957F4F0895AA1BBB1B51E107C0C1
:1055F000AA1FBB1FA617B70710F0A61BB70B881F63
:10560000991F5A95A9F780959095BC01CD010895F1
:10561000EE0FFF1F0590F491E02D099481E090E0DA
:10562000F8940C94132B17E0C6E1D7E004C0FE01F8
:105630000E94082B2196C731D107C9F7F894FFCFF4
:105640000101011C0000000000000000000000003B
:10565000000000000000000000000000000000004A
:10566000000000000000000000000000000000003A
:10567000000000000000000000000000000000002A
:10568000000000808080000000000000000000009A
:1056900000000000008080C0C0000000000000008A
:1056A00000000000000000000000000000000000FA
:1056B00000000000000000000000000000000000EA
:1056C00000000000000000000000000000000000DA
:1056D000000000000000000080C0E0F0F8FCF8E0EE
:1056E00000000000000000000000000000000000BA
:1056F00000808080808000808000000000808080AA
:10570000808000FFFFFF000000008080808000009C
:105710008080000080FFFF8080008080008080808B
:10572000800080800000000000808000008C8E845B
:10573000000080F8F8F88000000000000000000081
:1057400000000000F0F0F0F0F0F0F0F0F0F0F0F019
:10575000E0E0C08000E0FCFEFFFFFF7FFFFFFFFFF7
:10576000FF0000000000000000000000000000FE3C
:10577000FFC70101010183FFFF00007CFEC701019B
:10578000010183FFFFFF0038FEC78301010183C7CA
:10579000FFFF000001FFFF010100FFFF0701010102
:1057A00000007FFF80000000FFFF7F0000FFFFFF81
:1057B000000001FFFFFF01000000000000000000EA
:1057C00000000000030F3F7F7FFFFFFFFFFFFFFF91
:1057D000E7C7C78F8F9FBFFFFFC3C0F0FFFFFFFF6B
:1057E000FFFCFCFCFCFCFCFCFCF8F8F0F0E0C0006A
:1057F000010303030303010303000000000103038B
:10580000030301010301000000010303030301017D
:105810000303000000030300000003030000000076
:105820000000000103030303030100000001030162
:105830000000000303010000000000000000000061
:105840000000000000000080C0E0F0F9FFFFFFFF53
:10585000FF3F1F0F87C7F7FFFF1F1F3DFCF8F8F83A
:10586000F87C7DFFFFFFFFFFFFFFFF7F3F0F07007B
:1058700030300000000000000000000000000000C8
:105880000000000000000000FEFEFC000000000020
:105890000000000000000000000000000000000008
:1058A00000E0C000000000000000000000003030F8
:1058B00000000000000000000000000000000000E8
:1058C0000000000000C0FEFFFFFFFFFFFFFFFFFF23
:1058D0007F7F3F1F0F071F7FFFFFF8F8FFFFFFFFCE
:1058E000FFFEF8E0000000010000000000000000E2
:1058F000FEFE000000FCFEFC0C06060EFCF800009C
:10590000F0F81C0E0606060CFFFFFF0000FEFE006E
:10591000000000FCFEFC00183C7E66E6CE84000021
:1059200006FFFF0606FCFEFC0C0606060000FEFE57
:105930000000C0F8FC4E4646464E7C7840183C7647
:10594000E6CECC8000000000000000000000000057
:10595000000000000000000001070F1F1F3F3F3F35
:105960003F1F0F03000000000000000000000000C7
:105970000F0F0000000F0F0F000000000F0F0000BE
:1059800003070E0C18180C060F0F0F0000010F0E66
:105990000C180C0F070100040E0C180C0F07000068
:1059A000000F0F00000F0F0F0000000000000F0F8E
:1059B00000000007070C0C181C0C060600040E0C57
:1059C000180C0F070000000000000000000000009D
:1059D00000000000000000000000000000000000C7
:1059E00000000000000000000000000000000000B7
:1059F00000000000000000000000000000000000A7
:105A00000000000000000000000000000000000096
:105A10000000000000000000000000000000000086
:105A20000000000000000000000000000000000076
:105A30000000000000000000000000000000000066
:105A400000000000FF0100000000000000C7185621
:105A500015DD0BE824E124B924D524C924E924B8B0
:105A6000249C169B164107A508911A731AFC199DD0
:105A700019000103070F1F3F7F0080C0E0F0F8FC12
:105A8000FE00000000DA155615A3158115951521A5
:105A90001600000000AE0B7E0B6126522644264302
:105AA0002600000000AC255615002618269325ABCD
:105AB00025000000007F1B561500000000C7185687
:105AC000157F1BE824E124B924D524C924E924B88E
:105AD000249C169B16251BE11A911A731AFC199D1A
