:100000000C94EA040C9412050C9412050C94300C18
:100010000C94300C0C94300C0C9412050C941205BA
:100020000C9412050C9412050C9412050C941205F4
:100030000C9412050C9412050C9412050C941205E4
:100040000C9484140C9412050C9477130C94511393
:100050000C9412050C9412050C9412050C941205C4
:100060000C94D30C0C94120500000000240027000F
:100070002A003FC7FEFFFFFFFFFF9FF0FE07E07F64
:100080000000000000000000000000000000000070
:100090000000000000000000000000000000000060
:1000A0000000000000000000000000000000000050
:1000B0000000000000000000000000000000000040
:1000C0000000000000000000003E00000000700082
:1000D00000C20000000080000102000200010400D4
:1000E00001000004800109000200DB8F38E3DE001C
:1000F0000200644449110800021E444441120800F1
:100100000204484832121000020488880A221000B3
:10011000018488888A22100000788707F1C20E00C7
:1001200000000000000400000000000000040000C7
:1001300000000000000000000000000000000000BF
:1001400000000000000000000000000000000000AF
:10015000000000000000000000000000000000009F
:1001600066360CE1F0FCFC3C673318E1F8FCFE7EDF
:10017000673319B18CC0C66067B3B9B18CFCFE7C23
:1001800066F1B3198CFCFC1E6671B3F98CC0CC0609
:100190006670E3F9F8FCC67E6630E60DF0FCC33C01
:1001A000000000000000000000000000000000004F
:1001B000000000000000000000000000000000003F
:1001C000000000000000000000000000000000002F
:1001D000000000000000000000000000000000001F
:1001E000000000000000000000000000000000000F
:1001F00000000000000000000000000000000000FF
:1002000000000000000000000003C007800F000095
:10021000001FF83FF07FE000003FFC7FF8FFF00098
:1002200000399C7338E67000003FFC7FF8FFF00057
:10023000000E701CE039C000001998333066600071
:10024000000C30186030C00000000000000000000A
:10025000000000000000000000000000000000009E
:1002600000018003000600000003C007800F0000AB
:100270000007E00FC01F8000000DB01B6036C000FB
:10028000000FF01FE03FC0000002400480090000A2
:100290000005A00B40168000000A5014A029400061
:1002A000000000000000000000000000000000004E
:1002B000000000000000000000000000000000003E
:1002C000000000000000000000000000000000002E
:1002D0000000000000020000000000000004000018
:1002E0000000000000080000000000000004000002
:1002F00000000000000200000000000000040000F8
:1003000000000000000800000000000000000000E5
:1003100000000000000000000000010000000000DC
:1003200000000100000000000000010000000000CB
:1003300000000100000000000000000000000000BC
:1003400000000000000000000000000000000000AD
:10035000000000000000000000000000000000009D
:10036000000000000000000000000000000000008D
:1003700000000100000000000000038000000000F9
:10038000000003800000000000003FF800000000B3
:1003900000007FFC0000000000007FFC0000000067
:1003A00000007FFC0000000000007FFC0000000057
:1003B000000000000000000000000000000000003D
:1003C000000000000000000000000000000000002D
:1003D000000000000000000000000000000000001D
:1003E000000000000000000000000000000000000D
:1003F00000000000000000001E0000000620002099
:100400001100000009200020112CC38E087BC5F8C4
:1004100011312410042026201E21E6180221E42098
:10042000102101860122242010210082092224208B
:100430001020E71C0619E41800000000000000006E
:1004400000000000000000000000000000000000AC
:10045000000000000000000000000000000000009C
:10046000000000000000000000000000000000008C
:10047000000000000000000000000000000000007C
:1004800000000000003E5B4F5B3E3E6B4F6B3E1C2E
:100490003E7C3E1C183C7E3C181C577D571C1C5E45
:1004A0007F5E1C00183C1800FFE7C3E7FF0018241C
:1004B0001800FFE7DBE7FF30483A060E26297929C6
:1004C00026407F050507407F05253F5A3CE73C5AFB
:1004D0007F3E1C1C08081C1C3E7F14227F22145FD8
:1004E0005F005F5F06097F017F006689956A606033
:1004F00060606094A2FFA29408047E040810207E2D
:10050000201008082A1C08081C2A08081E101010B1
:10051000100C1E0C1E0C30383E3830060E3E0E06F7
:10052000000000000000005F00000007000700144A
:100530007F147F14242A7F2A122313086462364909
:100540005620500008070300001C224100004122F1
:100550001C002A1C7F1C2A08083E080800807030F6
:100560000008080808080000606000201008040265
:100570003E5149453E00427F40007249494946216B
:1005800041494D331814127F1027454545393C4ADF
:1005900049493141211109073649494936464949F6
:1005A000291E00001400000040340000000814223E
:1005B00041141414141400412214080201590906AC
:1005C0003E415D594E7C1211127C7F494949363EAD
:1005D000414141227F4141413E7F494949417F0993
:1005E0000909013E414151737F0808087F00417F9E
:1005F00041002040413F017F081422417F4040409C
:10060000407F021C027F7F0408107F3E4141413E33
:100610007F090909063E4151215E7F0919294626B5
:100620004949493203017F01033F4040403F1F20B9
:1006300040201F3F4038403F631408146303047890
:1006400004036159494D43007F41414102040810B0
:1006500020004141417F04020102044040404040EB
:10066000000307080020545478407F284444383859
:1006700044444428384444287F38545454180008CB
:100680007E090218A4A49C787F0804047800447DA5
:1006900040002040403D007F1028440000417F4042
:1006A000007C047804787C08040478384444443896
:1006B000FC1824241818242418FC7C080404084876
:1006C0005454542404043F44243C4040207C1C20C7
:1006D00040201C3C4030403C44281028444C909022
:1006E000907C4464544C440008364100000077007C
:1006F00000004136080002010204023C2623263C89
:100700001EA1A161123A4040207A38545455592113
:1007100055557941225454784221555478402054FB
:100720005579400C1E527212395555555939545449
:10073000545939555454580000457C410002457DB8
:10074000420001457C407D1211127DF0282528F0E1
:100750007C545545002054547C547C0A097F49320E
:10076000494949323A4444443A324A4848303A4185
:1007700041217A3A42402078009DA0A07D3D42422E
:10078000423D3D4040403D3C24FF2424487E4943B7
:10079000662B2FFC2F2BFF0929F620C0887E09032A
:1007A00020545479410000447D413048484A323851
:1007B0004040227A007A0A0A727D0D19317D26297D
:1007C000292F28262929292630484D402038080875
:1007D000080808080808382F10C8ACBA2F102834A9
:1007E000FA00007B000008142A142222142A14089C
:1007F0005500550055AA55AA55AAFF55FF55FF00AB
:100800000000FF00101010FF00141414FF0010105F
:10081000FF00FF1010F010F0141414FC001414F773
:1008200000FF0000FF00FF1414F404FC1414171060
:100830001F10101F101F1414141F00101010F000B0
:100840000000001F101010101F10101010F01000EA
:100850000000FF101010101010101010FF100000FA
:1008600000FF140000FF00FF00001F10170000FC35
:1008700004F414141710171414F404F40000FF0007
:10088000F714141414141414F700F7141414171490
:1008900010101F101F141414F4141010F010F00096
:1008A000001F101F0000001F14000000FC140000B7
:1008B000F010F01010FF10FF141414FF141010109B
:1008C0001F00000000F010FFFFFFFFFFF0F0F0F04E
:1008D000F0FFFFFF0000000000FFFF0F0F0F0F0FE2
:1008E0003844443844FC4A4A4A347E02020606022E
:1008F0007E027E0263554941633844443C04407E95
:10090000201E2006027E020299A5E7A5991C2A490D
:100910002A1C4C7201724C304A4D4D303048784898
:1009200030BC625A463D3E494949007E0101017E84
:100930002A2A2A2A2A44445F444440514A444040D7
:10094000444A51400000FF0103E080FF0000080816
:100950006B6B083612362436060F090F0600001896
:10096000180000001010003040FF0101001F0101BD
:100970001E00191D1712003C3C3C3C00000000000A
:10098000000000080002010000030407000000004E
:100990000000000000000000250028002B000000DF
:1009A00000002300260029000404040404040404B5
:1009B000020202020202030303030303010204080A
:1009C00010204080010204081020010204081020B9
:1009D000101B061B11241FBECFEFD8E0DEBFCDBF1A
:1009E00015E0A0E0B1E0E0E3F9E302C005900D926C
:1009F000A23AB107D9F728E0A2EAB5E001C01D92FA
:100A0000A332B207E1F714E0C9EED4E004C02197A5
:100A1000FE010E945E1CC83ED107C9F70E946717FD
:100A20000C948B1C0C940000FC016370658B84811A
:100A3000958126813781613039F0633029F09187C3
:100A4000808733872287089531872087938782871D
:100A500008952F923F924F925F926F927F928F9262
:100A60009F92AF92BF92CF92DF92EF92FF920F933D
:100A70001F93CF93DF93CDB7DEB76C970FB6F89483
:100A8000DEBF0FBECDBF9C8F8B8F5B011A011F8312
:100A90000E833701C982DC0158964D915C915997BC
:100AA0004115510509F0E5C018968D919C91199753
:100AB000681779070CF0CAC11A968D919C911B9703
:100AC000281639060CF0C2C18C2C912CFB0136E0A3
:100AD000C39EE00DF11D1124FB87EA871E161F0639
:100AE0000CF0B4C1C40133E0880F991F3A95E1F7C7
:100AF0009D878C87820D931D181619060CF0A6C1D0
:100B000057968C91811103C0203B08F02F5FAB8D6D
:100B1000BC8DED91FC9111970680F781E02DCD0100
:100B20002A8F09952A8DB5E02B9F90011124F5019C
:100B30003596FF87EE87BB82AA822501A9014A1953
:100B40005B09598B488BC10108969B8B8A8BE8897E
:100B5000F989E40DF51DE058FB4F949198876101E8
:100B60003D822C82A885A0FF13C0AB8DBC8DED917A
:100B7000FC91B981B13031F40084F185E02D2E81F2
:100B80003F8116C00284F385E02DEE80FF801AC0FD
:100B9000EE81FF816E167F06F1F0AB8DBC8DED917D
:100BA000FC91B981B13051F40084F185E02D9301BD
:100BB000A601B2018B8D9C8D09950DC00284F38531
:100BC000E02D7301840194014C815D816A817B81F8
:100BD0008B8D9C8D0995E885E695E887FFEFCF1A08
:100BE000DF0A2C813D81280D391D3D832C834A89E4
:100BF0005B89C416D50609F0B5CF5FEF451A550AD3
:100C00008A819B81880D991D9B838A83AE85BF85D0
:100C10004A165B0609F09BCFEE81FF816E167F06B8
:100C200009F4F2C0EB8DFC8DA081B181F981F13026
:100C300079F4B5016B5F7F4F1C96ED91FC911D9788
:100C4000830128E030E0A1018B8D9C8D0995DCC0EB
:100C50006A857B85681979091A96ED91FC911B9735
:100C600073010C851D859401A1018B8D9C8D0995C7
:100C7000CBC0FA0134969491329765917491291BF7
:100C8000CB01B7E02B9F800D911D1124FA01259116
:100C900034913B8B2A8BFC01459154915B834A83B1
:100CA000FC013296C490319654915E87329614912D
:100CB0003196D4908981823058F0612E012E000C3B
:100CC0007708AD2D0D2C000CBB0BB987A88704C08D
:100CD00019861886612C712CAB8DBC8DED91FC9121
:100CE00011970680F781E02DCD010995B9818B2EF2
:100CF000912C689CC001699C900D789C900D1124EA
:100D0000FC01EA0DFB1DFD87EC871C82712C612C18
:100D1000E12F110FFF0B95012E0F3F1F3B872A87F5
:100D2000AC0CB11CA5014E0F5F1F5F8B4E8BC10138
:100D30008D0D911DD7FC9A95998F888F4E856416DD
:100D400008F062C0862D90E048855985480F591FEC
:100D5000489D9001499D300D589D300D1124D901B9
:100D6000A20DB31DB98BA88BAA84BB844C845D846F
:100D7000DC80BA85DB1AE88DF98DE80FF91FFD8B51
:100D8000EC8B8D2D8A0D2E893F89A216B306B9F101
:100D9000877061F48A819B810196EA89FB89AA8127
:100DA000BB81EA0FFB1F74909B838A8377FE20C070
:100DB000AB8DBC8DED91FC91B981B13061F40084B3
:100DC000F185E02D2E813F814C895D89B5018B8DA8
:100DD0009C8D09950DC00284F385E02DEE80FF8087
:100DE0008401940148895989B2018B8D9C8D0995A4
:100DF000770CEFEFAE1ABE0A480C591CC2CF3C81EB
:100E00003C0D3C8363949ACFAB8DBC8DED91FC91EE
:100E100011970288F389E02DCD016C960FB6F894F6
:100E2000DEBF0FBECDBFDF91CF911F910F91FF901D
:100E3000EF90DF90CF90BF90AF909F908F907F907A
:100E40006F905F904F903F902F9009946C960FB6E3
:100E5000F894DEBF0FBECDBFDF91CF911F910F91F0
:100E6000FF90EF90DF90CF90BF90AF909F908F90CA
:100E70007F906F905F904F903F902F900895AF922A
:100E8000BF92CF92EF92FF920F931F93CF93DF9376
:100E9000EC01262F888D998D009709F040C06A30AB
:100EA00059F41D861C862C898E859F8538E0239FEA
:100EB000800D911D112441C06D3009F4AAC08E89A6
:100EC0008823C1F03C898C859D8546E0349F800D48
:100ED000911D112448855985481759075CF41D86D2
:100EE0001C868E859F8548E0349F800D911D1124BE
:100EF0009F878E87EA88FB88088919894E855F85D8
:100F00006C857D85CC88CE010E9429052C898C8535
:100F10009D8536E0239F800D911D112442C06A30CB
:100F200079F41D861C862C89FC013696E4918E8509
:100F30009F852E9F800D911D11249F878E8769C0EC
:100F40006D3009F466C0FC0134963491631708F4DF
:100F500060C03196E491E61708F45BC0FC0132965C
:100F6000A590B490462F50E0431B510937E0349FC1
:100F7000B001359F700D1124A60EB71EF5013296F3
:100F800034913196E491332311F0E1110DC0F50154
:100F90003496E4912C898C859D85E29F800D911D6E
:100FA00011249D878C8735C0F501359644915E8963
:100FB000552311F16C89E32FF0E0E40FF11D47FD9B
:100FC000FA956E9FD0016F9FB00D11244C855D8501
:100FD0004A0F5B1FE885F985E417F5076CF41D8659
:100FE0001C86FC013696E4918E859F856E9F800D50
:100FF000911D11249F878E87EA88FB8808891989AB
:101000004E855F856C857D85CC88CE010E94290543
:10101000BECF81E090E0DF91CF911F910F91FF90C3
:10102000EF90CF90BF90AF9008956F927F928F9284
:101030009F92AF92BF92CF92DF92EF92FF920F9367
:101040001F93CF93DF93EC014B015A0169013801E3
:10105000E881F9810680F781E02D0995E881F98121
:101060000684F785E02D87019601A501B401CE0124
:101070000995E881F981A501460D571D4150510997
:101080000684F785E02D9601B401CE010995E8812B
:10109000F9810484F585E02D9301A501B401CE0109
:1010A0000995E881F981C80CD91CB6016150710914
:1010B0000484F585E02D9301A501CE010995E88111
:1010C000F9810288F389E02DCE01DF91CF911F9144
:1010D0000F91FF90EF90DF90CF90BF90AF909F90D7
:1010E0008F907F906F900994CF92DF92EF92FF9252
:1010F0000F931F93CF93DF9300D000D000D0CDB7D4
:10110000DEB76C01DC01ED91FC916217730789F485
:10111000041715072CF4942F852FA801092F182FD9
:10112000041B150B98012F5F3F4F008CF18DE02DB4
:1011300012C04017510709F5261737072CF4962FD0
:10114000872FB901292F382F261B370B2F5F3F4FD1
:10115000028CF38DE02D8701C601099526960FB606
:10116000F894DEBF0FBECDBFDF91CF911F910F91DD
:10117000FF90EF90DF90CF9008950680F781E02DEB
:101180002D833E834B835C8369837A830995D601E3
:10119000ED91FC910088F189E02D2D813E814B81FC
:1011A0005C8169817A81C6010995D601ED91FC9136
:1011B0000288F389E02DC60126960FB6F894DEBFAB
:1011C0000FBECDBFDF91CF911F910F91FF90EF9098
:1011D000DF90CF900994EF92FF920F931F93DC0161
:1011E000ED91FC9111971A960D911C911B971896F1
:1011F0002D913C911997048CF58DE02D7B0140E0F9
:1012000050E060E070E009951F910F91FF90EF9022
:1012100008954F925F926F927F928F929F92AF92BA
:10122000BF92CF92DF92EF92FF920F931F93CF93D3
:10123000DF9300D0CDB7DEB76C015A013901480108
:10124000DC01ED91FC910680F781E02D69837A83C2
:1012500009956981462E7A81572E640C751CD6013A
:10126000ED91FC91461457046CF40484F585E02D4F
:1012700087019401A501B201C6010995BFEF4B1A80
:101280005B0AEDCF0288F389E02DC6010F900F9025
:10129000DF91CF911F910F91FF90EF90DF90CF9052
:1012A000BF90AF909F908F907F906F905F904F9086
:1012B0000994AF92BF92CF92DF92EF92FF920F9379
:1012C0001F93CF93DF9300D000D0CDB7DEB75C0182
:1012D0006901DC01ED91FC910680F781E02D4B83E3
:1012E0005C8369837A830995D501ED91FC916981CD
:1012F0007A819B012C0D3D1D215031090088F18917
:10130000E02D78014B815C818A01C5010995D501E9
:10131000ED91FC910288F389E02DC5010F900F90AB
:101320000F900F90DF91CF911F910F91FF90EF9051
:10133000DF90CF90BF90AF900994AF92BF92CF92C1
:10134000DF92EF92FF920F931F93CF93DF9300D022
:1013500000D0CDB7DEB75C016901DC01ED91FC91F5
:101360000680F781E02D4B835C8369837A8309953E
:10137000D501ED91FC914B815C81C40ED51EB1E08D
:10138000CB1AD1080088F189E02D780186016981A6
:101390007A819B01C5010995D501ED91FC910288E7
:1013A000F389E02DC5010F900F900F900F90DF9102
:1013B000CF911F910F91FF90EF90DF90CF90BF9052
:1013C000AF9009940895EF92FF920F931F93DC0161
:1013D000ED91FC91048CF58DE02D09951F910F91F5
:1013E000FF90EF9008950F931F93DC01ED91FC9116
:1013F000028CF38DE02D09951F910F9108950F93A5
:101400001F93DC01ED91FC91008CF18DE02D09958D
:101410001F910F910895DC01ED91FC910480F581FD
:10142000E02D099408952F923F924F925F926F9210
:101430007F928F929F92AF92BF92CF92DF92EF9264
:10144000FF920F931F93CF93DF9300D01F92CDB7DE
:10145000DEB74C017B836A836A0159011701980149
:10146000241B350B37FF03C0319521953109C50188
:101470004A815B81841B950B97FF03C091958195F1
:10148000910951E059838217930714F019820BC018
:101490009A2D8B2D5801092F182F9A818B81DB8271
:1014A000CA82C92ED82E8A819B81A816B9065CF4FF
:1014B0009C2D8D2D6801092F182F9A818B81BB825D
:1014C000AA82A92EB82E2501AA81BB814A1A5B0ADD
:1014D00038016C187D0877FE03C07194619471081F
:1014E000720157FE03C0BFEFEB1AFB0AF594E794B5
:1014F000C016D1061CF00FEF1FEF1FC001E010E077
:101500001CC0D401ED91FC91B9810084F185E02DDE
:101510009101BB23C1F04A815B81B601C4010995E9
:10152000E618F708F7FE04C0C00ED11EE40CF51C47
:10153000EA81FB813196FB83EA834A815B81A416B1
:10154000B506FCF604C0A6016A817B81E7CF0F9047
:101550000F900F90DF91CF911F910F91FF90EF901F
:10156000DF90CF90BF90AF909F908F907F906F90C3
:101570005F904F903F902F90089520918A06309170
:101580008B062817390771F4909189068091880697
:10159000981741F0E0918906F0E0E85BF94F80810F
:1015A00090E008958FEF9FEF089508951F93CF93D4
:1015B000DF93DC015C962D913C915D9721153105FF
:1015C00039F481E090E013969C938E9312973DC07E
:1015D0005196ED91FC91529750969C915097892F7E
:1015E00080951FB75E964C915E9741FB772770F907
:1015F00041FD6095F8944081772311F0492B01C09B
:1016000048234083E9012197F1F748E0508160FFCA
:1016100002C0592B01C058235083E9012197F1F7EB
:101620006695415099F7772321F090818923808333
:1016300003C08081982B90831FBF5C968D919C91F5
:101640005D970197F1F721E030E0C901DF91CF917B
:101650001F91089520918A0630918B06281739072B
:1016600071F4809188062091890690E0805C9F4FFC
:10167000821B910960E470E00E94361C089580E0AE
:1016800090E0089520918A0630918B06281739073B
:10169000B9F49091890680918806981789F0E091B5
:1016A0008906F0E0E85BF94F80812091890630E0FF
:1016B0002F5F3F4F2F7333272093890690E00895C3
:1016C0008FEF9FEF0895E0918A06F0918B06E8175F
:1016D000F90769F4A389B4899C9185898095892348
:1016E0008C9310928B0610928A0681E0089580E018
:1016F000089585ED8093BC008091BC0084FDFCCFF3
:101700001092DE06089540912306262F30E0240F24
:10171000311D21323105DCF42091DE062430C9F47C
:10172000FC0180E090E0861758F430912306219167
:10173000DC01AF5FB94FA30FB11D2C930196F3CF1E
:1017400080912306680F6093230680E0089581E06E
:10175000089582E00895089581E090E03091A30516
:101760002091A205321710F480E090E091958195C8
:10177000910908958091A3059091A205891730F4ED
:101780008F5F8093A30580E090E008958FEF9FEF37
:1017900008958091A20590E02091A305821B9109F4
:1017A0000895CF92DF92EF92FF920F931F93CF9302
:1017B000DF937C01262F972F8A018091950688233D
:1017C00091F0C62FD72F6E01C40ED51ECC15DD05A6
:1017D00071F06991D701ED91FC910190F081E02DBC
:1017E000C7010995F3CF642F822F0E94830BC80194
:1017F000DF91CF911F910F91FF90EF90DF90CF90ED
:101800000895CF93DF931F92CDB7DEB76983209100
:1018100095062223D1F02091B706203240F021E036
:1018200030E0FC013383228380E090E015C080919A
:101830009606E82FF0E0E956F94F998190838F5F83
:10184000809396068093B70605C061E0CE010196AD
:101850000E94830B81E090E00F90DF91CF9108957B
:101860001F920F920FB60F9211242F933F934F9315
:101870005F936F937F938F939F93AF93BF93EF93F8
:10188000FF93E0918A06F0918B06309709F451C0DE
:10189000968DA685B785858591FF04C09C91892387
:1018A00029F447C09C91892309F043C0A389B489D6
:1018B0009C918589809589238C9386899789019746
:1018C000F1F7608D718DA685B785558538E020E0EC
:1018D000CB010197F1F7822F90E095958795282FFE
:1018E0004C91452309F02068315091F7868D81FD98
:1018F00020958091880690E001968F73992730910A
:101900008906381749F0A0918806B0E0A85BB94F66
:101910002C938093880603C0868D8160868F828D8C
:10192000938D0197F1F7A389B4899C918589892BBF
:101930008C93FF91EF91BF91AF919F918F917F9188
:101940006F915F914F913F912F910F900FBE0F902C
:101950001F901895CF93DF93EC018A8D9B8D892B77
:10196000F1F080918A0690918B068C179D07B9F053
:10197000009711F00E94630B8E8D8E7F8E8F1092D8
:10198000880610928906D0938B06C0938A06EB894D
:10199000FC8990818D89892B808381E001C080E062
:1019A000DF91CF9108951F920F920FB60F921124DD
:1019B0002F933F934F935F936F937F938F939F9357
:1019C000AF93BF93EF93FF938091B900887F8036E8
:1019D00009F49CC068F5883209F45BC090F480314A
:1019E00009F454C038F4882309F4F6C0883009F4A7
:1019F0004DC0F6C0883109F44CC0803209F45DC096
:101A0000EFC0803409F468C048F4803309F455C04D
:101A1000883309F0E5C08093DC06D8C0803509F42E
:101A20004FC0883509F45DC0883409F0D9C0D6C0EC
:101A3000883909F4C7C0A8F4883709F467C038F4B6
:101A4000883609F463C0803709F460C0C9C088389B
:101A500009F4B8C0803909F45FC0803809F0C0C00B
:101A60005BC0803B09F486C038F4803A09F466C054
:101A7000883A09F47FC0B4C0803C09F4A7C0883C10
:101A800009F4A4C0883B09F48AC0AAC08091B906B1
:101A900010C09091DB068091DA06981770F5E091FE
:101AA000DB0681E08E0F8093DB06F0E0E654F94F11
:101AB00080818093BB0085EC86C08093DC068EC05D
:101AC000E091DB0681E08E0F8093DB068091BB0006
:101AD000F0E0E654F94F80839091DB068091DA06BE
:101AE0006EC0E091DB0681E08E0F8093DB06809173
:101AF000BB00F0E0E654F94F80838091DD06811150
:101B00006DC081E08093B80684EA61C083E0809371
:101B1000DE0610924706CFCF80914706803208F04C
:101B200051C0E091470681E08E0F80934706809177
:101B3000BB00F0E0E95DF94F8083BDCF85EC809379
:101B4000BC001092DE0680914706803230F4E091AE
:101B50004706F0E0E95DF94F10826091470670E0BA
:101B6000E0912506F091260687E296E0099510920D
:101B7000470636C084E08093DE0610922406109259
:101B80002306E0912106F091220609958091230613
:101B9000811105C081E08093230610920106E09137
:101BA000240681E08E0F80932406F0E0EF5FF94F6A
:101BB00080818093BB009091240680912306981722
:101BC00008F479CF85E88093BC000AC085EC809347
:101BD000BC001092DE0604C01092DC060E94790B55
:101BE000FF91EF91BF91AF919F918F917F916F91F5
:101BF0005F914F913F912F910F900FBE0F901F90CB
:101C000018951092DE0681E08093DD061092B806EA
:101C100061E082E10E94D21361E083E10E94D2136D
:101C2000E9EBF0E080818E7F808380818D7F8083EF
:101C300088E48093B80085E48093BC000895EF9217
:101C4000FF920F931F93813051F42091A905309199
:101C5000AA05215031093093AA052093A905409186
:101C6000A9055091AA056091A7057091A805E82ED5
:101C7000F12C8A01045011099B0181ED97E00E942B
:101C8000740881E02091A9053091AA05232B09F45D
:101C900080E08093A4051F910F91FF90EF9008952D
:101CA0002F923F924F925F926F927F928F929F926C
:101CB000AF92BF92CF92DF92EF92FF920F931F935A
:101CC000CF93DF93CDB7DEB728970FB6F894DEBF7A
:101CD0000FBECDBF2C015B013A01209F6001219F07
:101CE000D00C309FD00C1124C601079697FD0796A3
:101CF000AC0183E0559547958A95E1F75A8349836E
:101D000000E010E018861F82212CC90101979E83F4
:101D10008D83E981FA810E171F07CCF5F301E00FDF
:101D2000F11F3490EF81F8853896FC83EB83822C89
:101D3000912C37FE09C09701A501B201680D791DEC
:101D400081ED97E00E940B0A330C2D813E818216B3
:101D5000930614F4239404C03FEFA31AB30A212C72
:101D60004F8158854F5F5F4F58874F839C2D8D2D36
:101D70004C155D0539F08B819C8148175907B9F6E0
:101D80009F8188850F5F1F4F9F838887C2CF2896CA
:101D90000FB6F894DEBF0FBECDBFDF91CF911F917C
:101DA0000F91FF90EF90DF90CF90BF90AF909F90FA
:101DB0008F907F906F905F904F903F902F900895FD
:101DC000FC01918D828D981761F0828DDF01A80F43
:101DD000B11D5D968C91928D9F5F9F73928F90E065
:101DE00008958FEF9FEF0895FC01918D828D9817D4
:101DF00031F0828DE80FF11D858D90E008958FEF11
:101E00009FEF0895FC01918D228D892F90E0805CD9
:101E10009F4F821B91098F73992708958FED96E04C
:101E20000E94020F21E0892B09F420E0822F0895FF
:101E3000FC01848DDF01A80FB11DA35ABF4F2C9167
:101E4000848D90E001968F739927848FA689B78936
:101E50002C93A089B1898C9180648C93938D848D0F
:101E6000981306C00288F389E02D80818F7D8083DE
:101E70000895EF92FF920F931F93CF93DF93EC019E
:101E800081E0888F9B8D8C8D981305C0E889F98936
:101E9000808185FD24C0F62E0B8D10E00F5F1F4F53
:101EA0000F731127E02E8C8DE8120CC00FB607FCC3
:101EB000FACFE889F989808185FFF5CFCE010E94AC
:101EC000180FF1CF8B8DFE01E80FF11DE35AFF4F84
:101ED000F0820B8FEA89FB898081806207C0EE89DE
:101EE000FF896083E889F98980818064808381E04B
:101EF00090E0DF91CF911F910F91FF90EF900895A7
:101F0000CF93DF93EC01888D8823C9F0EA89FB89A0
:101F1000808185FD05C0A889B9898C9186FD0FC097
:101F20000FB607FCF5CF808185FFF2CFA889B9896C
:101F30008C9185FFEDCFCE010E94180FE7CFDF9186
:101F4000CF91089580E090E0892B29F00E940E0F38
:101F500081110C9400000895833081F028F48130C1
:101F600099F08230A1F008958730A9F08830B9F057
:101F70008430D1F4809180008F7D03C080918000F7
:101F80008F7780938000089584B58F7702C084B5E1
:101F90008F7D84BD08958091B0008F7703C08091BC
:101FA000B0008F7D8093B00008953FB7F894809182
:101FB000910690919206A0919306B091940626B551
:101FC000A89B05C02F3F19F00196A11DB11D3FBF71
:101FD000BA2FA92F982F8827820F911DA11DB11DFF
:101FE000BC01CD0142E0660F771F881F991F4A95FB
:101FF000D1F708950F931F93CF93DF93DC0155968C
:102000008C915597823071F0833009F1813009F05D
:102010008CC01496ED91FC911597E41BF50BE21B17
:10202000F30B20C01496ED91FC911597CF01861B00
:10203000970BBC01615071091696ED91FC911797B1
:10204000CF01841B950BAC01421B530B6EC016963F
:10205000ED91FC911797CF01861B970BBC01615046
:102060007109FA0177FD1BC116968D919C91179706
:10207000681779070CF013C1F7FF04C02E0F3F1F3C
:10208000E0E0F0E014968D919C911597AF01420F1E
:10209000531F841795071CF49C012E1B3F0B12162F
:1020A00013060CF0FCC0CB0177FD079643E0959535
:1020B00087954A95E1F79695982F88279795879564
:1020C000E80FF91FE050FF4F6770772781E090E03D
:1020D00001C0880F6A95EAF7482F0130110541F0D9
:1020E00088F00230110509F0DAC02E0F3F1F15C02D
:1020F0002E0F3F1FE217F30709F4D1C08081842B14
:102100008193F8CF80952E0F3F1FE217F30709F454
:10211000C6C0908198239193F8CFE217F30709F492
:10212000BEC0808184278193F8CF77FDB8C0149614
:102130008D919C911597681779070CF0B0C057FFE7
:1021400004C0240F351F40E050E016968D919C91FD
:102150001797FA01E20FF31F8E179F071CF49C01DB
:10216000241B350B121613060CF099C0A22F842FD6
:1021700086958695869590E8899F600D711D11243E
:10218000FB01E050FF4F4770A9F198E0941B492FE5
:1021900050E0EA01C25FDA4F8881291790F4421BB0
:1021A00051092FEF30E002C0359527954A95E2F7A7
:1021B00082230130110541F068F00230110589F0E9
:1021C0006EC00130110519F42081822B0CC0013042
:1021D000110520F480952081822305C0023011056D
:1021E00031F4208182278083A91708F458C0A91BE5
:1021F000E058FF4FA83048F10230110559F4EF01C3
:102200008A2F988190959883C058DF4F88508830E6
:10221000C0F730C081E00130110509F080E0819500
:10222000EF019A2F8883C058DF4F98509830D0F72D
:1022300088EF8A0F86958695869590E8899FE00DB0
:10224000F11D1124E058FF4FA770AA2341F1B0E01F
:10225000AA5FBA4F8C910130110529F038F0023095
:102260001105D1F01CC09081892B18C080959081F8
:10227000892314C088EF8A0F86958695869590E805
:10228000899FE00DF11D1124E058FF4FA77039F030
:10229000B0E0AA5FBA4F8C91908189278083DF914B
:1022A000CF911F910F9108950F931F93CF93DF93B9
:1022B000DC01FB0155968C915597823081F083307B
:1022C00019F1813051F514968D919C911597BC01AF
:1022D000641B750BAB0141505109BF0181C01496BD
:1022E0006D917C911597CB018E1B9F0BFC0116966F
:1022F0008D919C911797BC01641B750BAB014150EC
:102300005109E21BF30B09C016966D917C9117974A
:102310006E1B7F0B621B730B63C057FD1CC11696AF
:102320008D919C911797481759070CF014C1F7FF2E
:1023300004C02E0F3F1FE0E0F0E014968D919C91B9
:102340001597BF01620F731F861797071CF49C0136
:102350002E1B3F0B121613060CF0FDC0CA0157FDD1
:10236000079663E0959587956A95E1F79695982F7E
:10237000882797958795E80FF91FE050FF4F477022
:10238000552781E090E001C0880F4A95EAF7482F71
:102390000130110541F088F00230110509F0DBC071
:1023A0002E0F3F1F15C02E0F3F1FE217F30709F432
:1023B000D2C08081842B8193F8CF80952E0F3F1F50
:1023C000E217F30709F4C7C0908198239193F8CFDF
:1023D000E217F30709F4BFC0808184278193F8CF07
:1023E00057FDB9C014968D919C91159748175907C0
:1023F0000CF0B1C077FF04C0260F371F60E070E01B
:1024000016968D919C911797FB01E20FF31F8E1783
:102410009F071CF49C01261B370B121613060CF0A9
:102420009AC0A22F862F86958695869590E8899FDB
:10243000400D511D1124FA01E050FF4F6770A9F1C2
:1024400098E0961B492F50E0EA01C25FDA4F88817D
:10245000291790F4421B51092FEF30E002C0359547
:1024600027954A95E2F782230130110541F068F083
:102470000230110589F06FC00130110519F4208177
:10248000822B0CC00130110520F48095208182231D
:1024900005C00230110531F4208182278083A917FD
:1024A00008F459C0A91BE058FF4FA83048F102308A
:1024B000110559F4EF018A2F988190959883C0589F
:1024C000DF4F88508830C0F731C081E001301105FE
:1024D00009F080E08195EF019A2F8883C058DF4F83
:1024E00098509830D0F788EF8A0F86958695869514
:1024F00060E8869FE00DF11D1124E058FF4FA770A2
:10250000AA2349F1B0E0AA5FBA4F8C9101301105BE
:1025100029F038F002301105D9F01DC09081892BC7
:1025200003C0809590818923808315C088EF8A0F2E
:1025300086958695869570E8879FE00DF11D11249C
:10254000E058FF4FA77039F0B0E0AA5FBA4F8C9106
:1025500090818927E9CFDF91CF911F910F91089545
:10256000FC0177FD9AC080859185681779070CF08A
:1025700094C057FD92C082859385481759070CF087
:102580008CC08589823009F07CC084819581DC0112
:10259000A61BB70BBD016150710986819781FC01B3
:1025A000E41BF50BAF01415051090AC0813041F4E1
:1025B00084819581841B950BAB01BC01615071092D
:1025C0002130310529F008F122303105E1F108957B
:1025D000FA0157FD3796A3E0F595E795AA95E1F73F
:1025E000F695FE2FEE27F795E7956E0F7F1FFB01FF
:1025F000E050FF4F4770552781E090E001C0880F01
:102600004A95EAF79081892B3AC0FA0157FD37962F
:1026100023E0F595E7952A95E1F7F695FE2FEE274D
:10262000F795E7956E0F7F1FFB01E050FF4F477056
:10263000552781E090E001C0880F4A95EAF7809520
:10264000908189231CC0FA0157FD379683E0F595E8
:10265000E7958A95E1F7F695FE2FEE27F795E79532
:102660006E0F7F1FFB01E050FF4F4770552781E041
:1026700090E001C0880F4A95EAF79081892780830E
:102680000895833009F092CF86819781861B970B3E
:10269000BA01AC014150510993CF089508950E94A9
:1026A000641C1F920F920FB60F9211242F933F9329
:1026B0004F935F936F937F938F939F93AF93BF934A
:1026C000EF93FF938FED96E00E94180FFF91EF912B
:1026D000BF91AF919F918F917F916F915F914F913A
:1026E0003F912F910F900FBE0F901F9018951F9242
:1026F0000F920FB60F9211242F938F939F93EF9306
:10270000FF93E091EF06F091F0068081E091F506ED
:10271000F091F60682FD12C090818091F8068F5FDD
:102720008F732091F906821751F0E091F806F0E0DE
:10273000E152F94F958F8093F80601C08081FF9197
:10274000EF919F918F912F910F900FBE0F901F903F
:102750001895CF93DF93282F30E0F901E058F64F1A
:102760008491F901E454F64FD491F901E855F64FFC
:10277000C491CC2391F081110E94AC0FEC2FF0E0BA
:10278000EE0FFF1FE256F64FA591B491EC91ED23A9
:1027900081E090E021F480E002C080E090E0DF91F1
:1027A000CF9108951F93CF93DF93282F30E0F90145
:1027B000E058F64F8491F901E454F64FD491F901B1
:1027C000E855F64FC491CC23C9F0162F81110E9411
:1027D000AC0FEC2FF0E0EE0FFF1FEC56F64FA5917B
:1027E000B4918FB7F894111105C09C91ED2FE0952D
:1027F000E92302C0EC91ED2BEC938FBFDF91CF91D9
:102800001F910895CF93DF9390E0FC01E454F64FBD
:102810002491FC01E855F64F8491882361F190E002
:10282000880F991FFC01E859FF4FC591D491FC0115
:10283000EC56F64FA591B491611109C09FB7F89479
:102840008881209582238883EC912E230BC06230EF
:1028500061F49FB7F8943881822F80958323888311
:10286000EC912E2B2C939FBF06C08FB7F894E88174
:102870002E2B28838FBFDF91CF9108958F929F9247
:10288000AF92BF92CF92DF92EF92FF926B017C01E9
:102890000E94D50F4B015C01C114D104E104F10485
:1028A000F1F00E94D50FDC01CB0188199909AA0922
:1028B000BB09883E9340A105B10570F321E0C21A1F
:1028C000D108E108F10888EE880E83E0981EA11C6B
:1028D000B11CC114D104E104F10419F7DDCFFF905C
:1028E000EF90DF90CF90BF90AF909F908F90089522
:1028F0002FB7F89460918D0670918E0680918F06A7
:10290000909190062FBF08951F920F920FB60F92CD
:1029100011242F933F938F939F93AF93BF938091F5
:102920008D0690918E06A0918F06B0919006309101
:102930008C0623E0230F2D3720F40196A11DB11D35
:1029400005C026E8230F0296A11DB11D20938C0619
:1029500080938D0690938E06A0938F06B093900679
:102960008091910690919206A0919306B091940661
:102970000196A11DB11D8093910690939206A0939C
:102980009306B0939406BF91AF919F918F913F9121
:102990002F910F900FBE0F901F9018959091DE060B
:1029A0009111FCCF22E02093DE0621E02093DD068A
:1029B0002FEF2093DC061092DB064093DA06FB0132
:1029C0006AEB76E0DB012A2F261B241718F42191ED
:1029D0002D93F9CF1092B9062091B906880F822B5A
:1029E0008093B9068091B806813061F41092B806E0
:1029F0008091B9068093BB008091BC0083FDF8CF25
:102A000085EC01C085EE8093BC008091DE068230AB
:102A1000E1F38091DC068F3F69F08091DC06803223
:102A200031F08091DC06803321F094E003C092E025
:102A300001C093E0892F08954091B70680911E0848
:102A4000413228F467E976E00E94CE1401C081E0AB
:102A5000109296061092B7061092950608959091DE
:102A6000F207992339F08EBD00000DB407FEFDCFAB
:102A70008EB5089528E030E040E8E091F507F09148
:102A8000F60750819091FC07909595239083E091F3
:102A9000F307F091F4079091FB07542F582319F096
:102AA0005081952B03C05081909595239083E091A0
:102AB000F507F091F60750819091FC07952B9083D4
:102AC000469521503109C9F60895CF92DF92EF92D1
:102AD000FF920F931F93CF93DF936C017A018B01C9
:102AE000C0E0D0E0CE15DF0589F0D8016D918D01F1
:102AF000D601ED91FC910190F081E02DC601099580
:102B0000892B11F47E0102C02196ECCFC701DF9121
:102B1000CF911F910F91FF90EF90DF90CF9008958C
:102B2000CF93C82F8091ED078F3F59F1E091F707C0
:102B3000F091F80780819091FD07982B9083E091A8
:102B4000F907F091FA0720819091FE079095922362
:102B50009083E091F707F091F80720819091FD07AD
:102B60009095922390838C2F0E942F15E091F70768
:102B7000F091F80790818091FD07892B8083CF9198
:102B800008958091EB0791E09093950680931E083D
:102B9000109296061092B70660E085EC97E00E94CE
:102BA000010C6C2F85EC97E00E94010CCF910C94E6
:102BB0001C15EF92FF920F931F93CF93DF9381E247
:102BC0000E94901580E00E9490158FE70E9490155A
:102BD00082E20E94901580E00E94901587E00E949A
:102BE00090158091ED078F3F79F1E091F707F09113
:102BF000F80790818091FD07892B8083E091F90788
:102C0000F091FA0790818091FE07892B8083E091F3
:102C1000F707F091F80790818091FD07809589234F
:102C20008083C0E0D1E089910E942F1585E0C030FB
:102C3000D807C9F7E091F707F091F80790818091E4
:102C4000FD07892B808330C0F090B8008CE0809322
:102C5000B800C0E0D1E0EE24E3948091EB07E0926D
:102C6000950680931E08109296061092B70660E4AF
:102C700085EC97E00E94010C00E010E0FE01E00FFF
:102C8000F11F608185EC97E00E94010C0F5F1F4FE0
:102C90000031110599F70E941C15609685E0C0303F
:102CA000D807D9F6F092B800DF91CF911F910F911C
:102CB000FF90EF9008956115710579F0FB01019087
:102CC0000020E9F73197AF01461B570BDC01ED916E
:102CD000FC910280F381E02D099480E090E008955A
:102CE0004F925F926F927F92EF92FF920F931F939A
:102CF000CF93DF93CDB7DEB7A1970FB6F894DEBFC1
:102D00000FBECDBF7C01FA01CB0119A2223008F41D
:102D10002AE08E010F5D1F4F422E512C612C712C29
:102D2000BF01A30192010E94691CF901CA0101506F
:102D300011096A3014F4605D01C0695CD8016C93BC
:102D4000232B242B252B61F7B801C7010E945B16AA
:102D5000A1960FB6F894DEBF0FBECDBFDF91CF9125
:102D60001F910F91FF90EF907F906F905F904F9029
:102D70000895CF92DF92EF92FF920F931F93CF931C
:102D8000DF93EC016A017B01E881F9810190F08118
:102D9000E02D6DE209958C0144275527BA014C19A5
:102DA0005D096E097F092AE0CE010E947016800F2E
:102DB000911FDF91CF911F910F91FF90EF90DF90C6
:102DC000CF900895CF93DF9300D0CDB7DEB7209199
:102DD0001F0830912008CE0101962115310519F404
:102DE0008352984018C0AC01421B530BE09121085C
:102DF000F091220880E090E0309759F09C012E5F1E
:102E00003F4F80819181820F931F0280F381E02DDB
:102E1000F3CF840F951F9A83898349815A818091CA
:102E2000C3079091C407052E000C660B770B77FF44
:102E300003C00E94B91603C02AE00E9470160F90CA
:102E40000F90DF91CF9108950C945B16CF92DF9293
:102E5000EF92FF921F93CF93DF931F92CDB7DEB710
:102E6000198288E0C82ED12CE12CF12C11E040E031
:102E7000BE016F5F7F4F8C2D0E94CE14811113C055
:102E80002AE0B701A6018091C3079091C4070E9470
:102E900070166FE975E08091C3079091C4070E9496
:102EA0002417109382078FEFC81AD80AE80AF80A85
:102EB00087E7C816D104E104F104C9F60F90DF9149
:102EC000CF911F91FF90EF90DF90CF90089578946D
:102ED00084B5826084BD84B5816084BD85B582601F
:102EE00085BD85B5816085BD80916E0081608093D0
:102EF0006E00109281008091810082608093810039
:102F00008091810081608093810080918000816048
:102F1000809380008091B10084608093B1008091A3
:102F2000B00081608093B00080917A0084608093CB
:102F30007A0080917A00826080937A0080917A0092
:102F4000816080937A0080917A00806880937A0013
:102F50001092C1001092BF071092C0071092C107D3
:102F60001092C20710927E0710927F07109280077E
:102F70001092810760ED77E080E090E00E943E14BF
:102F80008FEF97E09093C4078093C30710921A08BD
:102F9000109219081092180810921708109216082B
:102FA000109215088FE190E090931C0880931B0805
:102FB00090910B08963108F057C021E030E0309333
:102FC0001608209315082DE130E03093180820935F
:102FD00017082DE030E030931A082093190820914B
:102FE0006800983050F031E09E3008F430E081E025
:102FF00001C0880F3A95EAF701C084E0822B8093E4
:103000006800983038F09E3040F0963148F020E06B
:1030100030E008C02DE630E005C02BE630E002C00D
:103020002CE630E03093130820931208983030F4E7
:1030300081E001C0880F9A95EAF70EC0292F30E091
:103040009E3018F42850310902C02E50310981E019
:1030500001C0880F2A95EAF78093140880911B0815
:1030600090911C080197F1F78FEF97E00E94AA0C4E
:103070008091C3079091C4070E94AA0C0E94781403
:1030800060937E0770937F078093800790938107FA
:103090006EE675E08091C3079091C4070E942417E3
:1030A0006AE070E080E090E00E943E1481E080934E
:1030B00093071092A3051092A20510929606109203
:1030C000B7060E94010E0E94781400917E071091AD
:1030D0007F072091800730918107DC01CB01801BA5
:1030E000910BA20BB30BC297A105B10538F463E0B5
:1030F00070E080E090E00E943E14E5CF0E947814DA
:1031000060937E0770937F07809380079093810779
:1031100060E875E08091C3079091C4070E9424176E
:1031200080918207811102C00E94261767E875E02E
:103130008091C3079091C4070E94241767E875E047
:103140008091C3079091C4070E94241767E875E037
:103150008091C3079091C4070E9424170E94E21631
:1031600067E875E08091C3079091C4070E94241717
:1031700069E875E08091C3079091C4070E94241705
:103180006AE070E080E090E00E943E14E091EF067B
:10319000F091F006C2E0C083E091EB06F091EC06FE
:1031A0001082E091ED06F091EE068FEC8083109294
:1031B000F706E091F306F091F40686E08083E09153
:1031C000F106F091F206808180618083E091F10642
:1031D000F091F206808188608083E091F106F091A1
:1031E000F206808180688083E091F106F091F2061A
:1031F00080818F7D808362E975E08FED96E00E948B
:1032000024172AE041E050E060E070E08FED96E0A6
:103210000E9470166FE875E08FED96E00E945B16D5
:10322000C093EC078CE38093EB078091ED078F3F11
:1032300009F4BDC061E08091EF070E94021461E0D3
:103240008091F1070E9402148091F107082E000C72
:10325000990BFC01E855F64FE491F0E0EE0FFF1FEB
:10326000EC56F64F259134913093F8072093F707E9
:10327000FC01E454F64FE491E093FD078091EF07E1
:10328000082E000C990BFC01E855F64FE491F0E094
:10329000EE0FFF1FEC56F64F259134913093FA074D
:1032A0002093F907FC01E454F64FE491E093FE0704
:1032B0008091F20781113EC061E08091ED070E948C
:1032C000021461E08091EE070E9402148091EE07E3
:1032D000082E000C990BFC01E855F64FE491F0E044
:1032E000EE0FFF1FEC56F64F259134913093F60701
:1032F0002093F507FC01E454F64FE491E093FC07BA
:103300008091ED07082E000C990BFC01E855F64F53
:10331000E491F0E0EE0FFF1FEC56F64F259134914B
:103320003093F4072093F307FC01E454F64FE49143
:10333000E093FB078091F207882309F442C0CFB7DE
:10334000F8948091AB05811127C0E2EBF9E08491FC
:10335000E6ECF9E09491E82FF0E0EE0FFF1FE8595A
:10336000FF4FA591B491EC91E92321F461E08AE04B
:103370000E94D21361E08AE00E9402148CB5806141
:103380008CBD8CB580648CBD61E08DE00E94021420
:1033900061E08BE00E9402148091AB058F5F809307
:1033A000AB05CFBF80E58CBD81E08DBD0AC010921A
:1033B000A3051092A205109296061092B7060E94DD
:1033C000010E8091F00787FD1EC061E00E9402148B
:1033D00061E08091F0070E94D21361E070E080E02C
:1033E00090E00E943E1460E08091F0070E94D213AA
:1033F0006AE070E080E090E00E943E1461E080911D
:10340000F0070E94D2138EEA0E94901585ED0E946B
:10341000901580E80E94901588EA0E9490158FE32D
:103420000E94901583ED0E94901580E00E949015F7
:1034300080E40E9490158DE80E94901584E10E941E
:10344000901580E20E94901580E00E94901581EA1C
:103450000E94901588EC0E9490158AED0E949015AC
:1034600082E10E94901581E80E9490158FEC0E94E5
:10347000901589ED0E94901581EF0E9490158BEDBB
:103480000E94901580E40E94901584EA0E94901595
:1034900086EA0E9490158EE20E9490158FEA0E94A3
:1034A000901563E081ED97E00E94140562E082E0F0
:1034B0000E94021462E083E00E94021462E084E051
:1034C0000E94021480E094E0E0E0F1E0DF019C0162
:1034D0001D9221503040E1F7E12CF12CD12C00E07D
:1034E00010E0C0E0D0E0CE0187709927892B11F061
:1034F000DD0C0BC0FE0183E0F595E7958A95E1F7B9
:10350000EE0DFF1DE058FF4FD490D7FE08C021E01C
:1035100030E0A801BE0181ED97E00E940B0A2196E0
:10352000C034D10501F70F5F1F4F38E0E30EF11CE7
:1035300000381105B1F60E94D91582E00E94A91346
:10354000EC0164E670E080E090E00E943E14CD2B38
:10355000A1F71092A40580E094E0E0E0F1E0DF0143
:103560009C011D9221503040E1F7EE24E394F12CB0
:1035700009E010E02CE030E042E750E06DE670E05A
:1035800086E090E00E94500E2CE030E042E750E0F0
:103590006DE670E089E190E00E94500E2CE030E092
:1035A00042E750E06DE670E08CE290E00E94500E41
:1035B00020E030E054E16EE141E080E090E0223034
:1035C00031055CF4F901EE0FFF1FEE0FFF1FE4550C
:1035D000FA4FE80FF91F628306C0FC01E455FA4F69
:1035E000568723E030E0F901EE0FFF1FEE0FFF1FBB
:1035F000E455FA4FE80FF91F468B42A746AF0196F4
:1036000084309105E1F62F5F3F4FD7CF82E695E0FA
:10361000909300088093FF078FEF97E00C94630B63
:103620001092E2061092E10688EE93E0A0E0B0E08E
:103630008093E3069093E406A093E506B093E60634
:103640002AE135E03093E0062093DF0625EC30E0F8
:103650003093EC062093EB0624EC30E03093EE063A
:103660002093ED0620EC30E03093F0062093EF0637
:1036700021EC30E03093F2062093F10622EC30E0AA
:103680003093F4062093F30626EC30E03093F606F0
:103690002093F5061092F8061092F9061092FA0699
:1036A0001092FB06109283071092840710928507F0
:1036B0001092860710928707109288071092890748
:1036C00010928A0710928B0710928C0710928D0728
:1036D00010928E0710928F07109290071092910708
:1036E000109292071092C8071092C7078093C907DB
:1036F0009093CA07A093CB07B093CC072AE235E09A
:103700003093C6072093C507109202081092010853
:103710008093030890930408A0930508B0930608CB
:1037200082E695E0909300088093FF0710921608B8
:1037300010921508109218081092170810921A0883
:103740001092190810921C0810921B0860911D0815
:103750006E7F6D7F60931D086695617081E06827BC
:1037600087E00E94D21361E087E00E940214E3EC3C
:10377000F9E0E491E0930F08EFEAF9E0E491F0E07A
:10378000EE0FFF1FEC56F64F859194919093110820
:103790008093100860E088E00E94021480911D0868
:1037A00081FD04C061E088E00E94D21388E080932C
:1037B0000B08E4ECF9E0E491E0930C08E0EBF9E0AD
:1037C000E491F0E0EE0FFF1FE256F64F85919491E1
:1037D00090930E0880930D081092D4071092D3078F
:1037E00020E830E03093D6072093D50780E490E0BE
:1037F0009093D8078093D7073093DA072093D9079F
:103800009093DC078093DB071092E6071092DE07A7
:103810001092DD071092E0071092DF0781E080939D
:10382000E5072FEF3FEF3093E4072093E307309352
:10383000E2072093E1078093E7071092E8071092D0
:10384000EA071092E9078AE395E09093D207809304
:10385000D1078FEF8093ED078093F1078093EF07F7
:103860008093EE0784E08093F007089597FB072E7E
:1038700016F4009407D077FD09D00E944A1C07FC7B
:1038800005D03EF4909581959F4F08957095619570
:103890007F4F0895AA1BBB1B51E107C0AA1FBB1F86
:1038A000A617B70710F0A61BB70B881F991F5A95CC
:1038B000A9F780959095BC01CD010895EE0FFF1FEB
:1038C0000590F491E02D099481E090E0F8940C9437
:1038D0008B1CA1E21A2EAA1BBB1BFD010DC0AA1F47
:1038E000BB1FEE1FFF1FA217B307E407F50720F069
:1038F000A21BB30BE40BF50B661F771F881F991FE4
:103900001A9469F760957095809590959B01AC012C
:10391000BD01CF01089514E0C9EED4E004C0FE015A
:103920000E945E1C2196CA3ED107C9F7F894FFCFCA
:103930000000000000000000000000000000000087
:103940000000000000000000000000000000000077
:103950000000000000000000000000000000000067
:1039600000000000000000000000000000000080D7
:103970008080000000000000000000000000000047
:10398000008080C0C00000000000000000000000B7
:103990000000000000000000000000000000000027
:1039A0000000000000000000000000000000000017
:1039B0000000000000000000000000000000000007
:1039C0000000000080C0E0F0F8FCF8E0000000001B
:1039D0000000000000000000000000000080808067
:1039E000808000808000000000808080808000FF58
:1039F000FFFF0000000080808080000080800000C9
:103A000080FFFF8080008080008080808000808038
:103A10000000000000808000008C8E84000080F890
:103A2000F8F8800000000000000000000000000026
:103A3000F0F0F0F0F0F0F0F0F0F0F0F0E0E0C08046
:103A400000E0FCFEFFFFFF7FFFFFFFFFFF00000025
:103A50000000000000000000000000FEFFC70101A0
:103A6000010183FFFF00007CFEC70101010183FF0C
:103A7000FFFF0038FEC78301010183C7FFFF00007D
:103A800001FFFF010100FFFF0701010100007FFFAF
:103A900080000000FFFF7F0000FFFFFF000001FF2C
:103AA000FFFF010000000000000000000000000017
:103AB000030F3F7F7FFFFFFFFFFFFFFFE7C7C78FBA
:103AC0008F9FBFFFFFC3C0F0FFFFFFFFFFFCFCFCA9
:103AD000FCFCFCFCFCF8F8F0F0E0C0000103030380
:103AE00003030103030000000001030303030101BA
:103AF00003010000000103030303010103030000AD
:103B000000030300000003030000000000000001A8
:103B1000030303030301000000010301000000038D
:103B20000301000000000000000000000000000091
:103B300000000080C0E0F0F9FFFFFFFFFF3F1F0F14
:103B400087C7F7FFFF1F1F3DFCF8F8F8F87C7DFFE3
:103B5000FFFFFFFFFFFFFF7F3F0F07003030000038
:103B60000000000000000000000000000000000055
:103B700000000000FEFEFC0000000000000000004D
:103B800000000000000000000000000000E0C00095
:103B900000000000000000000000303000000000C5
:103BA0000000000000000000000000000000000015
:103BB00000C0FEFFFFFFFFFFFFFFFFFF7F7F3F1FF4
:103BC0000F071F7FFFFFF8F8FFFFFFFFFFFEF8E082
:103BD000000000010000000000000000FEFE0000E8
:103BE00000FCFEFC0C06060EFCF80000F0F81C0EB3
:103BF0000606060CFFFFFF0000FEFE00000000FCB2
:103C0000FEFC00183C7E66E6CE84000006FFFF0640
:103C100006FCFEFC0C0606060000FEFE0000C0F8D6
:103C2000FC4E4646464E7C7840183C76E6CECC802C
:103C30000000000000000000000000000000000084
:103C40000000000001070F1F1F3F3F3F3F1F0F03F2
:103C50000000000000000000000000000F0F000046
:103C6000000F0F0F000000000F0F000003070E0CE5
:103C700018180C060F0F0F0000010F0E0C180C0F78
:103C8000070100040E0C180C0F070000000F0F00B6
:103C9000000F0F0F0000000000000F0F00000007D2
:103CA000070C0C181C0C060600040E0C180C0F0751
:103CB0000000000000000000000000000000000004
:103CC00000000000000000000000000000000000F4
:103CD00000000000000000000000000000000000E4
:103CE00000000000000000000000000000000000D4
:103CF00000000000000000000000000000000000C4
:103D000000000000000000000000000000000000B3
:103D100000000000000000000000000000000000A3
:103D20000000000000000000000000000000000093
:103D3000000023088000000103070F1F3F7F008061
:103D4000C0E0F0F8FCFE00000000390F6515020F1E
:103D5000E00EF40E800F00000000010CD10BC90B27
:103D6000BA0BAC0BAB0B000000003F076515B0129F
:103D7000120A0B0AE309FF09F309130AE209140501
:103D80004E13FA0F54110909EB08740815080000C6
:103D90000000D60A65152A0B420BBD0AD50A564DFE
:103DA0004450565F317C315F564D4450560D0A00E9
:103DB000564D4450525F007C005F564D4450520DAA
:103DC0000A006261736544656C7461583A20003A78
:023DD0000000F1
:00000001FF
